HEADERRT50 FRAME        201008281603490017000000                                                                                                                          
100BD0000010011D088051                8981498830     201004191312243125010                                                                                                
100BD0000010021Y088052                8981498830     201004191312243125010                                                                                                
100BD0000010031L088053                8981498830     201004191312243125010                                                                                                
100BD0000010041P088054                8981498830     201004191312243125010                                                                                                
100BD0000010051E088055                8981498830     201004191312243125010                                                                                                
100BD0000010061S088056                8981498830     201004191312243125010                                                                                                
100BD0000010071X088057                8981498830     201004191312243125010                                                                                                
100BD0000010081Y088058                8981498830     201004191312243125010                                                                                                
100BD0000010091Y088059                8981498830     201004191312243125010                                                                                                
100BD0000010101L088060                8981498830     201004191312243125010                                                                                                
100BD0000010111L088061                8981498830     201004191312243125010                                                                                                
100BD0000010121D088062                8981498830     201004191312243125010                                                                                                
100BD0000010131D088063                8981498830     201004191312243125010                                                                                                
100BD0000010141P088064                8981498830     201004191312243125010                                                                                                
100BD0000010151P088065                8981498830     201004191312243125010                                                                                                
TRAIL 00000015                                                                                                                                                            
HEADERRT50 FRAME        201008281603560017000000                                                                                                                          
100BD0000020011D088051                8981498830     201004191312243125010                                                                                                
100BD0000020021Y088052                8981498830     201004191312243125010                                                                                                
100BD0000020031L088053                8981498830     201004191312243125010                                                                                                
100BD0000020041P088054                8981498830     201004191312243125010                                                                                                
100BD0000020051E088055                8981498830     201004191312243125010                                                                                                
100BD0000020061S088056                8981498830     201004191312243125010                                                                                                
100BD0000020071X088057                8981498830     201004191312243125010                                                                                                
100BD0000020081Y088058                8981498830     201004191312243125010                                                                                                
100BD0000020091Y088059                8981498830     201004191312243125010                                                                                                
100BD0000020101L088060                8981498830     201004191312243125010                                                                                                
100BD0000020111L088061                8981498830     201004191312243125010                                                                                                
100BD0000020121D088062                8981498830     201004191312243125010                                                                                                
100BD0000020131D088063                8981498830     201004191312243125010                                                                                                
100BD0000020141P088064                8981498830     201004191312243125010                                                                                                
100BD0000020151P088065                8981498830     201004191312243125010                                                                                                
TRAIL 00000015                                                                                                                                                            
HEADERRT50 FRAME        201008281604030017000000                                                                                                                          
100BD0000030011D088051                8981498830     201004191312243125010                                                                                                
100BD0000030021Y088052                8981498830     201004191312243125010                                                                                                
100BD0000030031L088053                8981498830     201004191312243125010                                                                                                
100BD0000030041P088054                8981498830     201004191312243125010                                                                                                
100BD0000030051E088055                8981498830     201004191312243125010                                                                                                
100BD0000030061S088056                8981498830     201004191312243125010                                                                                                
100BD0000030071X088057                8981498830     201004191312243125010                                                                                                
100BD0000030081Y088058                8981498830     201004191312243125010                                                                                                
100BD0000030091Y088059                8981498830     201004191312243125010                                                                                                
100BD0000030101L088060                8981498830     201004191312243125010                                                                                                
100BD0000030111L088061                8981498830     201004191312243125010                                                                                                
100BD0000030121D088062                8981498830     201004191312243125010                                                                                                
100BD0000030131D088063                8981498830     201004191312243125010                                                                                                
100BD0000030141P088064                8981498830     201004191312243125010                                                                                                
100BD0000030151P088065                8981498830     201004191312243125010                                                                                                
TRAIL 00000015                                                                                                                                                            
HEADERRT50 FRAME        201008281604100017000000                                                                                                                          
100BD0000040011D088051                8981498830     201004191312243125010                                                                                                
100BD0000040021Y088052                8981498830     201004191312243125010                                                                                                
100BD0000040031L088053                8981498830     201004191312243125010                                                                                                
100BD0000040041P088054                8981498830     201004191312243125010                                                                                                
100BD0000040051E088055                8981498830     201004191312243125010                                                                                                
100BD0000040061S088056                8981498830     201004191312243125010                                                                                                
100BD0000040071X088057                8981498830     201004191312243125010                                                                                                
100BD0000040081Y088058                8981498830     201004191312243125010                                                                                                
100BD0000040091Y088059                8981498830     201004191312243125010                                                                                                
100BD0000040101L088060                8981498830     201004191312243125010                                                                                                
100BD0000040111L088061                8981498830     201004191312243125010                                                                                                
100BD0000040121D088062                8981498830     201004191312243125010                                                                                                
100BD0000040131D088063                8981498830     201004191312243125010                                                                                                
100BD0000040141P088064                8981498830     201004191312243125010                                                                                                
100BD0000040151P088065                8981498830     201004191312243125010                                                                                                
TRAIL 00000015                                                                                                                                                            
HEADERRT50 FRAME        201008281604160017000000                                                                                                                          
100BD0000050011D088051                8981498830     201004191312243125010                                                                                                
100BD0000050021Y088052                8981498830     201004191312243125010                                                                                                
100BD0000050031L088053                8981498830     201004191312243125010                                                                                                
100BD0000050041P088054                8981498830     201004191312243125010                                                                                                
100BD0000050051E088055                8981498830     201004191312243125010                                                                                                
100BD0000050061S088056                8981498830     201004191312243125010                                                                                                
100BD0000050071X088057                8981498830     201004191312243125010                                                                                                
100BD0000050081Y088058                8981498830     201004191312243125010                                                                                                
100BD0000050091Y088059                8981498830     201004191312243125010                                                                                                
100BD0000050101L088060                8981498830     201004191312243125010                                                                                                
100BD0000050111L088061                8981498830     201004191312243125010                                                                                                
100BD0000050121D088062                8981498830     201004191312243125010                                                                                                
100BD0000050131D088063                8981498830     201004191312243125010                                                                                                
100BD0000050141P088064                8981498830     201004191312243125010                                                                                                
100BD0000050151P088065                8981498830     201004191312243125010                                                                                                
TRAIL 00000015                                                                                                                                                            
HEADERRT50 FRAME        201008281604220017000000                                                                                                                          
100BD0000060011D088051                8981498830     201004191312243125010                                                                                                
100BD0000060021Y088052                8981498830     201004191312243125010                                                                                                
100BD0000060031L088053                8981498830     201004191312243125010                                                                                                
100BD0000060041P088054                8981498830     201004191312243125010                                                                                                
100BD0000060051E088055                8981498830     201004191312243125010                                                                                                
100BD0000060061S088056                8981498830     201004191312243125010                                                                                                
100BD0000060071X088057                8981498830     201004191312243125010                                                                                                
100BD0000060081Y088058                8981498830     201004191312243125010                                                                                                
100BD0000060091Y088059                8981498830     201004191312243125010                                                                                                
100BD0000060101L088060                8981498830     201004191312243125010                                                                                                
100BD0000060111L088061                8981498830     201004191312243125010                                                                                                
100BD0000060121D088062                8981498830     201004191312243125010                                                                                                
100BD0000060131D088063                8981498830     201004191312243125010                                                                                                
100BD0000060141P088064                8981498830     201004191312243125010                                                                                                
100BD0000060151P088065                8981498830     201004191312243125010                                                                                                
TRAIL 00000015                                                                                                                                                            
HEADERRT50 FRAME        201008281604290017000000                                                                                                                          
100BD0000070011D088051                8981498830     201004191312243125010                                                                                                
100BD0000070021Y088052                8981498830     201004191312243125010                                                                                                
100BD0000070031L088053                8981498830     201004191312243125010                                                                                                
100BD0000070041P088054                8981498830     201004191312243125010                                                                                                
100BD0000070051E088055                8981498830     201004191312243125010                                                                                                
100BD0000070061S088056                8981498830     201004191312243125010                                                                                                
100BD0000070071X088057                8981498830     201004191312243125010                                                                                                
100BD0000070081Y088058                8981498830     201004191312243125010                                                                                                
100BD0000070091Y088059                8981498830     201004191312243125010                                                                                                
100BD0000070101L088060                8981498830     201004191312243125010                                                                                                
100BD0000070111L088061                8981498830     201004191312243125010                                                                                                
100BD0000070121D088062                8981498830     201004191312243125010                                                                                                
100BD0000070131D088063                8981498830     201004191312243125010                                                                                                
100BD0000070141P088064                8981498830     201004191312243125010                                                                                                
100BD0000070151P088065                8981498830     201004191312243125010                                                                                                
TRAIL 00000015                                                                                                                                                            
HEADERRT50 FRAME        201008281604370017000000                                                                                                                          
100BD0000080011D088051                8981498830     201004191312243125010                                                                                                
100BD0000080021Y088052                8981498830     201004191312243125010                                                                                                
100BD0000080031L088053                8981498830     201004191312243125010                                                                                                
100BD0000080041P088054                8981498830     201004191312243125010                                                                                                
100BD0000080051E088055                8981498830     201004191312243125010                                                                                                
100BD0000080061S088056                8981498830     201004191312243125010                                                                                                
100BD0000080071X088057                8981498830     201004191312243125010                                                                                                
100BD0000080081Y088058                8981498830     201004191312243125010                                                                                                
100BD0000080091Y088059                8981498830     201004191312243125010                                                                                                
100BD0000080101L088060                8981498830     201004191312243125010                                                                                                
100BD0000080111L088061                8981498830     201004191312243125010                                                                                                
100BD0000080121D088062                8981498830     201004191312243125010                                                                                                
100BD0000080131D088063                8981498830     201004191312243125010                                                                                                
100BD0000080141P088064                8981498830     201004191312243125010                                                                                                
100BD0000080151P088065                8981498830     201004191312243125010                                                                                                
TRAIL 00000015                                                                                                                                                            
HEADERRT50 FRAME        201008281604430017000000                                                                                                                          
100BD0000090011D088051                8981498830     201004191312243125010                                                                                                
100BD0000090021Y088052                8981498830     201004191312243125010                                                                                                
100BD0000090031L088053                8981498830     201004191312243125010                                                                                                
100BD0000090041P088054                8981498830     201004191312243125010                                                                                                
100BD0000090051E088055                8981498830     201004191312243125010                                                                                                
100BD0000090061S088056                8981498830     201004191312243125010                                                                                                
100BD0000090071X088057                8981498830     201004191312243125010                                                                                                
100BD0000090081Y088058                8981498830     201004191312243125010                                                                                                
100BD0000090091Y088059                8981498830     201004191312243125010                                                                                                
100BD0000090101L088060                8981498830     201004191312243125010                                                                                                
100BD0000090111L088061                8981498830     201004191312243125010                                                                                                
100BD0000090121D088062                8981498830     201004191312243125010                                                                                                
100BD0000090131D088063                8981498830     201004191312243125010                                                                                                
100BD0000090141P088064                8981498830     201004191312243125010                                                                                                
100BD0000090151P088065                8981498830     201004191312243125010                                                                                                
TRAIL 00000015                                                                                                                                                            
HEADERRT50 FRAME        201008281605070017000000                                                                                                                          
100BE0000010011D088051                8981498830     201004191312243125010                                                                                                
100BE0000010021Y088052                8981498830     201004191312243125010                                                                                                
100BE0000010031L088053                8981498830     201004191312243125010                                                                                                
100BE0000010041P088054                8981498830     201004191312243125010                                                                                                
100BE0000010051E088055                8981498830     201004191312243125010                                                                                                
100BE0000010061S088056                8981498830     201004191312243125010                                                                                                
100BE0000010071X088057                8981498830     201004191312243125010                                                                                                
100BE0000010081Y088058                8981498830     201004191312243125010                                                                                                
100BE0000010091Y088059                8981498830     201004191312243125010                                                                                                
100BE0000010101L088060                8981498830     201004191312243125010                                                                                                
100BE0000010111L088061                8981498830     201004191312243125010                                                                                                
100BE0000010121D088062                8981498830     201004191312243125010                                                                                                
100BE0000010131D088063                8981498830     201004191312243125010                                                                                                
100BE0000010141P088064                8981498830     201004191312243125010                                                                                                
100BE0000010151P088065                8981498830     201004191312243125010                                                                                                
TRAIL 00000015                                                                                                                                                            
