HEADERRT50 FRAME        201008281603490017000000                                                                                                                          
100BD0000010011I088051                8981498830     201004191312243125010                                                                                                
100BD0000010021I088052                8981498830     201004191312243125010                                                                                                
100BD0000010031I088053                8981498830     201004191312243125010                                                                                                
100BD0000010041I088054                8981498830     201004191312243125010                                                                                                
100BD0000010051I088055                8981498830     201004191312243125010                                                                                                
100BD0000010061I088056                8981498830     201004191312243125010                                                                                                
100BD0000010071I088057                8981498830     201004191312243125010                                                                                                
100BD0000010081I088058                8981498830     201004191312243125010                                                                                                
100BD0000010091I088059                8981498830     201004191312243125010                                                                                                
100BD0000010101I088060                8981498830     201004191312243125010                                                                                                
100BD0000010111I088061                8981498830     201004191312243125010                                                                                                
100BD0000010121I088062                8981498830     201004191312243125010                                                                                                
100BD0000010131I088063                8981498830     201004191312243125010                                                                                                
100BD0000010141I088064                8981498830     201004191312243125010                                                                                                
100BD0000010151I088065                8981498830     201004191312243125010                                                                                                
TRAIL 00000015                                                                                                                                                            
HEADERRT50 FRAME        201008281603560017000000                                                                                                                          
100BD0000010011I088051                8981498830     201004191312243125010                                                                                                
100BD0000010021I088052                8981498830     201004191312243125010                                                                                                
100BD0000010031I088053                8981498830     201004191312243125010                                                                                                
100BD0000010041I088054                8981498830     201004191312243125010                                                                                                
100BD0000010051I088055                8981498830     201004191312243125010                                                                                                
100BD0000010061I088056                8981498830     201004191312243125010                                                                                                
100BD0000010071I088057                8981498830     201004191312243125010                                                                                                
100BD0000010081I088058                8981498830     201004191312243125010                                                                                                
100BD0000010091I088059                8981498830     201004191312243125010                                                                                                
100BD0000010101I088060                8981498830     201004191312243125010                                                                                                
100BD0000010111I088061                8981498830     201004191312243125010                                                                                                
100BD0000010121I088062                8981498830     201004191312243125010                                                                                                
100BD0000010131I088063                8981498830     201004191312243125010                                                                                                
100BD0000010141I088064                8981498830     201004191312243125010                                                                                                
100BD0000010151I088065                8981498830     201004191312243125010                                                                                                
TRAIL 00000015                                                                                                                                                            
HEADERRT50 FRAME        201008281604030017000000                                                                                                                          
100BD0000010011I088051                8981498830     201004191312243125010                                                                                                
100BD0000010021I088052                8981498830     201004191312243125010                                                                                                
100BD0000010031I088053                8981498830     201004191312243125010                                                                                                
100BD0000010041I088054                8981498830     201004191312243125010                                                                                                
100BD0000010051I088055                8981498830     201004191312243125010                                                                                                
100BD0000010061I088056                8981498830     201004191312243125010                                                                                                
100BD0000010071I088057                8981498830     201004191312243125010                                                                                                
100BD0000010081I088058                8981498830     201004191312243125010                                                                                                
100BD0000010091I088059                8981498830     201004191312243125010                                                                                                
100BD0000010101I088060                8981498830     201004191312243125010                                                                                                
100BD0000010111I088061                8981498830     201004191312243125010                                                                                                
100BD0000010121I088062                8981498830     201004191312243125010                                                                                                
100BD0000010131I088063                8981498830     201004191312243125010                                                                                                
100BD0000010141I088064                8981498830     201004191312243125010                                                                                                
100BD0000010151I088065                8981498830     201004191312243125010                                                                                                
TRAIL 00000015                                                                                                                                                            
HEADERRT50 FRAME        201008281604100017000000                                                                                                                          
100BD0000010011I088051                8981498830     201004191312243125010                                                                                                
100BD0000010021I088052                8981498830     201004191312243125010                                                                                                
100BD0000010031I088053                8981498830     201004191312243125010                                                                                                
100BD0000010041I088054                8981498830     201004191312243125010                                                                                                
100BD0000010051I088055                8981498830     201004191312243125010                                                                                                
100BD0000010061I088056                8981498830     201004191312243125010                                                                                                
100BD0000010071I088057                8981498830     201004191312243125010                                                                                                
100BD0000010081I088058                8981498830     201004191312243125010                                                                                                
100BD0000010091I088059                8981498830     201004191312243125010                                                                                                
100BD0000010101I088060                8981498830     201004191312243125010                                                                                                
100BD0000010111I088061                8981498830     201004191312243125010                                                                                                
100BD0000010121I088062                8981498830     201004191312243125010                                                                                                
100BD0000010131I088063                8981498830     201004191312243125010                                                                                                
100BD0000010141I088064                8981498830     201004191312243125010                                                                                                
100BD0000010151I088065                8981498830     201004191312243125010                                                                                                
TRAIL 00000015                                                                                                                                                            
HEADERRT50 FRAME        201008281604160017000000                                                                                                                          
100BD0000010011I088051                8981498830     201004191312243125010                                                                                                
100BD0000010021I088052                8981498830     201004191312243125010                                                                                                
100BD0000010031I088053                8981498830     201004191312243125010                                                                                                
100BD0000010041I088054                8981498830     201004191312243125010                                                                                                
100BD0000010051I088055                8981498830     201004191312243125010                                                                                                
100BD0000010061I088056                8981498830     201004191312243125010                                                                                                
100BD0000010071I088057                8981498830     201004191312243125010                                                                                                
100BD0000010081I088058                8981498830     201004191312243125010                                                                                                
100BD0000010091I088059                8981498830     201004191312243125010                                                                                                
100BD0000010101I088060                8981498830     201004191312243125010                                                                                                
100BD0000010111I088061                8981498830     201004191312243125010                                                                                                
100BD0000010121I088062                8981498830     201004191312243125010                                                                                                
100BD0000010131I088063                8981498830     201004191312243125010                                                                                                
100BD0000010141I088064                8981498830     201004191312243125010                                                                                                
100BD0000010151I088065                8981498830     201004191312243125010                                                                                                
TRAIL 00000015                                                                                                                                                            
HEADERRT50 FRAME        201008281604220017000000                                                                                                                          
100BD0000010011I088051                8981498830     201004191312243125010                                                                                                
100BD0000010021I088052                8981498830     201004191312243125010                                                                                                
100BD0000010031I088053                8981498830     201004191312243125010                                                                                                
100BD0000010041I088054                8981498830     201004191312243125010                                                                                                
100BD0000010051I088055                8981498830     201004191312243125010                                                                                                
100BD0000010061I088056                8981498830     201004191312243125010                                                                                                
100BD0000010071I088057                8981498830     201004191312243125010                                                                                                
100BD0000010081I088058                8981498830     201004191312243125010                                                                                                
100BD0000010091I088059                8981498830     201004191312243125010                                                                                                
100BD0000010101I088060                8981498830     201004191312243125010                                                                                                
100BD0000010111I088061                8981498830     201004191312243125010                                                                                                
100BD0000010121I088062                8981498830     201004191312243125010                                                                                                
100BD0000010131I088063                8981498830     201004191312243125010                                                                                                
100BD0000010141I088064                8981498830     201004191312243125010                                                                                                
100BD0000010151I088065                8981498830     201004191312243125010                                                                                                
TRAIL 00000015                                                                                                                                                            
HEADERRT50 FRAME        201008281604290017000000                                                                                                                          
100BD0000010011I088051                8981498830     201004191312243125010                                                                                                
100BD0000010021I088052                8981498830     201004191312243125010                                                                                                
100BD0000010031I088053                8981498830     201004191312243125010                                                                                                
100BD0000010041I088054                8981498830     201004191312243125010                                                                                                
100BD0000010051I088055                8981498830     201004191312243125010                                                                                                
100BD0000010061I088056                8981498830     201004191312243125010                                                                                                
100BD0000010071I088057                8981498830     201004191312243125010                                                                                                
100BD0000010081I088058                8981498830     201004191312243125010                                                                                                
100BD0000010091I088059                8981498830     201004191312243125010                                                                                                
100BD0000010101I088060                8981498830     201004191312243125010                                                                                                
100BD0000010111I088061                8981498830     201004191312243125010                                                                                                
100BD0000010121I088062                8981498830     201004191312243125010                                                                                                
100BD0000010131I088063                8981498830     201004191312243125010                                                                                                
100BD0000010141I088064                8981498830     201004191312243125010                                                                                                
100BD0000010151I088065                8981498830     201004191312243125010                                                                                                
TRAIL 00000015                                                                                                                                                            
HEADERRT50 FRAME        201008281604370017000000                                                                                                                          
100BD0000010011I088051                8981498830     201004191312243125010                                                                                                
100BD0000010021I088052                8981498830     201004191312243125010                                                                                                
100BD0000010031I088053                8981498830     201004191312243125010                                                                                                
100BD0000010041I088054                8981498830     201004191312243125010                                                                                                
100BD0000010051I088055                8981498830     201004191312243125010                                                                                                
100BD0000010061I088056                8981498830     201004191312243125010                                                                                                
100BD0000010071I088057                8981498830     201004191312243125010                                                                                                
100BD0000010081I088058                8981498830     201004191312243125010                                                                                                
100BD0000010091I088059                8981498830     201004191312243125010                                                                                                
100BD0000010101I088060                8981498830     201004191312243125010                                                                                                
100BD0000010111I088061                8981498830     201004191312243125010                                                                                                
100BD0000010121I088062                8981498830     201004191312243125010                                                                                                
100BD0000010131I088063                8981498830     201004191312243125010                                                                                                
100BD0000010141I088064                8981498830     201004191312243125010                                                                                                
100BD0000010151I088065                8981498830     201004191312243125010                                                                                                
TRAIL 00000015                                                                                                                                                            
HEADERRT50 FRAME        201008281604430017000000                                                                                                                          
100BD0000010011I088051                8981498830     201004191312243125010                                                                                                
100BD0000010021I088052                8981498830     201004191312243125010                                                                                                
100BD0000010031I088053                8981498830     201004191312243125010                                                                                                
100BD0000010041I088054                8981498830     201004191312243125010                                                                                                
100BD0000010051I088055                8981498830     201004191312243125010                                                                                                
100BD0000010061I088056                8981498830     201004191312243125010                                                                                                
100BD0000010071I088057                8981498830     201004191312243125010                                                                                                
100BD0000010081I088058                8981498830     201004191312243125010                                                                                                
100BD0000010091I088059                8981498830     201004191312243125010                                                                                                
100BD0000010101I088060                8981498830     201004191312243125010                                                                                                
100BD0000010111I088061                8981498830     201004191312243125010                                                                                                
100BD0000010121I088062                8981498830     201004191312243125010                                                                                                
100BD0000010131I088063                8981498830     201004191312243125010                                                                                                
100BD0000010141I088064                8981498830     201004191312243125010                                                                                                
100BD0000010151I088065                8981498830     201004191312243125010                                                                                                
TRAIL 00000015                                                                                                                                                            
HEADERRT50 FRAME        201008281605070017000000                                                                                                                          
100BD0000010011I088051                8981498830     201004191312243125010                                                                                                
100BD0000010021I088052                8981498830     201004191312243125010                                                                                                
100BD0000010031I088053                8981498830     201004191312243125010                                                                                                
100BD0000010041I088054                8981498830     201004191312243125010                                                                                                
100BD0000010051I088055                8981498830     201004191312243125010                                                                                                
100BD0000010061I088056                8981498830     201004191312243125010                                                                                                
100BD0000010071I088057                8981498830     201004191312243125010                                                                                                
100BD0000010081I088058                8981498830     201004191312243125010                                                                                                
100BD0000010091I088059                8981498830     201004191312243125010                                                                                                
100BD0000010101I088060                8981498830     201004191312243125010                                                                                                
100BD0000010111I088061                8981498830     201004191312243125010                                                                                                
100BD0000010121I088062                8981498830     201004191312243125010                                                                                                
100BD0000010131I088063                8981498830     201004191312243125010                                                                                                
100BD0000010141I088064                8981498830     201004191312243125010                                                                                                
100BD0000010151I088065                8981498830     201004191312243125010                                                                                                
TRAIL 00000015                                                                                                                                                            
