HEADERRT50 BODY         201201051503230120000000                                                                                                                                                                                                                                                                                                                                                                                                                                                                                                                                                                                                                                                                                                                                                                                                                                                                                                                                                                                                                                                                                                                                                                                                
00001120ERHL0748032001              201201100736TFR86JCQH4 LACA                                     89810321308981032100                              8981515760                                        8981608240                                        8981608320                                        89816356908981032732                              8981032732                                        8981515760898160824089816083208981635690          8981843700                                        8981843710                                        8981843710898103301189819013118981033028          8981044242                                        8981044222                                        89816102008981610210898103433089816099518981609961                                                                                                                                                                                                                                                                                                                                                                                                                                                                  
00002120ERHL0748032002              201201100738TFR86JCQH4 LACA                                     89810321308981032100                              8981515760                                        8981608240                                        8981608320                                        89816356908981032732                              8981032732                                        8981515760898160824089816083208981635690          8981843700                                        8981843710                                        8981843710898103301189819013118981033028          8981044242                                        8981044222                                        89816102008981610210898103433089816099518981609961                                                                                                                                                                                                                                                                                                                                                                                                                                                                  
00003120ERHL0748032003              201201100739TFR86JCQH4 LACA                                     89810321308981032100                              8981515760                                        8981608240                                        8981608320                                        89816356908981032732                              8981032732                                        8981515760898160824089816083208981635690          8981843700                                        8981843710                                        8981843710898103301189819013118981033028          8981044242                                        8981044222                                        89816102008981610210898103433089816099518981609961                                                                                                                                                                                                                                                                                                                                                                                                                                                                  
00004120ERHL0748032004              201201100741TFR86JCQH4 LACA                                     89810321308981032100                              8981515760                                        8981608240                                        8981608320                                        89816356908981032732                              8981032732                                        8981515760898160824089816083208981635690          8981843700                                        8981843710                                        8981843710898103301189819013118981033028          8981044242                                        8981044222                                        89816102008981610210898103433089816099518981609961                                                                                                                                                                                                                                                                                                                                                                                                                                                                  
00005120ERHL0748032005              201201100742TFR86JCQH4 LACA                                     89810321308981032100                              8981515760                                        8981608240                                        8981608320                                        89816356908981032732                              8981032732                                        8981515760898160824089816083208981635690          8981843700                                        8981843710                                        8981843710898103301189819013118981033028          8981044242                                        8981044222                                        89816102008981610210898103433089816099518981609961                                                                                                                                                                                                                                                                                                                                                                                                                                                                  
00006120ERHL0748032006              201201100744TFR86JCQH4 LACA                                     89810321308981032100                              8981515760                                        8981608240                                        8981608320                                        89816356908981032732                              8981032732                                        8981515760898160824089816083208981635690          8981843700                                        8981843710                                        8981843710898103301189819013118981033028          8981044242                                        8981044222                                        89816102008981610210898103433089816099518981609961                                                                                                                                                                                                                                                                                                                                                                                                                                                                  
00007120ERHL0748032007              201201100745TFR86JCQH4 LACA                                     89810321308981032100                              8981515760                                        8981608240                                        8981608320                                        89816356908981032732                              8981032732                                        8981515760898160824089816083208981635690          8981843700                                        8981843710                                        8981843710898103301189819013118981033028          8981044242                                        8981044222                                        89816102008981610210898103433089816099518981609961                                                                                                                                                                                                                                                                                                                                                                                                                                                                  
00008120ERHL0748032008              201201100747TFR86JCQH4 LACA                                     89810321308981032100                              8981515760                                        8981608240                                        8981608320                                        89816356908981032732                              8981032732                                        8981515760898160824089816083208981635690          8981843700                                        8981843710                                        8981843710898103301189819013118981033028          8981044242                                        8981044222                                        89816102008981610210898103433089816099518981609961                                                                                                                                                                                                                                                                                                                                                                                                                                                                  
00009120ERHL0748032009              201201100748TFR86JCQH4 LACA                                     89810321308981032100                              8981515760                                        8981608240                                        8981608320                                        89816356908981032732                              8981032732                                        8981515760898160824089816083208981635690          8981843700                                        8981843710                                        8981843710898103301189819013118981033028          8981044242                                        8981044222                                        89816102008981610210898103433089816099518981609961                                                                                                                                                                                                                                                                                                                                                                                                                                                                  
00010120ERHL0748032010              201201100750TFR86JCQH4 LACA                                     89810321308981032100                              8981515760                                        8981608240                                        8981608320                                        89816356908981032732                              8981032732                                        8981515760898160824089816083208981635690          8981843700                                        8981843710                                        8981843710898103301189819013118981033028          8981044242                                        8981044222                                        89816102008981610210898103433089816099518981609961                                                                                                                                                                                                                                                                                                                                                                                                                                                                  
00011120ERHL0748032011              201201100751TFR86JCQH4 LACA                                     89810321308981032100                              8981515760                                        8981608240                                        8981608320                                        89816356908981032732                              8981032732                                        8981515760898160824089816083208981635690          8981843700                                        8981843710                                        8981843710898103301189819013118981033028          8981044242                                        8981044222                                        89816102008981610210898103433089816099518981609961                                                                                                                                                                                                                                                                                                                                                                                                                                                                  
00012120ERHL0748032012              201201100753TFR86JCQH4 LACA                                     89810321308981032100                              8981515760                                        8981608240                                        8981608320                                        89816356908981032732                              8981032732                                        8981515760898160824089816083208981635690          8981843700                                        8981843710                                        8981843710898103301189819013118981033028          8981044242                                        8981044222                                        89816102008981610210898103433089816099518981609961                                                                                                                                                                                                                                                                                                                                                                                                                                                                  
00013120ERHL0748032013              201201100754TFR86JCQH4 LACA                                     89810321308981032100                              8981515760                                        8981608240                                        8981608320                                        89816356908981032732                              8981032732                                        8981515760898160824089816083208981635690          8981843700                                        8981843710                                        8981843710898103301189819013118981033028          8981044242                                        8981044222                                        89816102008981610210898103433089816099518981609961                                                                                                                                                                                                                                                                                                                                                                                                                                                                  
00014120ERHL0748032014              201201100756TFR86JCQH4 LACA                                     89810321308981032100                              8981515760                                        8981608240                                        8981608320                                        89816356908981032732                              8981032732                                        8981515760898160824089816083208981635690          8981843700                                        8981843710                                        8981843710898103301189819013118981033028          8981044242                                        8981044222                                        89816102008981610210898103433089816099518981609961                                                                                                                                                                                                                                                                                                                                                                                                                                                                  
00015120ERHL0748032015              201201100757TFR86JCQH4 LACA                                     89810321308981032100                              8981515760                                        8981608240                                        8981608320                                        89816356908981032732                              8981032732                                        8981515760898160824089816083208981635690          8981843700                                        8981843710                                        8981843710898103301189819013118981033028          8981044242                                        8981044222                                        89816102008981610210898103433089816099518981609961                                                                                                                                                                                                                                                                                                                                                                                                                                                                  
00016120ERHL0748032016              201201100759TFR86JCQH4 LACA                                     89810321308981032100                              8981515760                                        8981608240                                        8981608320                                        89816356908981032732                              8981032732                                        8981515760898160824089816083208981635690          8981843700                                        8981843710                                        8981843710898103301189819013118981033028          8981044242                                        8981044222                                        89816102008981610210898103433089816099518981609961                                                                                                                                                                                                                                                                                                                                                                                                                                                                  
00017120ERHL0748032017              201201100800TFR86JCQH4 LACA                                     89810321308981032100                              8981515760                                        8981608240                                        8981608320                                        89816356908981032732                              8981032732                                        8981515760898160824089816083208981635690          8981843700                                        8981843710                                        8981843710898103301189819013118981033028          8981044242                                        8981044222                                        89816102008981610210898103433089816099518981609961                                                                                                                                                                                                                                                                                                                                                                                                                                                                  
00018120ERHL0748032018              201201100802TFR86JCQH4 LACA                                     89810321308981032100                              8981515760                                        8981608240                                        8981608320                                        89816356908981032732                              8981032732                                        8981515760898160824089816083208981635690          8981843700                                        8981843710                                        8981843710898103301189819013118981033028          8981044242                                        8981044222                                        89816102008981610210898103433089816099518981609961                                                                                                                                                                                                                                                                                                                                                                                                                                                                  
00019120ERHL0748032019              201201100803TFR86JCQH4 LACA                                     89810321308981032100                              8981515760                                        8981608240                                        8981608320                                        89816356908981032732                              8981032732                                        8981515760898160824089816083208981635690          8981843700                                        8981843710                                        8981843710898103301189819013118981033028          8981044242                                        8981044222                                        89816102008981610210898103433089816099518981609961                                                                                                                                                                                                                                                                                                                                                                                                                                                                  
00020120ERHL0748032020              201201100805TFR86JCQH4 LACA                                     89810321308981032100                              8981515760                                        8981608240                                        8981608320                                        89816356908981032732                              8981032732                                        8981515760898160824089816083208981635690          8981843700                                        8981843710                                        8981843710898103301189819013118981033028          8981044242                                        8981044222                                        89816102008981610210898103433089816099518981609961                                                                                                                                                                                                                                                                                                                                                                                                                                                                  
00021120ERHL0748032021              201201100806TFR86JCQH4 LACA                                     89810321308981032100                              8981515760                                        8981608240                                        8981608320                                        89816356908981032732                              8981032732                                        8981515760898160824089816083208981635690          8981843700                                        8981843710                                        8981843710898103301189819013118981033028          8981044242                                        8981044222                                        89816102008981610210898103433089816099518981609961                                                                                                                                                                                                                                                                                                                                                                                                                                                                  
00022120ERHL0748032022              201201100808TFR86JCQH4 LACA                                     89810321308981032100                              8981515760                                        8981608240                                        8981608320                                        89816356908981032732                              8981032732                                        8981515760898160824089816083208981635690          8981843700                                        8981843710                                        8981843710898103301189819013118981033028          8981044242                                        8981044222                                        89816102008981610210898103433089816099518981609961                                                                                                                                                                                                                                                                                                                                                                                                                                                                  
00023120ERHL0748032023              201201100809TFR86JCQH4 LACA                                     89810321308981032100                              8981515760                                        8981608240                                        8981608320                                        89816356908981032732                              8981032732                                        8981515760898160824089816083208981635690          8981843700                                        8981843710                                        8981843710898103301189819013118981033028          8981044242                                        8981044222                                        89816102008981610210898103433089816099518981609961                                                                                                                                                                                                                                                                                                                                                                                                                                                                  
00024120ERHL0748032024              201201100811TFR86JCQH4 LACA                                     89810321308981032100                              8981515760                                        8981608240                                        8981608320                                        89816356908981032732                              8981032732                                        8981515760898160824089816083208981635690          8981843700                                        8981843710                                        8981843710898103301189819013118981033028          8981044242                                        8981044222                                        89816102008981610210898103433089816099518981609961                                                                                                                                                                                                                                                                                                                                                                                                                                                                  
00025120ERHL0748032025              201201100812TFR86JCQH4 LACA                                     89810321308981032100                              8981515760                                        8981608240                                        8981608320                                        89816356908981032732                              8981032732                                        8981515760898160824089816083208981635690          8981843700                                        8981843710                                        8981843710898103301189819013118981033028          8981044242                                        8981044222                                        89816102008981610210898103433089816099518981609961                                                                                                                                                                                                                                                                                                                                                                                                                                                                  
00026120ERHL0748032026              201201100814TFR86JCQH4 LACA                                     89810321308981032100                              8981515760                                        8981608240                                        8981608320                                        89816356908981032732                              8981032732                                        8981515760898160824089816083208981635690          8981843700                                        8981843710                                        8981843710898103301189819013118981033028          8981044242                                        8981044222                                        89816102008981610210898103433089816099518981609961                                                                                                                                                                                                                                                                                                                                                                                                                                                                  
00027120ERHL0748032027              201201100815TFR86JCQH4 LACA                                     89810321308981032100                              8981515760                                        8981608240                                        8981608320                                        89816356908981032732                              8981032732                                        8981515760898160824089816083208981635690          8981843700                                        8981843710                                        8981843710898103301189819013118981033028          8981044242                                        8981044222                                        89816102008981610210898103433089816099518981609961                                                                                                                                                                                                                                                                                                                                                                                                                                                                  
00028120ERHL0748032028              201201100817TFR86JCQH4 LACA                                     89810321308981032100                              8981515760                                        8981608240                                        8981608320                                        89816356908981032732                              8981032732                                        8981515760898160824089816083208981635690          8981843700                                        8981843710                                        8981843710898103301189819013118981033028          8981044242                                        8981044222                                        89816102008981610210898103433089816099518981609961                                                                                                                                                                                                                                                                                                                                                                                                                                                                  
00029120ERHL0748032029              201201100818TFR86JCQH4 LACA                                     89810321308981032100                              8981515760                                        8981608240                                        8981608320                                        89816356908981032732                              8981032732                                        8981515760898160824089816083208981635690          8981843700                                        8981843710                                        8981843710898103301189819013118981033028          8981044242                                        8981044222                                        89816102008981610210898103433089816099518981609961                                                                                                                                                                                                                                                                                                                                                                                                                                                                  
00030120ERHL0748032030              201201100820TFR86JCQH4 LACA                                     89810321308981032100                              8981515760                                        8981608240                                        8981608320                                        89816356908981032732                              8981032732                                        8981515760898160824089816083208981635690          8981843700                                        8981843710                                        8981843710898103301189819013118981033028          8981044242                                        8981044222                                        89816102008981610210898103433089816099518981609961                                                                                                                                                                                                                                                                                                                                                                                                                                                                  
00031120EPCL0749041001              201201100822TFR86JEMN4 LACA                                     89810321308981032100                              8981032601                                        8981032462                                        8981032402                                        89816356708981032721                              8981032721                                        8981032601898103246289810324028981635670          8981446270                                        8981446280                                        8981446280898103300189810327768981033048          8981446231                                        8981446241                                        89816102008981610210898103433089810826068981082616                                                                                                                                                                                                                                                                                                                                                                                                                                                                  
00032120EPCL0749041002              201201100823TFR86JEMN4 LACA                                     89810321308981032100                              8981032601                                        8981032462                                        8981032402                                        89816356708981032721                              8981032721                                        8981032601898103246289810324028981635670          8981446270                                        8981446280                                        8981446280898103300189810327768981033048          8981446231                                        8981446241                                        89816102008981610210898103433089810826068981082616                                                                                                                                                                                                                                                                                                                                                                                                                                                                  
00033120EPCL0749041003              201201100825TFR86JEMN4 LACA                                     89810321308981032100                              8981032601                                        8981032462                                        8981032402                                        89816356708981032721                              8981032721                                        8981032601898103246289810324028981635670          8981446270                                        8981446280                                        8981446280898103300189810327768981033048          8981446231                                        8981446241                                        89816102008981610210898103433089810826068981082616                                                                                                                                                                                                                                                                                                                                                                                                                                                                  
00034120EPCL0749041004              201201100826TFR86JEMN4 LACA                                     89810321308981032100                              8981032601                                        8981032462                                        8981032402                                        89816356708981032721                              8981032721                                        8981032601898103246289810324028981635670          8981446270                                        8981446280                                        8981446280898103300189810327768981033048          8981446231                                        8981446241                                        89816102008981610210898103433089810826068981082616                                                                                                                                                                                                                                                                                                                                                                                                                                                                  
00035120EPCL0749041005              201201100828TFR86JEMN4 LACA                                     89810321308981032100                              8981032601                                        8981032462                                        8981032402                                        89816356708981032721                              8981032721                                        8981032601898103246289810324028981635670          8981446270                                        8981446280                                        8981446280898103300189810327768981033048          8981446231                                        8981446241                                        89816102008981610210898103433089810826068981082616                                                                                                                                                                                                                                                                                                                                                                                                                                                                  
00036120EPCL0749041006              201201100829TFR86JEMN4 LACA                                     89810321308981032100                              8981032601                                        8981032462                                        8981032402                                        89816356708981032721                              8981032721                                        8981032601898103246289810324028981635670          8981446270                                        8981446280                                        8981446280898103300189810327768981033048          8981446231                                        8981446241                                        89816102008981610210898103433089810826068981082616                                                                                                                                                                                                                                                                                                                                                                                                                                                                  
00037120EPCL0749041007              201201100831TFR86JEMN4 LACA                                     89810321308981032100                              8981032601                                        8981032462                                        8981032402                                        89816356708981032721                              8981032721                                        8981032601898103246289810324028981635670          8981446270                                        8981446280                                        8981446280898103300189810327768981033048          8981446231                                        8981446241                                        89816102008981610210898103433089810826068981082616                                                                                                                                                                                                                                                                                                                                                                                                                                                                  
00038120EPCL0749041008              201201100832TFR86JEMN4 LACA                                     89810321308981032100                              8981032601                                        8981032462                                        8981032402                                        89816356708981032721                              8981032721                                        8981032601898103246289810324028981635670          8981446270                                        8981446280                                        8981446280898103300189810327768981033048          8981446231                                        8981446241                                        89816102008981610210898103433089810826068981082616                                                                                                                                                                                                                                                                                                                                                                                                                                                                  
00039120EPCL0749041009              201201100834TFR86JEMN4 LACA                                     89810321308981032100                              8981032601                                        8981032462                                        8981032402                                        89816356708981032721                              8981032721                                        8981032601898103246289810324028981635670          8981446270                                        8981446280                                        8981446280898103300189810327768981033048          8981446231                                        8981446241                                        89816102008981610210898103433089810826068981082616                                                                                                                                                                                                                                                                                                                                                                                                                                                                  
00040120EPCL0749041010              201201100835TFR86JEMN4 LACA                                     89810321308981032100                              8981032601                                        8981032462                                        8981032402                                        89816356708981032721                              8981032721                                        8981032601898103246289810324028981635670          8981446270                                        8981446280                                        8981446280898103300189810327768981033048          8981446231                                        8981446241                                        89816102008981610210898103433089810826068981082616                                                                                                                                                                                                                                                                                                                                                                                                                                                                  
00041120EPCL0749041011              201201100837TFR86JEMN4 LACA                                     89810321308981032100                              8981032601                                        8981032462                                        8981032402                                        89816356708981032721                              8981032721                                        8981032601898103246289810324028981635670          8981446270                                        8981446280                                        8981446280898103300189810327768981033048          8981446231                                        8981446241                                        89816102008981610210898103433089810826068981082616                                                                                                                                                                                                                                                                                                                                                                                                                                                                  
00042120EPCL0749041012              201201100838TFR86JEMN4 LACA                                     89810321308981032100                              8981032601                                        8981032462                                        8981032402                                        89816356708981032721                              8981032721                                        8981032601898103246289810324028981635670          8981446270                                        8981446280                                        8981446280898103300189810327768981033048          8981446231                                        8981446241                                        89816102008981610210898103433089810826068981082616                                                                                                                                                                                                                                                                                                                                                                                                                                                                  
00043120EPCL0749041013              201201100840TFR86JEMN4 LACA                                     89810321308981032100                              8981032601                                        8981032462                                        8981032402                                        89816356708981032721                              8981032721                                        8981032601898103246289810324028981635670          8981446270                                        8981446280                                        8981446280898103300189810327768981033048          8981446231                                        8981446241                                        89816102008981610210898103433089810826068981082616                                                                                                                                                                                                                                                                                                                                                                                                                                                                  
00044120EPCL0749041014              201201100841TFR86JEMN4 LACA                                     89810321308981032100                              8981032601                                        8981032462                                        8981032402                                        89816356708981032721                              8981032721                                        8981032601898103246289810324028981635670          8981446270                                        8981446280                                        8981446280898103300189810327768981033048          8981446231                                        8981446241                                        89816102008981610210898103433089810826068981082616                                                                                                                                                                                                                                                                                                                                                                                                                                                                  
00045120EPCL0749041015              201201100843TFR86JEMN4 LACA                                     89810321308981032100                              8981032601                                        8981032462                                        8981032402                                        89816356708981032721                              8981032721                                        8981032601898103246289810324028981635670          8981446270                                        8981446280                                        8981446280898103300189810327768981033048          8981446231                                        8981446241                                        89816102008981610210898103433089810826068981082616                                                                                                                                                                                                                                                                                                                                                                                                                                                                  
00046120EPCL0749041016              201201100844TFR86JEMN4 LACA                                     89810321308981032100                              8981032601                                        8981032462                                        8981032402                                        89816356708981032721                              8981032721                                        8981032601898103246289810324028981635670          8981446270                                        8981446280                                        8981446280898103300189810327768981033048          8981446231                                        8981446241                                        89816102008981610210898103433089810826068981082616                                                                                                                                                                                                                                                                                                                                                                                                                                                                  
00047120EPCL0749041017              201201100846TFR86JEMN4 LACA                                     89810321308981032100                              8981032601                                        8981032462                                        8981032402                                        89816356708981032721                              8981032721                                        8981032601898103246289810324028981635670          8981446270                                        8981446280                                        8981446280898103300189810327768981033048          8981446231                                        8981446241                                        89816102008981610210898103433089810826068981082616                                                                                                                                                                                                                                                                                                                                                                                                                                                                  
00048120EPCL0749041018              201201100847TFR86JEMN4 LACA                                     89810321308981032100                              8981032601                                        8981032462                                        8981032402                                        89816356708981032721                              8981032721                                        8981032601898103246289810324028981635670          8981446270                                        8981446280                                        8981446280898103300189810327768981033048          8981446231                                        8981446241                                        89816102008981610210898103433089810826068981082616                                                                                                                                                                                                                                                                                                                                                                                                                                                                  
00049120EPCL0749041019              201201100849TFR86JEMN4 LACA                                     89810321308981032100                              8981032601                                        8981032462                                        8981032402                                        89816356708981032721                              8981032721                                        8981032601898103246289810324028981635670          8981446270                                        8981446280                                        8981446280898103300189810327768981033048          8981446231                                        8981446241                                        89816102008981610210898103433089810826068981082616                                                                                                                                                                                                                                                                                                                                                                                                                                                                  
00050120EPCL0749041020              201201100850TFR86JEMN4 LACA                                     89810321308981032100                              8981032601                                        8981032462                                        8981032402                                        89816356708981032721                              8981032721                                        8981032601898103246289810324028981635670          8981446270                                        8981446280                                        8981446280898103300189810327768981033048          8981446231                                        8981446241                                        89816102008981610210898103433089810826068981082616                                                                                                                                                                                                                                                                                                                                                                                                                                                                  
00051120EPCL0749041021              201201100852TFR86JEMN4 LACA                                     89810321308981032100                              8981032601                                        8981032462                                        8981032402                                        89816356708981032721                              8981032721                                        8981032601898103246289810324028981635670          8981446270                                        8981446280                                        8981446280898103300189810327768981033048          8981446231                                        8981446241                                        89816102008981610210898103433089810826068981082616                                                                                                                                                                                                                                                                                                                                                                                                                                                                  
00052120EPCL0749041022              201201100853TFR86JEMN4 LACA                                     89810321308981032100                              8981032601                                        8981032462                                        8981032402                                        89816356708981032721                              8981032721                                        8981032601898103246289810324028981635670          8981446270                                        8981446280                                        8981446280898103300189810327768981033048          8981446231                                        8981446241                                        89816102008981610210898103433089810826068981082616                                                                                                                                                                                                                                                                                                                                                                                                                                                                  
00053120EPCL0749041023              201201100855TFR86JEMN4 LACA                                     89810321308981032100                              8981032601                                        8981032462                                        8981032402                                        89816356708981032721                              8981032721                                        8981032601898103246289810324028981635670          8981446270                                        8981446280                                        8981446280898103300189810327768981033048          8981446231                                        8981446241                                        89816102008981610210898103433089810826068981082616                                                                                                                                                                                                                                                                                                                                                                                                                                                                  
00054120EPCL0749041024              201201100856TFR86JEMN4 LACA                                     89810321308981032100                              8981032601                                        8981032462                                        8981032402                                        89816356708981032721                              8981032721                                        8981032601898103246289810324028981635670          8981446270                                        8981446280                                        8981446280898103300189810327768981033048          8981446231                                        8981446241                                        89816102008981610210898103433089810826068981082616                                                                                                                                                                                                                                                                                                                                                                                                                                                                  
00055120EPCL0749041025              201201100858TFR86JEMN4 LACA                                     89810321308981032100                              8981032601                                        8981032462                                        8981032402                                        89816356708981032721                              8981032721                                        8981032601898103246289810324028981635670          8981446270                                        8981446280                                        8981446280898103300189810327768981033048          8981446231                                        8981446241                                        89816102008981610210898103433089810826068981082616                                                                                                                                                                                                                                                                                                                                                                                                                                                                  
00056120EPCL0749041026              201201100859TFR86JEMN4 LACA                                     89810321308981032100                              8981032601                                        8981032462                                        8981032402                                        89816356708981032721                              8981032721                                        8981032601898103246289810324028981635670          8981446270                                        8981446280                                        8981446280898103300189810327768981033048          8981446231                                        8981446241                                        89816102008981610210898103433089810826068981082616                                                                                                                                                                                                                                                                                                                                                                                                                                                                  
00057120EPCL0749041027              201201100901TFR86JEMN4 LACA                                     89810321308981032100                              8981032601                                        8981032462                                        8981032402                                        89816356708981032721                              8981032721                                        8981032601898103246289810324028981635670          8981446270                                        8981446280                                        8981446280898103300189810327768981033048          8981446231                                        8981446241                                        89816102008981610210898103433089810826068981082616                                                                                                                                                                                                                                                                                                                                                                                                                                                                  
00058120EPCL0749041028              201201100902TFR86JEMN4 LACA                                     89810321308981032100                              8981032601                                        8981032462                                        8981032402                                        89816356708981032721                              8981032721                                        8981032601898103246289810324028981635670          8981446270                                        8981446280                                        8981446280898103300189810327768981033048          8981446231                                        8981446241                                        89816102008981610210898103433089810826068981082616                                                                                                                                                                                                                                                                                                                                                                                                                                                                  
00059120EPCL0749041029              201201100904TFR86JEMN4 LACA                                     89810321308981032100                              8981032601                                        8981032462                                        8981032402                                        89816356708981032721                              8981032721                                        8981032601898103246289810324028981635670          8981446270                                        8981446280                                        8981446280898103300189810327768981033048          8981446231                                        8981446241                                        89816102008981610210898103433089810826068981082616                                                                                                                                                                                                                                                                                                                                                                                                                                                                  
00060120EPCL0749041030              201201100906TFR86JEMN4 LACA                                     89810321308981032100                              8981032601                                        8981032462                                        8981032402                                        89816356708981032721                              8981032721                                        8981032601898103246289810324028981635670          8981446270                                        8981446280                                        8981446280898103300189810327768981033048          8981446231                                        8981446241                                        89816102008981610210898103433089810826068981082616                                                                                                                                                                                                                                                                                                                                                                                                                                                                  
00061120EPGL0750069001              201201100907TFR86JEMH4 LACA                                     89810321308981032100                              8981032601                                        8981032462                                        8981032402                                        89816356708981032721                              8981032721                                        8981032601898103246289810324028981635670          8981446250                                        8981446260                                        8981446260898103300189810327768981033048          8981446211                                        8981446221                                        89816102008981610210898103433089810826068981082616                                                                                                                                                                                                                                                                                                                                                                                                                                                                  
00062120EPGL0750069002              201201100909TFR86JEMH4 LACA                                     89810321308981032100                              8981032601                                        8981032462                                        8981032402                                        89816356708981032721                              8981032721                                        8981032601898103246289810324028981635670          8981446250                                        8981446260                                        8981446260898103300189810327768981033048          8981446211                                        8981446221                                        89816102008981610210898103433089810826068981082616                                                                                                                                                                                                                                                                                                                                                                                                                                                                  
00063120EPGL0750069003              201201100910TFR86JEMH4 LACA                                     89810321308981032100                              8981032601                                        8981032462                                        8981032402                                        89816356708981032721                              8981032721                                        8981032601898103246289810324028981635670          8981446250                                        8981446260                                        8981446260898103300189810327768981033048          8981446211                                        8981446221                                        89816102008981610210898103433089810826068981082616                                                                                                                                                                                                                                                                                                                                                                                                                                                                  
00064120EPGL0750069004              201201100912TFR86JEMH4 LACA                                     89810321308981032100                              8981032601                                        8981032462                                        8981032402                                        89816356708981032721                              8981032721                                        8981032601898103246289810324028981635670          8981446250                                        8981446260                                        8981446260898103300189810327768981033048          8981446211                                        8981446221                                        89816102008981610210898103433089810826068981082616                                                                                                                                                                                                                                                                                                                                                                                                                                                                  
00065120EPGL0750069005              201201100913TFR86JEMH4 LACA                                     89810321308981032100                              8981032601                                        8981032462                                        8981032402                                        89816356708981032721                              8981032721                                        8981032601898103246289810324028981635670          8981446250                                        8981446260                                        8981446260898103300189810327768981033048          8981446211                                        8981446221                                        89816102008981610210898103433089810826068981082616                                                                                                                                                                                                                                                                                                                                                                                                                                                                  
00066120EPGL0750069006              201201100915TFR86JEMH4 LACA                                     89810321308981032100                              8981032601                                        8981032462                                        8981032402                                        89816356708981032721                              8981032721                                        8981032601898103246289810324028981635670          8981446250                                        8981446260                                        8981446260898103300189810327768981033048          8981446211                                        8981446221                                        89816102008981610210898103433089810826068981082616                                                                                                                                                                                                                                                                                                                                                                                                                                                                  
00067120EPGL0750069007              201201100916TFR86JEMH4 LACA                                     89810321308981032100                              8981032601                                        8981032462                                        8981032402                                        89816356708981032721                              8981032721                                        8981032601898103246289810324028981635670          8981446250                                        8981446260                                        8981446260898103300189810327768981033048          8981446211                                        8981446221                                        89816102008981610210898103433089810826068981082616                                                                                                                                                                                                                                                                                                                                                                                                                                                                  
00068120EPGL0750069008              201201100918TFR86JEMH4 LACA                                     89810321308981032100                              8981032601                                        8981032462                                        8981032402                                        89816356708981032721                              8981032721                                        8981032601898103246289810324028981635670          8981446250                                        8981446260                                        8981446260898103300189810327768981033048          8981446211                                        8981446221                                        89816102008981610210898103433089810826068981082616                                                                                                                                                                                                                                                                                                                                                                                                                                                                  
00069120EPGL0750069009              201201100919TFR86JEMH4 LACA                                     89810321308981032100                              8981032601                                        8981032462                                        8981032402                                        89816356708981032721                              8981032721                                        8981032601898103246289810324028981635670          8981446250                                        8981446260                                        8981446260898103300189810327768981033048          8981446211                                        8981446221                                        89816102008981610210898103433089810826068981082616                                                                                                                                                                                                                                                                                                                                                                                                                                                                  
00070120EPGL0750069010              201201100921TFR86JEMH4 LACA                                     89810321308981032100                              8981032601                                        8981032462                                        8981032402                                        89816356708981032721                              8981032721                                        8981032601898103246289810324028981635670          8981446250                                        8981446260                                        8981446260898103300189810327768981033048          8981446211                                        8981446221                                        89816102008981610210898103433089810826068981082616                                                                                                                                                                                                                                                                                                                                                                                                                                                                  
00071120EPGL0750069011              201201100922TFR86JEMH4 LACA                                     89810321308981032100                              8981032601                                        8981032462                                        8981032402                                        89816356708981032721                              8981032721                                        8981032601898103246289810324028981635670          8981446250                                        8981446260                                        8981446260898103300189810327768981033048          8981446211                                        8981446221                                        89816102008981610210898103433089810826068981082616                                                                                                                                                                                                                                                                                                                                                                                                                                                                  
00072120EPGL0750069012              201201100924TFR86JEMH4 LACA                                     89810321308981032100                              8981032601                                        8981032462                                        8981032402                                        89816356708981032721                              8981032721                                        8981032601898103246289810324028981635670          8981446250                                        8981446260                                        8981446260898103300189810327768981033048          8981446211                                        8981446221                                        89816102008981610210898103433089810826068981082616                                                                                                                                                                                                                                                                                                                                                                                                                                                                  
00073120EPGL0750069013              201201100925TFR86JEMH4 LACA                                     89810321308981032100                              8981032601                                        8981032462                                        8981032402                                        89816356708981032721                              8981032721                                        8981032601898103246289810324028981635670          8981446250                                        8981446260                                        8981446260898103300189810327768981033048          8981446211                                        8981446221                                        89816102008981610210898103433089810826068981082616                                                                                                                                                                                                                                                                                                                                                                                                                                                                  
00074120EPGL0750069014              201201100927TFR86JEMH4 LACA                                     89810321308981032100                              8981032601                                        8981032462                                        8981032402                                        89816356708981032721                              8981032721                                        8981032601898103246289810324028981635670          8981446250                                        8981446260                                        8981446260898103300189810327768981033048          8981446211                                        8981446221                                        89816102008981610210898103433089810826068981082616                                                                                                                                                                                                                                                                                                                                                                                                                                                                  
00075120EPGL0750069015              201201100928TFR86JEMH4 LACA                                     89810321308981032100                              8981032601                                        8981032462                                        8981032402                                        89816356708981032721                              8981032721                                        8981032601898103246289810324028981635670          8981446250                                        8981446260                                        8981446260898103300189810327768981033048          8981446211                                        8981446221                                        89816102008981610210898103433089810826068981082616                                                                                                                                                                                                                                                                                                                                                                                                                                                                  
00076120EPGL0750069016              201201100930TFR86JEMH4 LACA                                     89810321308981032100                              8981032601                                        8981032462                                        8981032402                                        89816356708981032721                              8981032721                                        8981032601898103246289810324028981635670          8981446250                                        8981446260                                        8981446260898103300189810327768981033048          8981446211                                        8981446221                                        89816102008981610210898103433089810826068981082616                                                                                                                                                                                                                                                                                                                                                                                                                                                                  
00077120EPGL0750069017              201201100931TFR86JEMH4 LACA                                     89810321308981032100                              8981032601                                        8981032462                                        8981032402                                        89816356708981032721                              8981032721                                        8981032601898103246289810324028981635670          8981446250                                        8981446260                                        8981446260898103300189810327768981033048          8981446211                                        8981446221                                        89816102008981610210898103433089810826068981082616                                                                                                                                                                                                                                                                                                                                                                                                                                                                  
00078120EPGL0750069018              201201100933TFR86JEMH4 LACA                                     89810321308981032100                              8981032601                                        8981032462                                        8981032402                                        89816356708981032721                              8981032721                                        8981032601898103246289810324028981635670          8981446250                                        8981446260                                        8981446260898103300189810327768981033048          8981446211                                        8981446221                                        89816102008981610210898103433089810826068981082616                                                                                                                                                                                                                                                                                                                                                                                                                                                                  
00079120EPGL0750069019              201201100934TFR86JEMH4 LACA                                     89810321308981032100                              8981032601                                        8981032462                                        8981032402                                        89816356708981032721                              8981032721                                        8981032601898103246289810324028981635670          8981446250                                        8981446260                                        8981446260898103300189810327768981033048          8981446211                                        8981446221                                        89816102008981610210898103433089810826068981082616                                                                                                                                                                                                                                                                                                                                                                                                                                                                  
00080120EPGL0750069020              201201100936TFR86JEMH4 LACA                                     89810321308981032100                              8981032601                                        8981032462                                        8981032402                                        89816356708981032721                              8981032721                                        8981032601898103246289810324028981635670          8981446250                                        8981446260                                        8981446260898103300189810327768981033048          8981446211                                        8981446221                                        89816102008981610210898103433089810826068981082616                                                                                                                                                                                                                                                                                                                                                                                                                                                                  
00081120EPGL0750069021              201201100937TFR86JEMH4 LACA                                     89810321308981032100                              8981032601                                        8981032462                                        8981032402                                        89816356708981032721                              8981032721                                        8981032601898103246289810324028981635670          8981446250                                        8981446260                                        8981446260898103300189810327768981033048          8981446211                                        8981446221                                        89816102008981610210898103433089810826068981082616                                                                                                                                                                                                                                                                                                                                                                                                                                                                  
00082120EPGL0750069022              201201100939TFR86JEMH4 LACA                                     89810321308981032100                              8981032601                                        8981032462                                        8981032402                                        89816356708981032721                              8981032721                                        8981032601898103246289810324028981635670          8981446250                                        8981446260                                        8981446260898103300189810327768981033048          8981446211                                        8981446221                                        89816102008981610210898103433089810826068981082616                                                                                                                                                                                                                                                                                                                                                                                                                                                                  
