HEADERRT50 BODY         201010071127290120000000                                                                                                                                                                                                                                                                                                                                                                                                                                                                                                                                                                                                                                                                                                                                                                                                                                                                                                                                                                                                                                                                                                                                                                                                
00001121A1000001001001E0100001001   201111030730TFR86JCQ-R UA                                       898103213089810321008981032110                    8981515760                                        8981608240                                        8981608320                                        89816356908981032731                              8981032731                                        8981515760898160824089816083208981635690          8981032841                                        8981032921                                        898103284189810329218981033011                    8981044152                                        8981044122                                        8981033011                                        8981032130                                        8981032100                                        8981032110                                                                                                                                                                                                                                                                                                                                                    
00001120A1000002001002E0100001002   201111030730TFR86JVMN11LA                                       898103213089810321008981032110                    8981032531                                        8981608170                                        8981608300                                        89810321608981032711                              8981032711                                        8981032531898160817089816083008981032160                                                                                                                                                                                                                                                                                                                      8981032130                                        8981032100                                        8981032110                                                                                                                                                                                                                                                                                                                                                    
00003121A1000003003001E0100001003   201111030732TFR86JEQ-R LA                                       898103213089810321008981032110                    8981032601                                        8981032462                                        8981032402                                        89816356708981032721                              8981032721                                        8981032601898103246289810324028981635670          8981446270                                        8981446280                                        898144627089814462808981033001                    8981446231                                        8981446241                                        8981033001                                        8981032130                                        8981032100                                        8981032110                                                                                                                                                                                                                                                                                                                                                    
00004120A1000004001003E0100001004   201111030733TFR86JEQ-R LA                                       898103213089810321008981032110                    8981032601                                        8981032462                                        8981032402                                        89816356708981032721                              8981032721                                        8981032601898103246289810324028981635670          8981446250                                        8981446260                                        898144625089814462608981033001                    8981446211                                        8981446221                                        8981033001                                        8981032130                                        8981032100                                        8981032110                                                                                                                                                                                                                                                                                                                                                    
00005121A1000005003002E0100001005   201111030734TFR86JER-R LA                                       898103213089810321008981032110                    8981032601                                        8981032462                                        8981032402                                        89816356708981032721                              8981032721                                        8981032601898103246289810324028981635670          8981446250                                        8981446260                                        898144625089814462608981033001                    8981446211                                        8981446221                                        8981033001                                        8981032130                                        8981032100                                        8981032110                                                                                                                                                                                                                                                                                                                                                    
00006120A1000006001004E0100001006   201111030735TFR86JVMN11LA                                       898103213089810321008981032110                    8981032531                                        8981608170                                        8981608300                                        89810321608981032711                              8981032711                                        8981032531898160817089816083008981032160                                                                                                                                                                                                                                                                                                                      8981032130                                        8981032100                                        8981032110                                                                                                                                                                                                                                                                                                                                                    
00007121A1000007003003E0100001007   201111030736TFS85JCQ-R UA                                       898103213089810321008981032110                    8981515760                                        8981608240                                        8981608320                                        89816356908981032731                              8981032731                                        8981515760898160824089816083208981635690          8981032861                                        8981032961                                        898103286189810329618981033011                    8981044242                                        8981044222                                        8981033011                                        8981032130                                        8981032100                                        8981032110                                                                                                                                                                                                                                                                                                                                                    
00008121A1000008003004E0100001008   201111030737TFR86JCQ-R1UA                                       898103213089810321008981032110                    8981515760                                        8981608240                                        8981608320                                        89816356908981032731                              8981032731                                        8981515760898160824089816083208981635690          8981032841                                        8981032921                                        898103284189810329218981033011                    8981044152                                        8981044122                                        8981033011                                        8981032130                                        8981032100                                        8981032110                                                                                                                                                                                                                                                                                                                                                    
00009122A1000009005001E0100001009   201111030738TFR86JVMN11LA                                       898103213089810321008981032110                    8981032531                                        8981608170                                        8981608300                                        89810321608981032711                              8981032711                                        8981032531898160817089816083008981032160                                                                                                                                                                                                                                                                                                                      8981032130                                        8981032100                                        8981032110                                                                                                                                                                                                                                                                                                                                                    
00010122A1000010005012E0100001010   201111030739TFR86JVMN11LA                                       898103213089810321008981032110                    8981032531                                        8981608170                                        8981608300                                        89810321608981032711                              8981032711                                        8981032531898160817089816083008981032160                                                                                                                                                                                                                                                                                                                      8981032130                                        8981032100                                        8981032110                                                                                                                                                                                                                                                                                                                                                    
00011120A1000011001005E0100001011   201111030740TFR86JEQ-R LA                                       898103213089810321008981032110                    8981032601                                        8981032462                                        8981032402                                        89816356708981032721                              8981032721                                        8981032601898103246289810324028981635670          8981446250                                        8981446260                                        898144625089814462608981033001                    8981446211                                        8981446221                                        8981033001                                        8981032130                                        8981032100                                        8981032110                                                                                                                                                                                                                                                                                                                                                    
00012120A1000012001006E0100001012   201111030741TFR86JVMN11LA                                       898103213089810321008981032110                    8981032531                                        8981608170                                        8981608300                                        89810321608981032711                              8981032711                                        8981032531898160817089816083008981032160                                                                                                                                                                                                                                                                                                                      8981032130                                        8981032100                                        8981032110                                                                                                                                                                                                                                                                                                                                                    
00013120A1000013001007E0100001013   201111030742TFR85JEQ-R LA                                       898103213089810321008981032110                    8981032601                                        8981032462                                        8981032402                                        89816356708981032721                              8981032721                                        8981032601898103246289810324028981635670          8981446250                                        8981446260                                        898144625089814462608981033001                    8981446211                                        8981446221                                        8981033001                                        8981032130                                        8981032100                                        8981032110                                                                                                                                                                                                                                                                                                                                                    
00014120A1000014001008E0100001014   201111030743TFR86JVMN11LA                                       898103213089810321008981032110                    8981032531                                        8981608170                                        8981608300                                        89810321608981032711                              8981032711                                        8981032531898160817089816083008981032160                                                                                                                                                                                                                                                                                                                      8981032130                                        8981032100                                        8981032110                                                                                                                                                                                                                                                                                                                                                    
00015120A1000015001009E0100001015   201111030744TFR86JVMN11LA                                       898103213089810321008981032110                    8981032531                                        8981608170                                        8981608300                                        89810321608981032711                              8981032711                                        8981032531898160817089816083008981032160                                                                                                                                                                                                                                                                                                                      8981032130                                        8981032100                                        8981032110                                                                                                                                                                                                                                                                                                                                                    
00016120B1000016001001              201111030745TFR86JEMN2 LA                                       898103213089810321008981032110                    8981032601                                        8981032462                                        8981032432                                        89816356608981032721                              8981032721                                        8981032601898103246289810324328981635660          8981446270                                        8981446280                                        898144627089814462808981033001                    8981446231                                        8981446241                                        8981033001                                        8981032130                                        8981032100                                        8981032110                                                                                                                                                                                                                                                                                                                                                    
00017120B1000017001002              201111030746TFR86JEQN4 LA                                       898103213089810321008981032110                    8981032601                                        8981032462                                        8981032402                                        89816356708981032721                              8981032721                                        8981032601898103246289810324028981635670          8981446270                                        8981446280                                        898144627089814462808981033001                    8981446231                                        8981446241                                        8981033001                                        8981032130                                        8981032100                                        8981032110                                                                                                                                                                                                                                                                                                                                                    
00018120B1000018001003              201111030747TFR86JEQH5 LA                                       898103213089810321008981032110                    8981032601                                        8981032462                                        8981032402                                        89816356708981032721                              8981032721                                        8981032601898103246289810324028981635670          8981446250                                        8981446260                                        898144625089814462608981033001                    8981446211                                        8981446221                                        8981033001                                        8981032130                                        8981032100                                        8981032110                                                                                                                                                                                                                                                                                                                                                    
00019120B1000019001004              201111030748TFR86JERH6 LA                                       898103213089810321008981032110                    8981032601                                        8981032462                                        8981032402                                        89816356708981032721                              8981032721                                        8981032601898103246289810324028981635670          8981446250                                        8981446260                                        898144625089814462608981033001                    8981446211                                        8981446221                                        8981033001                                        8981032130                                        8981032100                                        8981032110                                                                                                                                                                                                                                                                                                                                                    
00020120B1000020001005              201111030749TFR85JEQH6 LA                                       898103213089810321008981032110                    8981032601                                        8981032462                                        8981032402                                        89816356708981032721                              8981032721                                        8981032601898103246289810324028981635670          8981446250                                        8981446260                                        898144625089814462608981033001                    8981446211                                        8981446221                                        8981033001                                        8981032130                                        8981032100                                        8981032110                                                                                                                                                                                                                                                                                                                                                    
00021120B1000021001006              201111030750TFS85JCQH6 UA                                       898103213089810321008981032110                    8981515760                                        8981608240                                        8981608320                                        89816356908981032731                              8981032731                                        8981515760898160824089816083208981635690          8981032861                                        8981032961                                        898103286189810329618981033011                    8981044242                                        8981044222                                        8981033011                                        8981032130                                        8981032100                                        8981032110                                                                                                                                                                                                                                                                                                                                                    
00022120B1000022001007              201111030751TFR86JCQN6 UA                                       898103213089810321008981032110                    8981515760                                        8981608240                                        8981608320                                        89816356908981032731                              8981032731                                        8981515760898160824089816083208981635690          8981032841                                        8981032921                                        898103284189810329218981033011                    8981044152                                        8981044122                                        8981033011                                        8981032130                                        8981032100                                        8981032110                                                                                                                                                                                                                                                                                                                                                    
00023120B1000023001008              201111030752TFR86JEMN2 LA                                       898103213089810321008981032110                    8981032601                                        8981032462                                        8981032432                                        89816356608981032721                              8981032721                                        8981032601898103246289810324328981635660          8981446270                                        8981446280                                        898144627089814462808981033001                    8981446231                                        8981446241                                        8981033001                                        8981032130                                        8981032100                                        8981032110                                                                                                                                                                                                                                                                                                                                                    
00024120B1000024001009              201111030753TFR86JEQN4 LA                                       898103213089810321008981032110                    8981032601                                        8981032462                                        8981032402                                        89816356708981032721                              8981032721                                        8981032601898103246289810324028981635670          8981446270                                        8981446280                                        898144627089814462808981033001                    8981446231                                        8981446241                                        8981033001                                        8981032130                                        8981032100                                        8981032110                                                                                                                                                                                                                                                                                                                                                    
00025120B1000025001010              201111030754TFR86JEQH5 LA                                       898103213089810321008981032110                    8981032601                                        8981032462                                        8981032402                                        89816356708981032721                              8981032721                                        8981032601898103246289810324028981635670          8981446250                                        8981446260                                        898144625089814462608981033001                    8981446211                                        8981446221                                        8981033001                                        8981032130                                        8981032100                                        8981032110                                                                                                                                                                                                                                                                                                                                                    
00026120B1000026001011              201111030755TFR86JERH6 LA                                       898103213089810321008981032110                    8981032601                                        8981032462                                        8981032402                                        89816356708981032721                              8981032721                                        8981032601898103246289810324028981635670          8981446250                                        8981446260                                        898144625089814462608981033001                    8981446211                                        8981446221                                        8981033001                                        8981032130                                        8981032100                                        8981032110                                                                                                                                                                                                                                                                                                                                                    
00027120B1000027001012              201111030756TFR85JEQH6 LA                                       898103213089810321008981032110                    8981032601                                        8981032462                                        8981032402                                        89816356708981032721                              8981032721                                        8981032601898103246289810324028981635670          8981446250                                        8981446260                                        898144625089814462608981033001                    8981446211                                        8981446221                                        8981033001                                        8981032130                                        8981032100                                        8981032110                                                                                                                                                                                                                                                                                                                                                    
00028120B1000028001013              201111030757TFS85JCQH6 UA                                       898103213089810321008981032110                    8981515760                                        8981608240                                        8981608320                                        89816356908981032731                              8981032731                                        8981515760898160824089816083208981635690          8981032861                                        8981032961                                        898103286189810329618981033011                    8981044242                                        8981044222                                        8981033011                                        8981032130                                        8981032100                                        8981032110                                                                                                                                                                                                                                                                                                                                                    
00029120B1000029001014              201111030758TFR86JCQN6 UA                                       898103213089810321008981032110                    8981515760                                        8981608240                                        8981608320                                        89816356908981032731                              8981032731                                        8981515760898160824089816083208981635690          8981032841                                        8981032921                                        898103284189810329218981033011                    8981044152                                        8981044122                                        8981033011                                        8981032130                                        8981032100                                        8981032110                                                                                                                                                                                                                                                                                                                                                    
00030120B1000030001015              201111030759TFR86JEMN2 LA                                       898103213089810321008981032110                    8981032601                                        8981032462                                        8981032432                                        89816356608981032721                              8981032721                                        8981032601898103246289810324328981635660          8981446270                                        8981446280                                        898144627089814462808981033001                    8981446231                                        8981446241                                        8981033001                                        8981032130                                        8981032100                                        8981032110                                                                                                                                                                                                                                                                                                                                                    
00031120A1000031001016              201111030800TFR86JEQN4 LA                                       898103213089810321008981032110                    8981032601                                        8981032462                                        8981032402                                        89816356708981032721                              8981032721                                        8981032601898103246289810324028981635670          8981446270                                        8981446280                                        898144627089814462808981033001                    8981446231                                        8981446241                                        8981033001                                        8981032130                                        8981032100                                        8981032110                                                                                                                                                                                                                                                                                                                                                    
00032120A1000032001017              201111030801TFR86JEQH5 LA                                       898103213089810321008981032110                    8981032601                                        8981032462                                        8981032402                                        89816356708981032721                              8981032721                                        8981032601898103246289810324028981635670          8981446250                                        8981446260                                        898144625089814462608981033001                    8981446211                                        8981446221                                        8981033001                                        8981032130                                        8981032100                                        8981032110                                                                                                                                                                                                                                                                                                                                                    
00033120A1000033001018              201111030802TFR86JERH6 LA                                       898103213089810321008981032110                    8981032601                                        8981032462                                        8981032402                                        89816356708981032721                              8981032721                                        8981032601898103246289810324028981635670          8981446250                                        8981446260                                        898144625089814462608981033001                    8981446211                                        8981446221                                        8981033001                                        8981032130                                        8981032100                                        8981032110                                                                                                                                                                                                                                                                                                                                                    
00034120A1000034001019              201111030803TFR85JEQH6 LA                                       898103213089810321008981032110                    8981032601                                        8981032462                                        8981032402                                        89816356708981032721                              8981032721                                        8981032601898103246289810324028981635670          8981446250                                        8981446260                                        898144625089814462608981033001                    8981446211                                        8981446221                                        8981033001                                        8981032130                                        8981032100                                        8981032110                                                                                                                                                                                                                                                                                                                                                    
00035120A1000035001020              201111030804TFS85JCQH6 UA                                       898103213089810321008981032110                    8981515760                                        8981608240                                        8981608320                                        89816356908981032731                              8981032731                                        8981515760898160824089816083208981635690          8981032861                                        8981032961                                        898103286189810329618981033011                    8981044242                                        8981044222                                        8981033011                                        8981032130                                        8981032100                                        8981032110                                                                                                                                                                                                                                                                                                                                                    
00036120A1000036001021              201111030805TFR86JCQN6 UA                                       898103213089810321008981032110                    8981515760                                        8981608240                                        8981608320                                        89816356908981032731                              8981032731                                        8981515760898160824089816083208981635690          8981032841                                        8981032921                                        898103284189810329218981033011                    8981044152                                        8981044122                                        8981033011                                        8981032130                                        8981032100                                        8981032110                                                                                                                                                                                                                                                                                                                                                    
00037120A1000037001022              201111030806TFR86JEMN2 LA                                       898103213089810321008981032110                    8981032601                                        8981032462                                        8981032432                                        89816356608981032721                              8981032721                                        8981032601898103246289810324328981635660          8981446270                                        8981446280                                        898144627089814462808981033001                    8981446231                                        8981446241                                        8981033001                                        8981032130                                        8981032100                                        8981032110                                                                                                                                                                                                                                                                                                                                                    
00038120A1000038001023              201111030807TFR86JEQN4 LA                                       898103213089810321008981032110                    8981032601                                        8981032462                                        8981032402                                        89816356708981032721                              8981032721                                        8981032601898103246289810324028981635670          8981446270                                        8981446280                                        898144627089814462808981033001                    8981446231                                        8981446241                                        8981033001                                        8981032130                                        8981032100                                        8981032110                                                                                                                                                                                                                                                                                                                                                    
00039120A1000039001024              201111030808TFR86JEQH5 LA                                       898103213089810321008981032110                    8981032601                                        8981032462                                        8981032402                                        89816356708981032721                              8981032721                                        8981032601898103246289810324028981635670          8981446250                                        8981446260                                        898144625089814462608981033001                    8981446211                                        8981446221                                        8981033001                                        8981032130                                        8981032100                                        8981032110                                                                                                                                                                                                                                                                                                                                                    
00040120A1000040001025              201111030809TFR86JERH6 LA                                       898103213089810321008981032110                    8981032601                                        8981032462                                        8981032402                                        89816356708981032721                              8981032721                                        8981032601898103246289810324028981635670          8981446250                                        8981446260                                        898144625089814462608981033001                    8981446211                                        8981446221                                        8981033001                                        8981032130                                        8981032100                                        8981032110                                                                                                                                                                                                                                                                                                                                                    
00041120A1000041001026              201111030810TFR85JEQH6 LA                                       898103213089810321008981032110                    8981032601                                        8981032462                                        8981032402                                        89816356708981032721                              8981032721                                        8981032601898103246289810324028981635670          8981446250                                        8981446260                                        898144625089814462608981033001                    8981446211                                        8981446221                                        8981033001                                        8981032130                                        8981032100                                        8981032110                                                                                                                                                                                                                                                                                                                                                    
00042120A1000042001027              201111030811TFS85JCQH6 UA                                       898103213089810321008981032110                    8981515760                                        8981608240                                        8981608320                                        89816356908981032731                              8981032731                                        8981515760898160824089816083208981635690          8981032861                                        8981032961                                        898103286189810329618981033011                    8981044242                                        8981044222                                        8981033011                                        8981032130                                        8981032100                                        8981032110                                                                                                                                                                                                                                                                                                                                                    
00043120A1000043001028              201111030812TFR86JCQN6 UA                                       898103213089810321008981032110                    8981515760                                        8981608240                                        8981608320                                        89816356908981032731                              8981032731                                        8981515760898160824089816083208981635690          8981032841                                        8981032921                                        898103284189810329218981033011                    8981044152                                        8981044122                                        8981033011                                        8981032130                                        8981032100                                        8981032110                                                                                                                                                                                                                                                                                                                                                    
00044120A1000044001029              201111030813TFR86JEMN2 LA                                       898103213089810321008981032110                    8981032601                                        8981032462                                        8981032432                                        89816356608981032721                              8981032721                                        8981032601898103246289810324328981635660          8981446270                                        8981446280                                        898144627089814462808981033001                    8981446231                                        8981446241                                        8981033001                                        8981032130                                        8981032100                                        8981032110                                                                                                                                                                                                                                                                                                                                                    
00045120A1000045001030              201111030814TFR86JEQN4 LA                                       898103213089810321008981032110                    8981032601                                        8981032462                                        8981032402                                        89816356708981032721                              8981032721                                        8981032601898103246289810324028981635670          8981446270                                        8981446280                                        898144627089814462808981033001                    8981446231                                        8981446241                                        8981033001                                        8981032130                                        8981032100                                        8981032110                                                                                                                                                                                                                                                                                                                                                    
00046120D1000046001001              201111030815TFR86JEQH5 LA                                       898103213089810321008981032110                    8981032601                                        8981032462                                        8981032402                                        89816356708981032721                              8981032721                                        8981032601898103246289810324028981635670          8981446250                                        8981446260                                        898144625089814462608981033001                    8981446211                                        8981446221                                        8981033001                                        8981032130                                        8981032100                                        8981032110                                                                                                                                                                                                                                                                                                                                                    
00047120D1000047001002              201111030816TFR86JERH6 LA                                       898103213089810321008981032110                    8981032601                                        8981032462                                        8981032402                                        89816356708981032721                              8981032721                                        8981032601898103246289810324028981635670          8981446250                                        8981446260                                        898144625089814462608981033001                    8981446211                                        8981446221                                        8981033001                                        8981032130                                        8981032100                                        8981032110                                                                                                                                                                                                                                                                                                                                                    
00048120D1000048001003              201111030817TFR85JEQH6 LA                                       898103213089810321008981032110                    8981032601                                        8981032462                                        8981032402                                        89816356708981032721                              8981032721                                        8981032601898103246289810324028981635670          8981446250                                        8981446260                                        898144625089814462608981033001                    8981446211                                        8981446221                                        8981033001                                        8981032130                                        8981032100                                        8981032110                                                                                                                                                                                                                                                                                                                                                    
00049120D1000049001004              201111030818TFS85JCQH6 UA                                       898103213089810321008981032110                    8981515760                                        8981608240                                        8981608320                                        89816356908981032731                              8981032731                                        8981515760898160824089816083208981635690          8981032861                                        8981032961                                        898103286189810329618981033011                    8981044242                                        8981044222                                        8981033011                                        8981032130                                        8981032100                                        8981032110                                                                                                                                                                                                                                                                                                                                                    
00050120D1000050001005              201111030819TFR86JCQN6 UA                                       898103213089810321008981032110                    8981515760                                        8981608240                                        8981608320                                        89816356908981032731                              8981032731                                        8981515760898160824089816083208981635690          8981032841                                        8981032921                                        898103284189810329218981033011                    8981044152                                        8981044122                                        8981033011                                        8981032130                                        8981032100                                        8981032110                                                                                                                                                                                                                                                                                                                                                    
00051120D1000051001006              201111030820TFR86JEMN2 LA                                       898103213089810321008981032110                    8981032601                                        8981032462                                        8981032432                                        89816356608981032721                              8981032721                                        8981032601898103246289810324328981635660          8981446270                                        8981446280                                        898144627089814462808981033001                    8981446231                                        8981446241                                        8981033001                                        8981032130                                        8981032100                                        8981032110                                                                                                                                                                                                                                                                                                                                                    
00052120D1000052001007              201111030821TFR86JEQN4 LA                                       898103213089810321008981032110                    8981032601                                        8981032462                                        8981032402                                        89816356708981032721                              8981032721                                        8981032601898103246289810324028981635670          8981446270                                        8981446280                                        898144627089814462808981033001                    8981446231                                        8981446241                                        8981033001                                        8981032130                                        8981032100                                        8981032110                                                                                                                                                                                                                                                                                                                                                    
00053120D1000053001008              201111030822TFR86JEQH5 LA                                       898103213089810321008981032110                    8981032601                                        8981032462                                        8981032402                                        89816356708981032721                              8981032721                                        8981032601898103246289810324028981635670          8981446250                                        8981446260                                        898144625089814462608981033001                    8981446211                                        8981446221                                        8981033001                                        8981032130                                        8981032100                                        8981032110                                                                                                                                                                                                                                                                                                                                                    
00054120D1000054001009              201111030823TFR86JERH6 LA                                       898103213089810321008981032110                    8981032601                                        8981032462                                        8981032402                                        89816356708981032721                              8981032721                                        8981032601898103246289810324028981635670          8981446250                                        8981446260                                        898144625089814462608981033001                    8981446211                                        8981446221                                        8981033001                                        8981032130                                        8981032100                                        8981032110                                                                                                                                                                                                                                                                                                                                                    
00055120D1000055001010              201111030824TFR85JEQH6 LA                                       898103213089810321008981032110                    8981032601                                        8981032462                                        8981032402                                        89816356708981032721                              8981032721                                        8981032601898103246289810324028981635670          8981446250                                        8981446260                                        898144625089814462608981033001                    8981446211                                        8981446221                                        8981033001                                        8981032130                                        8981032100                                        8981032110                                                                                                                                                                                                                                                                                                                                                    
00056120D1000056001011              201111030825TFS85JCQH6 UA                                       898103213089810321008981032110                    8981515760                                        8981608240                                        8981608320                                        89816356908981032731                              8981032731                                        8981515760898160824089816083208981635690          8981032861                                        8981032961                                        898103286189810329618981033011                    8981044242                                        8981044222                                        8981033011                                        8981032130                                        8981032100                                        8981032110                                                                                                                                                                                                                                                                                                                                                    
00057120D1000057001012              201111030826TFR86JCQN6 UA                                       898103213089810321008981032110                    8981515760                                        8981608240                                        8981608320                                        89816356908981032731                              8981032731                                        8981515760898160824089816083208981635690          8981032841                                        8981032921                                        898103284189810329218981033011                    8981044152                                        8981044122                                        8981033011                                        8981032130                                        8981032100                                        8981032110                                                                                                                                                                                                                                                                                                                                                    
00058120D1000058001013              201111030827TFR86JEMN2 LA                                       898103213089810321008981032110                    8981032601                                        8981032462                                        8981032432                                        89816356608981032721                              8981032721                                        8981032601898103246289810324328981635660          8981446270                                        8981446280                                        898144627089814462808981033001                    8981446231                                        8981446241                                        8981033001                                        8981032130                                        8981032100                                        8981032110                                                                                                                                                                                                                                                                                                                                                    
00059120D1000059001014              201111030828TFR86JEQN4 LA                                       898103213089810321008981032110                    8981032601                                        8981032462                                        8981032402                                        89816356708981032721                              8981032721                                        8981032601898103246289810324028981635670          8981446270                                        8981446280                                        898144627089814462808981033001                    8981446231                                        8981446241                                        8981033001                                        8981032130                                        8981032100                                        8981032110                                                                                                                                                                                                                                                                                                                                                    
00060120D1000060001015              201111030829TFR86JEQH5 LA                                       898103213089810321008981032110                    8981032601                                        8981032462                                        8981032402                                        89816356708981032721                              8981032721                                        8981032601898103246289810324028981635670          8981446250                                        8981446260                                        898144625089814462608981033001                    8981446211                                        8981446221                                        8981033001                                        8981032130                                        8981032100                                        8981032110                                                                                                                                                                                                                                                                                                                                                    
00061120E1000061001001              201111030830TFR86JERH6 LA                                       898103213089810321008981032110                    8981032601                                        8981032462                                        8981032402                                        89816356708981032721                              8981032721                                        8981032601898103246289810324028981635670          8981446250                                        8981446260                                        898144625089814462608981033001                    8981446211                                        8981446221                                        8981033001                                        8981032130                                        8981032100                                        8981032110                                                                                                                                                                                                                                                                                                                                                    
00062120E1000062001002              201111030831TFR85JEQH6 LA                                       898103213089810321008981032110                    8981032601                                        8981032462                                        8981032402                                        89816356708981032721                              8981032721                                        8981032601898103246289810324028981635670          8981446250                                        8981446260                                        898144625089814462608981033001                    8981446211                                        8981446221                                        8981033001                                        8981032130                                        8981032100                                        8981032110                                                                                                                                                                                                                                                                                                                                                    
00063120E1000063001003              201111030832TFS85JCQH6 UA                                       898103213089810321008981032110                    8981515760                                        8981608240                                        8981608320                                        89816356908981032731                              8981032731                                        8981515760898160824089816083208981635690          8981032861                                        8981032961                                        898103286189810329618981033011                    8981044242                                        8981044222                                        8981033011                                        8981032130                                        8981032100                                        8981032110                                                                                                                                                                                                                                                                                                                                                    
00064120E1000064001004              201111030833TFR86JCQN6 UA                                       898103213089810321008981032110                    8981515760                                        8981608240                                        8981608320                                        89816356908981032731                              8981032731                                        8981515760898160824089816083208981635690          8981032841                                        8981032921                                        898103284189810329218981033011                    8981044152                                        8981044122                                        8981033011                                        8981032130                                        8981032100                                        8981032110                                                                                                                                                                                                                                                                                                                                                    
00065120E1000065001005              201111030834TFR86JEMN2 LA                                       898103213089810321008981032110                    8981032601                                        8981032462                                        8981032432                                        89816356608981032721                              8981032721                                        8981032601898103246289810324328981635660          8981446270                                        8981446280                                        898144627089814462808981033001                    8981446231                                        8981446241                                        8981033001                                        8981032130                                        8981032100                                        8981032110                                                                                                                                                                                                                                                                                                                                                    
00066120E1000066001006              201111030835TFR86JEQN4 LA                                       898103213089810321008981032110                    8981032601                                        8981032462                                        8981032402                                        89816356708981032721                              8981032721                                        8981032601898103246289810324028981635670          8981446270                                        8981446280                                        898144627089814462808981033001                    8981446231                                        8981446241                                        8981033001                                        8981032130                                        8981032100                                        8981032110                                                                                                                                                                                                                                                                                                                                                    
00067120E1000067001007              201111030836TFR86JEQH5 LA                                       898103213089810321008981032110                    8981032601                                        8981032462                                        8981032402                                        89816356708981032721                              8981032721                                        8981032601898103246289810324028981635670          8981446250                                        8981446260                                        898144625089814462608981033001                    8981446211                                        8981446221                                        8981033001                                        8981032130                                        8981032100                                        8981032110                                                                                                                                                                                                                                                                                                                                                    
00068120E1000068001008              201111030837TFR86JERH6 LA                                       898103213089810321008981032110                    8981032601                                        8981032462                                        8981032402                                        89816356708981032721                              8981032721                                        8981032601898103246289810324028981635670          8981446250                                        8981446260                                        898144625089814462608981033001                    8981446211                                        8981446221                                        8981033001                                        8981032130                                        8981032100                                        8981032110                                                                                                                                                                                                                                                                                                                                                    
00069120E1000069001009              201111030838TFR85JEQH6 LA                                       898103213089810321008981032110                    8981032601                                        8981032462                                        8981032402                                        89816356708981032721                              8981032721                                        8981032601898103246289810324028981635670          8981446250                                        8981446260                                        898144625089814462608981033001                    8981446211                                        8981446221                                        8981033001                                        8981032130                                        8981032100                                        8981032110                                                                                                                                                                                                                                                                                                                                                    
00070120E1000070001010              201111030839TFS85JCQH6 UA                                       898103213089810321008981032110                    8981515760                                        8981608240                                        8981608320                                        89816356908981032731                              8981032731                                        8981515760898160824089816083208981635690          8981032861                                        8981032961                                        898103286189810329618981033011                    8981044242                                        8981044222                                        8981033011                                        8981032130                                        8981032100                                        8981032110                                                                                                                                                                                                                                                                                                                                                    
00071120E1000071001011              201111030840TFR86JCQN6 UA                                       898103213089810321008981032110                    8981515760                                        8981608240                                        8981608320                                        89816356908981032731                              8981032731                                        8981515760898160824089816083208981635690          8981032841                                        8981032921                                        898103284189810329218981033011                    8981044152                                        8981044122                                        8981033011                                        8981032130                                        8981032100                                        8981032110                                                                                                                                                                                                                                                                                                                                                    
00072120E1000072001012              201111030841TFR86JEMN2 LA                                       898103213089810321008981032110                    8981032601                                        8981032462                                        8981032432                                        89816356608981032721                              8981032721                                        8981032601898103246289810324328981635660          8981446270                                        8981446280                                        898144627089814462808981033001                    8981446231                                        8981446241                                        8981033001                                        8981032130                                        8981032100                                        8981032110                                                                                                                                                                                                                                                                                                                                                    
00073120E1000073001013              201111030842TFR86JEQN4 LA                                       898103213089810321008981032110                    8981032601                                        8981032462                                        8981032402                                        89816356708981032721                              8981032721                                        8981032601898103246289810324028981635670          8981446270                                        8981446280                                        898144627089814462808981033001                    8981446231                                        8981446241                                        8981033001                                        8981032130                                        8981032100                                        8981032110                                                                                                                                                                                                                                                                                                                                                    
00074120E1000074001014              201111030843TFR86JEQH5 LA                                       898103213089810321008981032110                    8981032601                                        8981032462                                        8981032402                                        89816356708981032721                              8981032721                                        8981032601898103246289810324028981635670          8981446250                                        8981446260                                        898144625089814462608981033001                    8981446211                                        8981446221                                        8981033001                                        8981032130                                        8981032100                                        8981032110                                                                                                                                                                                                                                                                                                                                                    
00075120E1000075001015              201111030844TFR86JERH6 LA                                       898103213089810321008981032110                    8981032601                                        8981032462                                        8981032402                                        89816356708981032721                              8981032721                                        8981032601898103246289810324028981635670          8981446250                                        8981446260                                        898144625089814462608981033001                    8981446211                                        8981446221                                        8981033001                                        8981032130                                        8981032100                                        8981032110                                                                                                                                                                                                                                                                                                                                                    
00076120B1000076001016              201111030845TFR85JEQH6 LA                                       898103213089810321008981032110                    8981032601                                        8981032462                                        8981032402                                        89816356708981032721                              8981032721                                        8981032601898103246289810324028981635670          8981446250                                        8981446260                                        898144625089814462608981033001                    8981446211                                        8981446221                                        8981033001                                        8981032130                                        8981032100                                        8981032110                                                                                                                                                                                                                                                                                                                                                    
00077120B1000077001017              201111030846TFS85JCQH6 UA                                       898103213089810321008981032110                    8981515760                                        8981608240                                        8981608320                                        89816356908981032731                              8981032731                                        8981515760898160824089816083208981635690          8981032861                                        8981032961                                        898103286189810329618981033011                    8981044242                                        8981044222                                        8981033011                                        8981032130                                        8981032100                                        8981032110                                                                                                                                                                                                                                                                                                                                                    
00078120B1000078001018              201111030847TFR86JCQN6 UA                                       898103213089810321008981032110                    8981515760                                        8981608240                                        8981608320                                        89816356908981032731                              8981032731                                        8981515760898160824089816083208981635690          8981032841                                        8981032921                                        898103284189810329218981033011                    8981044152                                        8981044122                                        8981033011                                        8981032130                                        8981032100                                        8981032110                                                                                                                                                                                                                                                                                                                                                    
00079120B1000079001019              201111030848TFR86JEMN2 LA                                       898103213089810321008981032110                    8981032601                                        8981032462                                        8981032432                                        89816356608981032721                              8981032721                                        8981032601898103246289810324328981635660          8981446270                                        8981446280                                        898144627089814462808981033001                    8981446231                                        8981446241                                        8981033001                                        8981032130                                        8981032100                                        8981032110                                                                                                                                                                                                                                                                                                                                                    
00080120B1000080001020              201111030849TFR86JEQN4 LA                                       898103213089810321008981032110                    8981032601                                        8981032462                                        8981032402                                        89816356708981032721                              8981032721                                        8981032601898103246289810324028981635670          8981446270                                        8981446280                                        898144627089814462808981033001                    8981446231                                        8981446241                                        8981033001                                        8981032130                                        8981032100                                        8981032110                                                                                                                                                                                                                                                                                                                                                    
00081120B1000081001021              201111030850TFR86JEQH5 LA                                       898103213089810321008981032110                    8981032601                                        8981032462                                        8981032402                                        89816356708981032721                              8981032721                                        8981032601898103246289810324028981635670          8981446250                                        8981446260                                        898144625089814462608981033001                    8981446211                                        8981446221                                        8981033001                                        8981032130                                        8981032100                                        8981032110                                                                                                                                                                                                                                                                                                                                                    
00082120B1000082001022              201111030851TFR86JERH6 LA                                       898103213089810321008981032110                    8981032601                                        8981032462                                        8981032402                                        89816356708981032721                              8981032721                                        8981032601898103246289810324028981635670          8981446250                                        8981446260                                        898144625089814462608981033001                    8981446211                                        8981446221                                        8981033001                                        8981032130                                        8981032100                                        8981032110                                                                                                                                                                                                                                                                                                                                                    
