HEADERRT50 BODY         201010071127290120000000                                                                                                                                                                                                                                                                                                                                                                                                                                                                                                                                                                                                                                                                                                                                                                                                                                                                                                                                                                                                                                                                                                                                                                                                
00001120A1000001009001              201111110730TFR86JCQ-R UA                                       898103213089810321008981032110                    8981515760                                        8981608240                                        8981608320                                        89816356908981032731                              8981032731                                        8981515760898160824089816083208981635690          8981032841                                        8981032921                                        898103284189810329218981033011                    8981044152                                        8981044122                                        8981033011                                        8981032130                                        8981032100                                        8981032110                                                                                                                                                                                                                                                                                                                                                    
00002120A1000002009002              201111110731TFR86JVMN11LA                                       898103213089810321008981032110                    8981032531                                        8981608170                                        8981608300                                        89810321608981032711                              8981032711                                        8981032531898160817089816083008981032160                                                                                                                                                                                                                                                                                                                      8981032130                                        8981032100                                        8981032110                                                                                                                                                                                                                                                                                                                                                    
00003120A1000003009003              201111110732TFR86JEQ-R LA                                       898103213089810321008981032110                    8981032601                                        8981032462                                        8981032402                                        89816356708981032721                              8981032721                                        8981032601898103246289810324028981635670          8981446270                                        8981446280                                        898144627089814462808981033001                    8981446231                                        8981446241                                        8981033001                                        8981032130                                        8981032100                                        8981032110                                                                                                                                                                                                                                                                                                                                                    
00004120A1000004009004              201111110733TFR86JEQ-R LA                                       898103213089810321008981032110                    8981032601                                        8981032462                                        8981032402                                        89816356708981032721                              8981032721                                        8981032601898103246289810324028981635670          8981446250                                        8981446260                                        898144625089814462608981033001                    8981446211                                        8981446221                                        8981033001                                        8981032130                                        8981032100                                        8981032110                                                                                                                                                                                                                                                                                                                                                    
00005120A1000005009005              201111110734TFR86JER-R LA                                       898103213089810321008981032110                    8981032601                                        8981032462                                        8981032402                                        89816356708981032721                              8981032721                                        8981032601898103246289810324028981635670          8981446250                                        8981446260                                        898144625089814462608981033001                    8981446211                                        8981446221                                        8981033001                                        8981032130                                        8981032100                                        8981032110                                                                                                                                                                                                                                                                                                                                                    
00006120A1000006009006              201111110735TFR86JVMN11LA                                       898103213089810321008981032110                    8981032531                                        8981608170                                        8981608300                                        89810321608981032711                              8981032711                                        8981032531898160817089816083008981032160                                                                                                                                                                                                                                                                                                                      8981032130                                        8981032100                                        8981032110                                                                                                                                                                                                                                                                                                                                                    
00007120A1000007009007              201111110736TFS85JCQ-R UA                                       898103213089810321008981032110                    8981515760                                        8981608240                                        8981608320                                        89816356908981032731                              8981032731                                        8981515760898160824089816083208981635690          8981032861                                        8981032961                                        898103286189810329618981033011                    8981044242                                        8981044222                                        8981033011                                        8981032130                                        8981032100                                        8981032110                                                                                                                                                                                                                                                                                                                                                    
00008120A1000008009008              201111110737TFR86JCQ-R1UA                                       898103213089810321008981032110                    8981515760                                        8981608240                                        8981608320                                        89816356908981032731                              8981032731                                        8981515760898160824089816083208981635690          8981032841                                        8981032921                                        898103284189810329218981033011                    8981044152                                        8981044122                                        8981033011                                        8981032130                                        8981032100                                        8981032110                                                                                                                                                                                                                                                                                                                                                    
00009120A1000009009009              201111110738TFR86JVMN11LA                                       898103213089810321008981032110                    8981032531                                        8981608170                                        8981608300                                        89810321608981032711                              8981032711                                        8981032531898160817089816083008981032160                                                                                                                                                                                                                                                                                                                      8981032130                                        8981032100                                        8981032110                                                                                                                                                                                                                                                                                                                                                    
00010120A1000010009010              201111110739TFR86JVMN11LA                                       898103213089810321008981032110                    8981032531                                        8981608170                                        8981608300                                        89810321608981032711                              8981032711                                        8981032531898160817089816083008981032160                                                                                                                                                                                                                                                                                                                      8981032130                                        8981032100                                        8981032110                                                                                                                                                                                                                                                                                                                                                    
00011120A1000011009011              201111110740TFR86JEQ-R LA                                       898103213089810321008981032110                    8981032601                                        8981032462                                        8981032402                                        89816356708981032721                              8981032721                                        8981032601898103246289810324028981635670          8981446250                                        8981446260                                        898144625089814462608981033001                    8981446211                                        8981446221                                        8981033001                                        8981032130                                        8981032100                                        8981032110                                                                                                                                                                                                                                                                                                                                                    
00012120A1000012009012              201111110741TFR86JVMN11LA                                       898103213089810321008981032110                    8981032531                                        8981608170                                        8981608300                                        89810321608981032711                              8981032711                                        8981032531898160817089816083008981032160                                                                                                                                                                                                                                                                                                                      8981032130                                        8981032100                                        8981032110                                                                                                                                                                                                                                                                                                                                                    
00013120A1000013009013              201111110742TFR85JEQ-R LA                                       898103213089810321008981032110                    8981032601                                        8981032462                                        8981032402                                        89816356708981032721                              8981032721                                        8981032601898103246289810324028981635670          8981446250                                        8981446260                                        898144625089814462608981033001                    8981446211                                        8981446221                                        8981033001                                        8981032130                                        8981032100                                        8981032110                                                                                                                                                                                                                                                                                                                                                    
00014120A1000014009014              201111110743TFR86JVMN11LA                                       898103213089810321008981032110                    8981032531                                        8981608170                                        8981608300                                        89810321608981032711                              8981032711                                        8981032531898160817089816083008981032160                                                                                                                                                                                                                                                                                                                      8981032130                                        8981032100                                        8981032110                                                                                                                                                                                                                                                                                                                                                    
00015120A1000015009015              201111110744TFR86JVMN11LA                                       898103213089810321008981032110                    8981032531                                        8981608170                                        8981608300                                        89810321608981032711                              8981032711                                        8981032531898160817089816083008981032160                                                                                                                                                                                                                                                                                                                      8981032130                                        8981032100                                        8981032110                                                                                                                                                                                                                                                                                                                                                    
00016120B1000016009001              201111110745TFR86JEMN2 LA                                       898103213089810321008981032110                    8981032601                                        8981032462                                        8981032432                                        89816356608981032721                              8981032721                                        8981032601898103246289810324328981635660          8981446270                                        8981446280                                        898144627089814462808981033001                    8981446231                                        8981446241                                        8981033001                                        8981032130                                        8981032100                                        8981032110                                                                                                                                                                                                                                                                                                                                                    
00017120B1000017009002              201111110746TFR86JEQN4 LA                                       898103213089810321008981032110                    8981032601                                        8981032462                                        8981032402                                        89816356708981032721                              8981032721                                        8981032601898103246289810324028981635670          8981446270                                        8981446280                                        898144627089814462808981033001                    8981446231                                        8981446241                                        8981033001                                        8981032130                                        8981032100                                        8981032110                                                                                                                                                                                                                                                                                                                                                    
00018120B1000018009003              201111110747TFR86JEQH5 LA                                       898103213089810321008981032110                    8981032601                                        8981032462                                        8981032402                                        89816356708981032721                              8981032721                                        8981032601898103246289810324028981635670          8981446250                                        8981446260                                        898144625089814462608981033001                    8981446211                                        8981446221                                        8981033001                                        8981032130                                        8981032100                                        8981032110                                                                                                                                                                                                                                                                                                                                                    
00019120B1000019009004              201111110748TFR86JERH6 LA                                       898103213089810321008981032110                    8981032601                                        8981032462                                        8981032402                                        89816356708981032721                              8981032721                                        8981032601898103246289810324028981635670          8981446250                                        8981446260                                        898144625089814462608981033001                    8981446211                                        8981446221                                        8981033001                                        8981032130                                        8981032100                                        8981032110                                                                                                                                                                                                                                                                                                                                                    
00020120B1000020009005              201111110749TFR85JEQH6 LA                                       898103213089810321008981032110                    8981032601                                        8981032462                                        8981032402                                        89816356708981032721                              8981032721                                        8981032601898103246289810324028981635670          8981446250                                        8981446260                                        898144625089814462608981033001                    8981446211                                        8981446221                                        8981033001                                        8981032130                                        8981032100                                        8981032110                                                                                                                                                                                                                                                                                                                                                    
00021120B1000021009006              201111110750TFS85JCQH6 UA                                       898103213089810321008981032110                    8981515760                                        8981608240                                        8981608320                                        89816356908981032731                              8981032731                                        8981515760898160824089816083208981635690          8981032861                                        8981032961                                        898103286189810329618981033011                    8981044242                                        8981044222                                        8981033011                                        8981032130                                        8981032100                                        8981032110                                                                                                                                                                                                                                                                                                                                                    
00022120B1000022009007              201111110751TFR86JCQN6 UA                                       898103213089810321008981032110                    8981515760                                        8981608240                                        8981608320                                        89816356908981032731                              8981032731                                        8981515760898160824089816083208981635690          8981032841                                        8981032921                                        898103284189810329218981033011                    8981044152                                        8981044122                                        8981033011                                        8981032130                                        8981032100                                        8981032110                                                                                                                                                                                                                                                                                                                                                    
00023120B1000023009008              201111110752TFR86JEMN2 LA                                       898103213089810321008981032110                    8981032601                                        8981032462                                        8981032432                                        89816356608981032721                              8981032721                                        8981032601898103246289810324328981635660          8981446270                                        8981446280                                        898144627089814462808981033001                    8981446231                                        8981446241                                        8981033001                                        8981032130                                        8981032100                                        8981032110                                                                                                                                                                                                                                                                                                                                                    
00024120B1000024009009              201111110753TFR86JEQN4 LA                                       898103213089810321008981032110                    8981032601                                        8981032462                                        8981032402                                        89816356708981032721                              8981032721                                        8981032601898103246289810324028981635670          8981446270                                        8981446280                                        898144627089814462808981033001                    8981446231                                        8981446241                                        8981033001                                        8981032130                                        8981032100                                        8981032110                                                                                                                                                                                                                                                                                                                                                    
00025120B1000025009010              201111110754TFR86JEQH5 LA                                       898103213089810321008981032110                    8981032601                                        8981032462                                        8981032402                                        89816356708981032721                              8981032721                                        8981032601898103246289810324028981635670          8981446250                                        8981446260                                        898144625089814462608981033001                    8981446211                                        8981446221                                        8981033001                                        8981032130                                        8981032100                                        8981032110                                                                                                                                                                                                                                                                                                                                                    
00026120B1000026009011              201111110755TFR86JERH6 LA                                       898103213089810321008981032110                    8981032601                                        8981032462                                        8981032402                                        89816356708981032721                              8981032721                                        8981032601898103246289810324028981635670          8981446250                                        8981446260                                        898144625089814462608981033001                    8981446211                                        8981446221                                        8981033001                                        8981032130                                        8981032100                                        8981032110                                                                                                                                                                                                                                                                                                                                                    
00027120B1000027009012              201111110756TFR85JEQH6 LA                                       898103213089810321008981032110                    8981032601                                        8981032462                                        8981032402                                        89816356708981032721                              8981032721                                        8981032601898103246289810324028981635670          8981446250                                        8981446260                                        898144625089814462608981033001                    8981446211                                        8981446221                                        8981033001                                        8981032130                                        8981032100                                        8981032110                                                                                                                                                                                                                                                                                                                                                    
00028120B1000028009013              201111110757TFS85JCQH6 UA                                       898103213089810321008981032110                    8981515760                                        8981608240                                        8981608320                                        89816356908981032731                              8981032731                                        8981515760898160824089816083208981635690          8981032861                                        8981032961                                        898103286189810329618981033011                    8981044242                                        8981044222                                        8981033011                                        8981032130                                        8981032100                                        8981032110                                                                                                                                                                                                                                                                                                                                                    
00029120B1000029009014              201111110758TFR86JCQN6 UA                                       898103213089810321008981032110                    8981515760                                        8981608240                                        8981608320                                        89816356908981032731                              8981032731                                        8981515760898160824089816083208981635690          8981032841                                        8981032921                                        898103284189810329218981033011                    8981044152                                        8981044122                                        8981033011                                        8981032130                                        8981032100                                        8981032110                                                                                                                                                                                                                                                                                                                                                    
00030120B1000030009015              201111110759TFR86JEMN2 LA                                       898103213089810321008981032110                    8981032601                                        8981032462                                        8981032432                                        89816356608981032721                              8981032721                                        8981032601898103246289810324328981635660          8981446270                                        8981446280                                        898144627089814462808981033001                    8981446231                                        8981446241                                        8981033001                                        8981032130                                        8981032100                                        8981032110                                                                                                                                                                                                                                                                                                                                                    
00031120A1000031009016              201111110800TFR86JEQN4 LA                                       898103213089810321008981032110                    8981032601                                        8981032462                                        8981032402                                        89816356708981032721                              8981032721                                        8981032601898103246289810324028981635670          8981446270                                        8981446280                                        898144627089814462808981033001                    8981446231                                        8981446241                                        8981033001                                        8981032130                                        8981032100                                        8981032110                                                                                                                                                                                                                                                                                                                                                    
00032120A1000032009017              201111110801TFR86JEQH5 LA                                       898103213089810321008981032110                    8981032601                                        8981032462                                        8981032402                                        89816356708981032721                              8981032721                                        8981032601898103246289810324028981635670          8981446250                                        8981446260                                        898144625089814462608981033001                    8981446211                                        8981446221                                        8981033001                                        8981032130                                        8981032100                                        8981032110                                                                                                                                                                                                                                                                                                                                                    
00033120A1000033009018              201111110802TFR86JERH6 LA                                       898103213089810321008981032110                    8981032601                                        8981032462                                        8981032402                                        89816356708981032721                              8981032721                                        8981032601898103246289810324028981635670          8981446250                                        8981446260                                        898144625089814462608981033001                    8981446211                                        8981446221                                        8981033001                                        8981032130                                        8981032100                                        8981032110                                                                                                                                                                                                                                                                                                                                                    
00034120A1000034009019              201111110803TFR85JEQH6 LA                                       898103213089810321008981032110                    8981032601                                        8981032462                                        8981032402                                        89816356708981032721                              8981032721                                        8981032601898103246289810324028981635670          8981446250                                        8981446260                                        898144625089814462608981033001                    8981446211                                        8981446221                                        8981033001                                        8981032130                                        8981032100                                        8981032110                                                                                                                                                                                                                                                                                                                                                    
00035120A1000035009020              201111110804TFS85JCQH6 UA                                       898103213089810321008981032110                    8981515760                                        8981608240                                        8981608320                                        89816356908981032731                              8981032731                                        8981515760898160824089816083208981635690          8981032861                                        8981032961                                        898103286189810329618981033011                    8981044242                                        8981044222                                        8981033011                                        8981032130                                        8981032100                                        8981032110                                                                                                                                                                                                                                                                                                                                                    
00036120A1000036009021              201111110805TFR86JCQN6 UA                                       898103213089810321008981032110                    8981515760                                        8981608240                                        8981608320                                        89816356908981032731                              8981032731                                        8981515760898160824089816083208981635690          8981032841                                        8981032921                                        898103284189810329218981033011                    8981044152                                        8981044122                                        8981033011                                        8981032130                                        8981032100                                        8981032110                                                                                                                                                                                                                                                                                                                                                    
00037120A1000037009022              201111110806TFR86JEMN2 LA                                       898103213089810321008981032110                    8981032601                                        8981032462                                        8981032432                                        89816356608981032721                              8981032721                                        8981032601898103246289810324328981635660          8981446270                                        8981446280                                        898144627089814462808981033001                    8981446231                                        8981446241                                        8981033001                                        8981032130                                        8981032100                                        8981032110                                                                                                                                                                                                                                                                                                                                                    
00038120A1000038009023              201111110807TFR86JEQN4 LA                                       898103213089810321008981032110                    8981032601                                        8981032462                                        8981032402                                        89816356708981032721                              8981032721                                        8981032601898103246289810324028981635670          8981446270                                        8981446280                                        898144627089814462808981033001                    8981446231                                        8981446241                                        8981033001                                        8981032130                                        8981032100                                        8981032110                                                                                                                                                                                                                                                                                                                                                    
00039120A1000039009024              201111110808TFR86JEQH5 LA                                       898103213089810321008981032110                    8981032601                                        8981032462                                        8981032402                                        89816356708981032721                              8981032721                                        8981032601898103246289810324028981635670          8981446250                                        8981446260                                        898144625089814462608981033001                    8981446211                                        8981446221                                        8981033001                                        8981032130                                        8981032100                                        8981032110                                                                                                                                                                                                                                                                                                                                                    
00040120A1000040009025              201111110809TFR86JERH6 LA                                       898103213089810321008981032110                    8981032601                                        8981032462                                        8981032402                                        89816356708981032721                              8981032721                                        8981032601898103246289810324028981635670          8981446250                                        8981446260                                        898144625089814462608981033001                    8981446211                                        8981446221                                        8981033001                                        8981032130                                        8981032100                                        8981032110                                                                                                                                                                                                                                                                                                                                                    
00041120A1000041009026              201111110810TFR85JEQH6 LA                                       898103213089810321008981032110                    8981032601                                        8981032462                                        8981032402                                        89816356708981032721                              8981032721                                        8981032601898103246289810324028981635670          8981446250                                        8981446260                                        898144625089814462608981033001                    8981446211                                        8981446221                                        8981033001                                        8981032130                                        8981032100                                        8981032110                                                                                                                                                                                                                                                                                                                                                    
00042120A1000042009027              201111110811TFS85JCQH6 UA                                       898103213089810321008981032110                    8981515760                                        8981608240                                        8981608320                                        89816356908981032731                              8981032731                                        8981515760898160824089816083208981635690          8981032861                                        8981032961                                        898103286189810329618981033011                    8981044242                                        8981044222                                        8981033011                                        8981032130                                        8981032100                                        8981032110                                                                                                                                                                                                                                                                                                                                                    
00043120A1000043009028              201111110812TFR86JCQN6 UA                                       898103213089810321008981032110                    8981515760                                        8981608240                                        8981608320                                        89816356908981032731                              8981032731                                        8981515760898160824089816083208981635690          8981032841                                        8981032921                                        898103284189810329218981033011                    8981044152                                        8981044122                                        8981033011                                        8981032130                                        8981032100                                        8981032110                                                                                                                                                                                                                                                                                                                                                    
00044120A1000044009029              201111110813TFR86JEMN2 LA                                       898103213089810321008981032110                    8981032601                                        8981032462                                        8981032432                                        89816356608981032721                              8981032721                                        8981032601898103246289810324328981635660          8981446270                                        8981446280                                        898144627089814462808981033001                    8981446231                                        8981446241                                        8981033001                                        8981032130                                        8981032100                                        8981032110                                                                                                                                                                                                                                                                                                                                                    
00045120A1000045009030              201111110814TFR86JEQN4 LA                                       898103213089810321008981032110                    8981032601                                        8981032462                                        8981032402                                        89816356708981032721                              8981032721                                        8981032601898103246289810324028981635670          8981446270                                        8981446280                                        898144627089814462808981033001                    8981446231                                        8981446241                                        8981033001                                        8981032130                                        8981032100                                        8981032110                                                                                                                                                                                                                                                                                                                                                    
00046120D1000046009001              201111110815TFR86JEQH5 LA                                       898103213089810321008981032110                    8981032601                                        8981032462                                        8981032402                                        89816356708981032721                              8981032721                                        8981032601898103246289810324028981635670          8981446250                                        8981446260                                        898144625089814462608981033001                    8981446211                                        8981446221                                        8981033001                                        8981032130                                        8981032100                                        8981032110                                                                                                                                                                                                                                                                                                                                                    
00047120D1000047009002              201111110816TFR86JERH6 LA                                       898103213089810321008981032110                    8981032601                                        8981032462                                        8981032402                                        89816356708981032721                              8981032721                                        8981032601898103246289810324028981635670          8981446250                                        8981446260                                        898144625089814462608981033001                    8981446211                                        8981446221                                        8981033001                                        8981032130                                        8981032100                                        8981032110                                                                                                                                                                                                                                                                                                                                                    
00048120D1000048009003              201111110817TFR85JEQH6 LA                                       898103213089810321008981032110                    8981032601                                        8981032462                                        8981032402                                        89816356708981032721                              8981032721                                        8981032601898103246289810324028981635670          8981446250                                        8981446260                                        898144625089814462608981033001                    8981446211                                        8981446221                                        8981033001                                        8981032130                                        8981032100                                        8981032110                                                                                                                                                                                                                                                                                                                                                    
00049120D1000049009004              201111110818TFS85JCQH6 UA                                       898103213089810321008981032110                    8981515760                                        8981608240                                        8981608320                                        89816356908981032731                              8981032731                                        8981515760898160824089816083208981635690          8981032861                                        8981032961                                        898103286189810329618981033011                    8981044242                                        8981044222                                        8981033011                                        8981032130                                        8981032100                                        8981032110                                                                                                                                                                                                                                                                                                                                                    
00050120D1000050009005              201111110819TFR86JCQN6 UA                                       898103213089810321008981032110                    8981515760                                        8981608240                                        8981608320                                        89816356908981032731                              8981032731                                        8981515760898160824089816083208981635690          8981032841                                        8981032921                                        898103284189810329218981033011                    8981044152                                        8981044122                                        8981033011                                        8981032130                                        8981032100                                        8981032110                                                                                                                                                                                                                                                                                                                                                    
00051120D1000051009006              201111110820TFR86JEMN2 LA                                       898103213089810321008981032110                    8981032601                                        8981032462                                        8981032432                                        89816356608981032721                              8981032721                                        8981032601898103246289810324328981635660          8981446270                                        8981446280                                        898144627089814462808981033001                    8981446231                                        8981446241                                        8981033001                                        8981032130                                        8981032100                                        8981032110                                                                                                                                                                                                                                                                                                                                                    
00052120D1000052009007              201111110821TFR86JEQN4 LA                                       898103213089810321008981032110                    8981032601                                        8981032462                                        8981032402                                        89816356708981032721                              8981032721                                        8981032601898103246289810324028981635670          8981446270                                        8981446280                                        898144627089814462808981033001                    8981446231                                        8981446241                                        8981033001                                        8981032130                                        8981032100                                        8981032110                                                                                                                                                                                                                                                                                                                                                    
00053120D1000053009008              201111110822TFR86JEQH5 LA                                       898103213089810321008981032110                    8981032601                                        8981032462                                        8981032402                                        89816356708981032721                              8981032721                                        8981032601898103246289810324028981635670          8981446250                                        8981446260                                        898144625089814462608981033001                    8981446211                                        8981446221                                        8981033001                                        8981032130                                        8981032100                                        8981032110                                                                                                                                                                                                                                                                                                                                                    
00054120D1000054009009              201111110823TFR86JERH6 LA                                       898103213089810321008981032110                    8981032601                                        8981032462                                        8981032402                                        89816356708981032721                              8981032721                                        8981032601898103246289810324028981635670          8981446250                                        8981446260                                        898144625089814462608981033001                    8981446211                                        8981446221                                        8981033001                                        8981032130                                        8981032100                                        8981032110                                                                                                                                                                                                                                                                                                                                                    
00055120D1000055009010              201111110824TFR85JEQH6 LA                                       898103213089810321008981032110                    8981032601                                        8981032462                                        8981032402                                        89816356708981032721                              8981032721                                        8981032601898103246289810324028981635670          8981446250                                        8981446260                                        898144625089814462608981033001                    8981446211                                        8981446221                                        8981033001                                        8981032130                                        8981032100                                        8981032110                                                                                                                                                                                                                                                                                                                                                    
00056120D1000056009011              201111110825TFS85JCQH6 UA                                       898103213089810321008981032110                    8981515760                                        8981608240                                        8981608320                                        89816356908981032731                              8981032731                                        8981515760898160824089816083208981635690          8981032861                                        8981032961                                        898103286189810329618981033011                    8981044242                                        8981044222                                        8981033011                                        8981032130                                        8981032100                                        8981032110                                                                                                                                                                                                                                                                                                                                                    
00057120D1000057009012              201111110826TFR86JCQN6 UA                                       898103213089810321008981032110                    8981515760                                        8981608240                                        8981608320                                        89816356908981032731                              8981032731                                        8981515760898160824089816083208981635690          8981032841                                        8981032921                                        898103284189810329218981033011                    8981044152                                        8981044122                                        8981033011                                        8981032130                                        8981032100                                        8981032110                                                                                                                                                                                                                                                                                                                                                    
00058120D1000058009013              201111110827TFR86JEMN2 LA                                       898103213089810321008981032110                    8981032601                                        8981032462                                        8981032432                                        89816356608981032721                              8981032721                                        8981032601898103246289810324328981635660          8981446270                                        8981446280                                        898144627089814462808981033001                    8981446231                                        8981446241                                        8981033001                                        8981032130                                        8981032100                                        8981032110                                                                                                                                                                                                                                                                                                                                                    
00059120D1000059009014              201111110828TFR86JEQN4 LA                                       898103213089810321008981032110                    8981032601                                        8981032462                                        8981032402                                        89816356708981032721                              8981032721                                        8981032601898103246289810324028981635670          8981446270                                        8981446280                                        898144627089814462808981033001                    8981446231                                        8981446241                                        8981033001                                        8981032130                                        8981032100                                        8981032110                                                                                                                                                                                                                                                                                                                                                    
00060120D1000060009015              201111110829TFR86JEQH5 LA                                       898103213089810321008981032110                    8981032601                                        8981032462                                        8981032402                                        89816356708981032721                              8981032721                                        8981032601898103246289810324028981635670          8981446250                                        8981446260                                        898144625089814462608981033001                    8981446211                                        8981446221                                        8981033001                                        8981032130                                        8981032100                                        8981032110                                                                                                                                                                                                                                                                                                                                                    
00061120E1000061009001              201111110830TFR86JERH6 LA                                       898103213089810321008981032110                    8981032601                                        8981032462                                        8981032402                                        89816356708981032721                              8981032721                                        8981032601898103246289810324028981635670          8981446250                                        8981446260                                        898144625089814462608981033001                    8981446211                                        8981446221                                        8981033001                                        8981032130                                        8981032100                                        8981032110                                                                                                                                                                                                                                                                                                                                                    
00062120E1000062009002              201111110831TFR85JEQH6 LA                                       898103213089810321008981032110                    8981032601                                        8981032462                                        8981032402                                        89816356708981032721                              8981032721                                        8981032601898103246289810324028981635670          8981446250                                        8981446260                                        898144625089814462608981033001                    8981446211                                        8981446221                                        8981033001                                        8981032130                                        8981032100                                        8981032110                                                                                                                                                                                                                                                                                                                                                    
00063120E1000063009003              201111110832TFS85JCQH6 UA                                       898103213089810321008981032110                    8981515760                                        8981608240                                        8981608320                                        89816356908981032731                              8981032731                                        8981515760898160824089816083208981635690          8981032861                                        8981032961                                        898103286189810329618981033011                    8981044242                                        8981044222                                        8981033011                                        8981032130                                        8981032100                                        8981032110                                                                                                                                                                                                                                                                                                                                                    
00064120E1000064009004              201111110833TFR86JCQN6 UA                                       898103213089810321008981032110                    8981515760                                        8981608240                                        8981608320                                        89816356908981032731                              8981032731                                        8981515760898160824089816083208981635690          8981032841                                        8981032921                                        898103284189810329218981033011                    8981044152                                        8981044122                                        8981033011                                        8981032130                                        8981032100                                        8981032110                                                                                                                                                                                                                                                                                                                                                    
00065120E1000065009005              201111110834TFR86JEMN2 LA                                       898103213089810321008981032110                    8981032601                                        8981032462                                        8981032432                                        89816356608981032721                              8981032721                                        8981032601898103246289810324328981635660          8981446270                                        8981446280                                        898144627089814462808981033001                    8981446231                                        8981446241                                        8981033001                                        8981032130                                        8981032100                                        8981032110                                                                                                                                                                                                                                                                                                                                                    
00066120E1000066009006              201111110835TFR86JEQN4 LA                                       898103213089810321008981032110                    8981032601                                        8981032462                                        8981032402                                        89816356708981032721                              8981032721                                        8981032601898103246289810324028981635670          8981446270                                        8981446280                                        898144627089814462808981033001                    8981446231                                        8981446241                                        8981033001                                        8981032130                                        8981032100                                        8981032110                                                                                                                                                                                                                                                                                                                                                    
00067120E1000067009007              201111110836TFR86JEQH5 LA                                       898103213089810321008981032110                    8981032601                                        8981032462                                        8981032402                                        89816356708981032721                              8981032721                                        8981032601898103246289810324028981635670          8981446250                                        8981446260                                        898144625089814462608981033001                    8981446211                                        8981446221                                        8981033001                                        8981032130                                        8981032100                                        8981032110                                                                                                                                                                                                                                                                                                                                                    
00068120E1000068009008              201111110837TFR86JERH6 LA                                       898103213089810321008981032110                    8981032601                                        8981032462                                        8981032402                                        89816356708981032721                              8981032721                                        8981032601898103246289810324028981635670          8981446250                                        8981446260                                        898144625089814462608981033001                    8981446211                                        8981446221                                        8981033001                                        8981032130                                        8981032100                                        8981032110                                                                                                                                                                                                                                                                                                                                                    
00069120E1000069009009              201111110838TFR85JEQH6 LA                                       898103213089810321008981032110                    8981032601                                        8981032462                                        8981032402                                        89816356708981032721                              8981032721                                        8981032601898103246289810324028981635670          8981446250                                        8981446260                                        898144625089814462608981033001                    8981446211                                        8981446221                                        8981033001                                        8981032130                                        8981032100                                        8981032110                                                                                                                                                                                                                                                                                                                                                    
00070120E1000070009010              201111110839TFS85JCQH6 UA                                       898103213089810321008981032110                    8981515760                                        8981608240                                        8981608320                                        89816356908981032731                              8981032731                                        8981515760898160824089816083208981635690          8981032861                                        8981032961                                        898103286189810329618981033011                    8981044242                                        8981044222                                        8981033011                                        8981032130                                        8981032100                                        8981032110                                                                                                                                                                                                                                                                                                                                                    
00071120E1000071009011              201111110840TFR86JCQN6 UA                                       898103213089810321008981032110                    8981515760                                        8981608240                                        8981608320                                        89816356908981032731                              8981032731                                        8981515760898160824089816083208981635690          8981032841                                        8981032921                                        898103284189810329218981033011                    8981044152                                        8981044122                                        8981033011                                        8981032130                                        8981032100                                        8981032110                                                                                                                                                                                                                                                                                                                                                    
00072120E1000072009012              201111110841TFR86JEMN2 LA                                       898103213089810321008981032110                    8981032601                                        8981032462                                        8981032432                                        89816356608981032721                              8981032721                                        8981032601898103246289810324328981635660          8981446270                                        8981446280                                        898144627089814462808981033001                    8981446231                                        8981446241                                        8981033001                                        8981032130                                        8981032100                                        8981032110                                                                                                                                                                                                                                                                                                                                                    
00073120E1000073009013              201111110842TFR86JEQN4 LA                                       898103213089810321008981032110                    8981032601                                        8981032462                                        8981032402                                        89816356708981032721                              8981032721                                        8981032601898103246289810324028981635670          8981446270                                        8981446280                                        898144627089814462808981033001                    8981446231                                        8981446241                                        8981033001                                        8981032130                                        8981032100                                        8981032110                                                                                                                                                                                                                                                                                                                                                    
00074120E1000074009014              201111110843TFR86JEQH5 LA                                       898103213089810321008981032110                    8981032601                                        8981032462                                        8981032402                                        89816356708981032721                              8981032721                                        8981032601898103246289810324028981635670          8981446250                                        8981446260                                        898144625089814462608981033001                    8981446211                                        8981446221                                        8981033001                                        8981032130                                        8981032100                                        8981032110                                                                                                                                                                                                                                                                                                                                                    
00075120E1000075009015              201111110844TFR86JERH6 LA                                       898103213089810321008981032110                    8981032601                                        8981032462                                        8981032402                                        89816356708981032721                              8981032721                                        8981032601898103246289810324028981635670          8981446250                                        8981446260                                        898144625089814462608981033001                    8981446211                                        8981446221                                        8981033001                                        8981032130                                        8981032100                                        8981032110                                                                                                                                                                                                                                                                                                                                                    
00076120B1000076009016              201111110845TFR85JEQH6 LA                                       898103213089810321008981032110                    8981032601                                        8981032462                                        8981032402                                        89816356708981032721                              8981032721                                        8981032601898103246289810324028981635670          8981446250                                        8981446260                                        898144625089814462608981033001                    8981446211                                        8981446221                                        8981033001                                        8981032130                                        8981032100                                        8981032110                                                                                                                                                                                                                                                                                                                                                    
00077120B1000077009017              201111110846TFS85JCQH6 UA                                       898103213089810321008981032110                    8981515760                                        8981608240                                        8981608320                                        89816356908981032731                              8981032731                                        8981515760898160824089816083208981635690          8981032861                                        8981032961                                        898103286189810329618981033011                    8981044242                                        8981044222                                        8981033011                                        8981032130                                        8981032100                                        8981032110                                                                                                                                                                                                                                                                                                                                                    
00078120B1000078009018              201111110847TFR86JCQN6 UA                                       898103213089810321008981032110                    8981515760                                        8981608240                                        8981608320                                        89816356908981032731                              8981032731                                        8981515760898160824089816083208981635690          8981032841                                        8981032921                                        898103284189810329218981033011                    8981044152                                        8981044122                                        8981033011                                        8981032130                                        8981032100                                        8981032110                                                                                                                                                                                                                                                                                                                                                    
00079120B1000079009019              201111110848TFR86JEMN2 LA                                       898103213089810321008981032110                    8981032601                                        8981032462                                        8981032432                                        89816356608981032721                              8981032721                                        8981032601898103246289810324328981635660          8981446270                                        8981446280                                        898144627089814462808981033001                    8981446231                                        8981446241                                        8981033001                                        8981032130                                        8981032100                                        8981032110                                                                                                                                                                                                                                                                                                                                                    
00080120B1000080009020              201111110849TFR86JEQN4 LA                                       898103213089810321008981032110                    8981032601                                        8981032462                                        8981032402                                        89816356708981032721                              8981032721                                        8981032601898103246289810324028981635670          8981446270                                        8981446280                                        898144627089814462808981033001                    8981446231                                        8981446241                                        8981033001                                        8981032130                                        8981032100                                        8981032110                                                                                                                                                                                                                                                                                                                                                    
00081120B1000081009021              201111110850TFR86JEQH5 LA                                       898103213089810321008981032110                    8981032601                                        8981032462                                        8981032402                                        89816356708981032721                              8981032721                                        8981032601898103246289810324028981635670          8981446250                                        8981446260                                        898144625089814462608981033001                    8981446211                                        8981446221                                        8981033001                                        8981032130                                        8981032100                                        8981032110                                                                                                                                                                                                                                                                                                                                                    
00082120B1000082009022              201111110851TFR86JERH6 LA                                       898103213089810321008981032110                    8981032601                                        8981032462                                        8981032402                                        89816356708981032721                              8981032721                                        8981032601898103246289810324028981635670          8981446250                                        8981446260                                        898144625089814462608981033001                    8981446211                                        8981446221                                        8981033001                                        8981032130                                        8981032100                                        8981032110                                                                                                                                                                                                                                                                                                                                                    
