HEADERRT50 BODY         201010071127290120000000                                                                                                                                                                                                                                                                                                                                                                                                                                                                                                                                                                                                                                                                                                                                                                                                                                                                                                                                                                                                                                                                                                                                                                                                
00001120A1000001010001              201111120730TFR86JCQ-R UA                                       898103213089810321008981032110                    8981515760                                        8981608240                                        8981608320                                        89816356908981032731                              8981032731                                        8981515760898160824089816083208981635690          8981032841                                        8981032921                                        898103284189810329218981033011                    8981044152                                        8981044122                                        8981033011                                        8981032130                                        8981032100                                        8981032110                                                                                                                                                                                                                                                                                                                                                    
00002120A1000002010002              201111120731TFR86JVMN11LA                                       898103213089810321008981032110                    8981032531                                        8981608170                                        8981608300                                        89810321608981032711                              8981032711                                        8981032531898160817089816083008981032160                                                                                                                                                                                                                                                                                                                      8981032130                                        8981032100                                        8981032110                                                                                                                                                                                                                                                                                                                                                    
00003120A1000003010003              201111120732TFR86JEQ-R LA                                       898103213089810321008981032110                    8981032601                                        8981032462                                        8981032402                                        89816356708981032721                              8981032721                                        8981032601898103246289810324028981635670          8981446270                                        8981446280                                        898144627089814462808981033001                    8981446231                                        8981446241                                        8981033001                                        8981032130                                        8981032100                                        8981032110                                                                                                                                                                                                                                                                                                                                                    
00004120A1000004010004              201111120733TFR86JEQ-R LA                                       898103213089810321008981032110                    8981032601                                        8981032462                                        8981032402                                        89816356708981032721                              8981032721                                        8981032601898103246289810324028981635670          8981446250                                        8981446260                                        898144625089814462608981033001                    8981446211                                        8981446221                                        8981033001                                        8981032130                                        8981032100                                        8981032110                                                                                                                                                                                                                                                                                                                                                    
00005120A1000005010005              201111120734TFR86JER-R LA                                       898103213089810321008981032110                    8981032601                                        8981032462                                        8981032402                                        89816356708981032721                              8981032721                                        8981032601898103246289810324028981635670          8981446250                                        8981446260                                        898144625089814462608981033001                    8981446211                                        8981446221                                        8981033001                                        8981032130                                        8981032100                                        8981032110                                                                                                                                                                                                                                                                                                                                                    
00006120A1000006010006              201111120735TFR86JVMN11LA                                       898103213089810321008981032110                    8981032531                                        8981608170                                        8981608300                                        89810321608981032711                              8981032711                                        8981032531898160817089816083008981032160                                                                                                                                                                                                                                                                                                                      8981032130                                        8981032100                                        8981032110                                                                                                                                                                                                                                                                                                                                                    
00007120A1000007010007              201111120736TFS85JCQ-R UA                                       898103213089810321008981032110                    8981515760                                        8981608240                                        8981608320                                        89816356908981032731                              8981032731                                        8981515760898160824089816083208981635690          8981032861                                        8981032961                                        898103286189810329618981033011                    8981044242                                        8981044222                                        8981033011                                        8981032130                                        8981032100                                        8981032110                                                                                                                                                                                                                                                                                                                                                    
00008120A1000008010008              201111120737TFR86JCQ-R1UA                                       898103213089810321008981032110                    8981515760                                        8981608240                                        8981608320                                        89816356908981032731                              8981032731                                        8981515760898160824089816083208981635690          8981032841                                        8981032921                                        898103284189810329218981033011                    8981044152                                        8981044122                                        8981033011                                        8981032130                                        8981032100                                        8981032110                                                                                                                                                                                                                                                                                                                                                    
00009120A1000009010009              201111120738TFR86JVMN11LA                                       898103213089810321008981032110                    8981032531                                        8981608170                                        8981608300                                        89810321608981032711                              8981032711                                        8981032531898160817089816083008981032160                                                                                                                                                                                                                                                                                                                      8981032130                                        8981032100                                        8981032110                                                                                                                                                                                                                                                                                                                                                    
00010120A1000010010010              201111120739TFR86JVMN11LA                                       898103213089810321008981032110                    8981032531                                        8981608170                                        8981608300                                        89810321608981032711                              8981032711                                        8981032531898160817089816083008981032160                                                                                                                                                                                                                                                                                                                      8981032130                                        8981032100                                        8981032110                                                                                                                                                                                                                                                                                                                                                    
00011120A1000011010011              201111120740TFR86JEQ-R LA                                       898103213089810321008981032110                    8981032601                                        8981032462                                        8981032402                                        89816356708981032721                              8981032721                                        8981032601898103246289810324028981635670          8981446250                                        8981446260                                        898144625089814462608981033001                    8981446211                                        8981446221                                        8981033001                                        8981032130                                        8981032100                                        8981032110                                                                                                                                                                                                                                                                                                                                                    
00012120A1000012010012              201111120741TFR86JVMN11LA                                       898103213089810321008981032110                    8981032531                                        8981608170                                        8981608300                                        89810321608981032711                              8981032711                                        8981032531898160817089816083008981032160                                                                                                                                                                                                                                                                                                                      8981032130                                        8981032100                                        8981032110                                                                                                                                                                                                                                                                                                                                                    
00013120A1000013010013              201111120742TFR85JEQ-R LA                                       898103213089810321008981032110                    8981032601                                        8981032462                                        8981032402                                        89816356708981032721                              8981032721                                        8981032601898103246289810324028981635670          8981446250                                        8981446260                                        898144625089814462608981033001                    8981446211                                        8981446221                                        8981033001                                        8981032130                                        8981032100                                        8981032110                                                                                                                                                                                                                                                                                                                                                    
00014120A1000014010014              201111120743TFR86JVMN11LA                                       898103213089810321008981032110                    8981032531                                        8981608170                                        8981608300                                        89810321608981032711                              8981032711                                        8981032531898160817089816083008981032160                                                                                                                                                                                                                                                                                                                      8981032130                                        8981032100                                        8981032110                                                                                                                                                                                                                                                                                                                                                    
00015120A1000015010015              201111120744TFR86JVMN11LA                                       898103213089810321008981032110                    8981032531                                        8981608170                                        8981608300                                        89810321608981032711                              8981032711                                        8981032531898160817089816083008981032160                                                                                                                                                                                                                                                                                                                      8981032130                                        8981032100                                        8981032110                                                                                                                                                                                                                                                                                                                                                    
00016120B1000016010001              201111120745TFR86JEMN2 LA                                       898103213089810321008981032110                    8981032601                                        8981032462                                        8981032432                                        89816356608981032721                              8981032721                                        8981032601898103246289810324328981635660          8981446270                                        8981446280                                        898144627089814462808981033001                    8981446231                                        8981446241                                        8981033001                                        8981032130                                        8981032100                                        8981032110                                                                                                                                                                                                                                                                                                                                                    
00017120B1000017010002              201111120746TFR86JEQN4 LA                                       898103213089810321008981032110                    8981032601                                        8981032462                                        8981032402                                        89816356708981032721                              8981032721                                        8981032601898103246289810324028981635670          8981446270                                        8981446280                                        898144627089814462808981033001                    8981446231                                        8981446241                                        8981033001                                        8981032130                                        8981032100                                        8981032110                                                                                                                                                                                                                                                                                                                                                    
00018120B1000018010003              201111120747TFR86JEQH5 LA                                       898103213089810321008981032110                    8981032601                                        8981032462                                        8981032402                                        89816356708981032721                              8981032721                                        8981032601898103246289810324028981635670          8981446250                                        8981446260                                        898144625089814462608981033001                    8981446211                                        8981446221                                        8981033001                                        8981032130                                        8981032100                                        8981032110                                                                                                                                                                                                                                                                                                                                                    
00019120B1000019010004              201111120748TFR86JERH6 LA                                       898103213089810321008981032110                    8981032601                                        8981032462                                        8981032402                                        89816356708981032721                              8981032721                                        8981032601898103246289810324028981635670          8981446250                                        8981446260                                        898144625089814462608981033001                    8981446211                                        8981446221                                        8981033001                                        8981032130                                        8981032100                                        8981032110                                                                                                                                                                                                                                                                                                                                                    
00020120B1000020010005              201111120749TFR85JEQH6 LA                                       898103213089810321008981032110                    8981032601                                        8981032462                                        8981032402                                        89816356708981032721                              8981032721                                        8981032601898103246289810324028981635670          8981446250                                        8981446260                                        898144625089814462608981033001                    8981446211                                        8981446221                                        8981033001                                        8981032130                                        8981032100                                        8981032110                                                                                                                                                                                                                                                                                                                                                    
00021120B1000021010006              201111120750TFS85JCQH6 UA                                       898103213089810321008981032110                    8981515760                                        8981608240                                        8981608320                                        89816356908981032731                              8981032731                                        8981515760898160824089816083208981635690          8981032861                                        8981032961                                        898103286189810329618981033011                    8981044242                                        8981044222                                        8981033011                                        8981032130                                        8981032100                                        8981032110                                                                                                                                                                                                                                                                                                                                                    
00022120B1000022010007              201111120751TFR86JCQN6 UA                                       898103213089810321008981032110                    8981515760                                        8981608240                                        8981608320                                        89816356908981032731                              8981032731                                        8981515760898160824089816083208981635690          8981032841                                        8981032921                                        898103284189810329218981033011                    8981044152                                        8981044122                                        8981033011                                        8981032130                                        8981032100                                        8981032110                                                                                                                                                                                                                                                                                                                                                    
00023120B1000023010008              201111120752TFR86JEMN2 LA                                       898103213089810321008981032110                    8981032601                                        8981032462                                        8981032432                                        89816356608981032721                              8981032721                                        8981032601898103246289810324328981635660          8981446270                                        8981446280                                        898144627089814462808981033001                    8981446231                                        8981446241                                        8981033001                                        8981032130                                        8981032100                                        8981032110                                                                                                                                                                                                                                                                                                                                                    
00024120B1000024010009              201111120753TFR86JEQN4 LA                                       898103213089810321008981032110                    8981032601                                        8981032462                                        8981032402                                        89816356708981032721                              8981032721                                        8981032601898103246289810324028981635670          8981446270                                        8981446280                                        898144627089814462808981033001                    8981446231                                        8981446241                                        8981033001                                        8981032130                                        8981032100                                        8981032110                                                                                                                                                                                                                                                                                                                                                    
00025120B1000025010010              201111120754TFR86JEQH5 LA                                       898103213089810321008981032110                    8981032601                                        8981032462                                        8981032402                                        89816356708981032721                              8981032721                                        8981032601898103246289810324028981635670          8981446250                                        8981446260                                        898144625089814462608981033001                    8981446211                                        8981446221                                        8981033001                                        8981032130                                        8981032100                                        8981032110                                                                                                                                                                                                                                                                                                                                                    
00026120B1000026010011              201111120755TFR86JERH6 LA                                       898103213089810321008981032110                    8981032601                                        8981032462                                        8981032402                                        89816356708981032721                              8981032721                                        8981032601898103246289810324028981635670          8981446250                                        8981446260                                        898144625089814462608981033001                    8981446211                                        8981446221                                        8981033001                                        8981032130                                        8981032100                                        8981032110                                                                                                                                                                                                                                                                                                                                                    
00027120B1000027010012              201111120756TFR85JEQH6 LA                                       898103213089810321008981032110                    8981032601                                        8981032462                                        8981032402                                        89816356708981032721                              8981032721                                        8981032601898103246289810324028981635670          8981446250                                        8981446260                                        898144625089814462608981033001                    8981446211                                        8981446221                                        8981033001                                        8981032130                                        8981032100                                        8981032110                                                                                                                                                                                                                                                                                                                                                    
00028120B1000028010013              201111120757TFS85JCQH6 UA                                       898103213089810321008981032110                    8981515760                                        8981608240                                        8981608320                                        89816356908981032731                              8981032731                                        8981515760898160824089816083208981635690          8981032861                                        8981032961                                        898103286189810329618981033011                    8981044242                                        8981044222                                        8981033011                                        8981032130                                        8981032100                                        8981032110                                                                                                                                                                                                                                                                                                                                                    
00029120B1000029010014              201111120758TFR86JCQN6 UA                                       898103213089810321008981032110                    8981515760                                        8981608240                                        8981608320                                        89816356908981032731                              8981032731                                        8981515760898160824089816083208981635690          8981032841                                        8981032921                                        898103284189810329218981033011                    8981044152                                        8981044122                                        8981033011                                        8981032130                                        8981032100                                        8981032110                                                                                                                                                                                                                                                                                                                                                    
00030120B1000030010015              201111120759TFR86JEMN2 LA                                       898103213089810321008981032110                    8981032601                                        8981032462                                        8981032432                                        89816356608981032721                              8981032721                                        8981032601898103246289810324328981635660          8981446270                                        8981446280                                        898144627089814462808981033001                    8981446231                                        8981446241                                        8981033001                                        8981032130                                        8981032100                                        8981032110                                                                                                                                                                                                                                                                                                                                                    
00031120A1000031010016              201111120800TFR86JEQN4 LA                                       898103213089810321008981032110                    8981032601                                        8981032462                                        8981032402                                        89816356708981032721                              8981032721                                        8981032601898103246289810324028981635670          8981446270                                        8981446280                                        898144627089814462808981033001                    8981446231                                        8981446241                                        8981033001                                        8981032130                                        8981032100                                        8981032110                                                                                                                                                                                                                                                                                                                                                    
00032120A1000032010017              201111120801TFR86JEQH5 LA                                       898103213089810321008981032110                    8981032601                                        8981032462                                        8981032402                                        89816356708981032721                              8981032721                                        8981032601898103246289810324028981635670          8981446250                                        8981446260                                        898144625089814462608981033001                    8981446211                                        8981446221                                        8981033001                                        8981032130                                        8981032100                                        8981032110                                                                                                                                                                                                                                                                                                                                                    
00033120A1000033010018              201111120802TFR86JERH6 LA                                       898103213089810321008981032110                    8981032601                                        8981032462                                        8981032402                                        89816356708981032721                              8981032721                                        8981032601898103246289810324028981635670          8981446250                                        8981446260                                        898144625089814462608981033001                    8981446211                                        8981446221                                        8981033001                                        8981032130                                        8981032100                                        8981032110                                                                                                                                                                                                                                                                                                                                                    
00034120A1000034010019              201111120803TFR85JEQH6 LA                                       898103213089810321008981032110                    8981032601                                        8981032462                                        8981032402                                        89816356708981032721                              8981032721                                        8981032601898103246289810324028981635670          8981446250                                        8981446260                                        898144625089814462608981033001                    8981446211                                        8981446221                                        8981033001                                        8981032130                                        8981032100                                        8981032110                                                                                                                                                                                                                                                                                                                                                    
00035120A1000035010020              201111120804TFS85JCQH6 UA                                       898103213089810321008981032110                    8981515760                                        8981608240                                        8981608320                                        89816356908981032731                              8981032731                                        8981515760898160824089816083208981635690          8981032861                                        8981032961                                        898103286189810329618981033011                    8981044242                                        8981044222                                        8981033011                                        8981032130                                        8981032100                                        8981032110                                                                                                                                                                                                                                                                                                                                                    
00036120A1000036010021              201111120805TFR86JCQN6 UA                                       898103213089810321008981032110                    8981515760                                        8981608240                                        8981608320                                        89816356908981032731                              8981032731                                        8981515760898160824089816083208981635690          8981032841                                        8981032921                                        898103284189810329218981033011                    8981044152                                        8981044122                                        8981033011                                        8981032130                                        8981032100                                        8981032110                                                                                                                                                                                                                                                                                                                                                    
00037120A1000037010022              201111120806TFR86JEMN2 LA                                       898103213089810321008981032110                    8981032601                                        8981032462                                        8981032432                                        89816356608981032721                              8981032721                                        8981032601898103246289810324328981635660          8981446270                                        8981446280                                        898144627089814462808981033001                    8981446231                                        8981446241                                        8981033001                                        8981032130                                        8981032100                                        8981032110                                                                                                                                                                                                                                                                                                                                                    
00038120A1000038010023              201111120807TFR86JEQN4 LA                                       898103213089810321008981032110                    8981032601                                        8981032462                                        8981032402                                        89816356708981032721                              8981032721                                        8981032601898103246289810324028981635670          8981446270                                        8981446280                                        898144627089814462808981033001                    8981446231                                        8981446241                                        8981033001                                        8981032130                                        8981032100                                        8981032110                                                                                                                                                                                                                                                                                                                                                    
00039120A1000039010024              201111120808TFR86JEQH5 LA                                       898103213089810321008981032110                    8981032601                                        8981032462                                        8981032402                                        89816356708981032721                              8981032721                                        8981032601898103246289810324028981635670          8981446250                                        8981446260                                        898144625089814462608981033001                    8981446211                                        8981446221                                        8981033001                                        8981032130                                        8981032100                                        8981032110                                                                                                                                                                                                                                                                                                                                                    
00040120A1000040010025              201111120809TFR86JERH6 LA                                       898103213089810321008981032110                    8981032601                                        8981032462                                        8981032402                                        89816356708981032721                              8981032721                                        8981032601898103246289810324028981635670          8981446250                                        8981446260                                        898144625089814462608981033001                    8981446211                                        8981446221                                        8981033001                                        8981032130                                        8981032100                                        8981032110                                                                                                                                                                                                                                                                                                                                                    
00041120A1000041010026              201111120810TFR85JEQH6 LA                                       898103213089810321008981032110                    8981032601                                        8981032462                                        8981032402                                        89816356708981032721                              8981032721                                        8981032601898103246289810324028981635670          8981446250                                        8981446260                                        898144625089814462608981033001                    8981446211                                        8981446221                                        8981033001                                        8981032130                                        8981032100                                        8981032110                                                                                                                                                                                                                                                                                                                                                    
00042120A1000042010027              201111120811TFS85JCQH6 UA                                       898103213089810321008981032110                    8981515760                                        8981608240                                        8981608320                                        89816356908981032731                              8981032731                                        8981515760898160824089816083208981635690          8981032861                                        8981032961                                        898103286189810329618981033011                    8981044242                                        8981044222                                        8981033011                                        8981032130                                        8981032100                                        8981032110                                                                                                                                                                                                                                                                                                                                                    
00043120A1000043010028              201111120812TFR86JCQN6 UA                                       898103213089810321008981032110                    8981515760                                        8981608240                                        8981608320                                        89816356908981032731                              8981032731                                        8981515760898160824089816083208981635690          8981032841                                        8981032921                                        898103284189810329218981033011                    8981044152                                        8981044122                                        8981033011                                        8981032130                                        8981032100                                        8981032110                                                                                                                                                                                                                                                                                                                                                    
00044120A1000044010029              201111120813TFR86JEMN2 LA                                       898103213089810321008981032110                    8981032601                                        8981032462                                        8981032432                                        89816356608981032721                              8981032721                                        8981032601898103246289810324328981635660          8981446270                                        8981446280                                        898144627089814462808981033001                    8981446231                                        8981446241                                        8981033001                                        8981032130                                        8981032100                                        8981032110                                                                                                                                                                                                                                                                                                                                                    
00045120A1000045010030              201111120814TFR86JEQN4 LA                                       898103213089810321008981032110                    8981032601                                        8981032462                                        8981032402                                        89816356708981032721                              8981032721                                        8981032601898103246289810324028981635670          8981446270                                        8981446280                                        898144627089814462808981033001                    8981446231                                        8981446241                                        8981033001                                        8981032130                                        8981032100                                        8981032110                                                                                                                                                                                                                                                                                                                                                    
00046120D1000046010001              201111120815TFR86JEQH5 LA                                       898103213089810321008981032110                    8981032601                                        8981032462                                        8981032402                                        89816356708981032721                              8981032721                                        8981032601898103246289810324028981635670          8981446250                                        8981446260                                        898144625089814462608981033001                    8981446211                                        8981446221                                        8981033001                                        8981032130                                        8981032100                                        8981032110                                                                                                                                                                                                                                                                                                                                                    
00047120D1000047010002              201111120816TFR86JERH6 LA                                       898103213089810321008981032110                    8981032601                                        8981032462                                        8981032402                                        89816356708981032721                              8981032721                                        8981032601898103246289810324028981635670          8981446250                                        8981446260                                        898144625089814462608981033001                    8981446211                                        8981446221                                        8981033001                                        8981032130                                        8981032100                                        8981032110                                                                                                                                                                                                                                                                                                                                                    
00048120D1000048010003              201111120817TFR85JEQH6 LA                                       898103213089810321008981032110                    8981032601                                        8981032462                                        8981032402                                        89816356708981032721                              8981032721                                        8981032601898103246289810324028981635670          8981446250                                        8981446260                                        898144625089814462608981033001                    8981446211                                        8981446221                                        8981033001                                        8981032130                                        8981032100                                        8981032110                                                                                                                                                                                                                                                                                                                                                    
00049120D1000049010004              201111120818TFS85JCQH6 UA                                       898103213089810321008981032110                    8981515760                                        8981608240                                        8981608320                                        89816356908981032731                              8981032731                                        8981515760898160824089816083208981635690          8981032861                                        8981032961                                        898103286189810329618981033011                    8981044242                                        8981044222                                        8981033011                                        8981032130                                        8981032100                                        8981032110                                                                                                                                                                                                                                                                                                                                                    
00050120D1000050010005              201111120819TFR86JCQN6 UA                                       898103213089810321008981032110                    8981515760                                        8981608240                                        8981608320                                        89816356908981032731                              8981032731                                        8981515760898160824089816083208981635690          8981032841                                        8981032921                                        898103284189810329218981033011                    8981044152                                        8981044122                                        8981033011                                        8981032130                                        8981032100                                        8981032110                                                                                                                                                                                                                                                                                                                                                    
00051120D1000051010006              201111120820TFR86JEMN2 LA                                       898103213089810321008981032110                    8981032601                                        8981032462                                        8981032432                                        89816356608981032721                              8981032721                                        8981032601898103246289810324328981635660          8981446270                                        8981446280                                        898144627089814462808981033001                    8981446231                                        8981446241                                        8981033001                                        8981032130                                        8981032100                                        8981032110                                                                                                                                                                                                                                                                                                                                                    
00052120D1000052010007              201111120821TFR86JEQN4 LA                                       898103213089810321008981032110                    8981032601                                        8981032462                                        8981032402                                        89816356708981032721                              8981032721                                        8981032601898103246289810324028981635670          8981446270                                        8981446280                                        898144627089814462808981033001                    8981446231                                        8981446241                                        8981033001                                        8981032130                                        8981032100                                        8981032110                                                                                                                                                                                                                                                                                                                                                    
00053120D1000053010008              201111120822TFR86JEQH5 LA                                       898103213089810321008981032110                    8981032601                                        8981032462                                        8981032402                                        89816356708981032721                              8981032721                                        8981032601898103246289810324028981635670          8981446250                                        8981446260                                        898144625089814462608981033001                    8981446211                                        8981446221                                        8981033001                                        8981032130                                        8981032100                                        8981032110                                                                                                                                                                                                                                                                                                                                                    
00054120D1000054010009              201111120823TFR86JERH6 LA                                       898103213089810321008981032110                    8981032601                                        8981032462                                        8981032402                                        89816356708981032721                              8981032721                                        8981032601898103246289810324028981635670          8981446250                                        8981446260                                        898144625089814462608981033001                    8981446211                                        8981446221                                        8981033001                                        8981032130                                        8981032100                                        8981032110                                                                                                                                                                                                                                                                                                                                                    
00055120D1000055010010              201111120824TFR85JEQH6 LA                                       898103213089810321008981032110                    8981032601                                        8981032462                                        8981032402                                        89816356708981032721                              8981032721                                        8981032601898103246289810324028981635670          8981446250                                        8981446260                                        898144625089814462608981033001                    8981446211                                        8981446221                                        8981033001                                        8981032130                                        8981032100                                        8981032110                                                                                                                                                                                                                                                                                                                                                    
00056120D1000056010011              201111120825TFS85JCQH6 UA                                       898103213089810321008981032110                    8981515760                                        8981608240                                        8981608320                                        89816356908981032731                              8981032731                                        8981515760898160824089816083208981635690          8981032861                                        8981032961                                        898103286189810329618981033011                    8981044242                                        8981044222                                        8981033011                                        8981032130                                        8981032100                                        8981032110                                                                                                                                                                                                                                                                                                                                                    
00057120D1000057010012              201111120826TFR86JCQN6 UA                                       898103213089810321008981032110                    8981515760                                        8981608240                                        8981608320                                        89816356908981032731                              8981032731                                        8981515760898160824089816083208981635690          8981032841                                        8981032921                                        898103284189810329218981033011                    8981044152                                        8981044122                                        8981033011                                        8981032130                                        8981032100                                        8981032110                                                                                                                                                                                                                                                                                                                                                    
00058120D1000058010013              201111120827TFR86JEMN2 LA                                       898103213089810321008981032110                    8981032601                                        8981032462                                        8981032432                                        89816356608981032721                              8981032721                                        8981032601898103246289810324328981635660          8981446270                                        8981446280                                        898144627089814462808981033001                    8981446231                                        8981446241                                        8981033001                                        8981032130                                        8981032100                                        8981032110                                                                                                                                                                                                                                                                                                                                                    
00059120D1000059010014              201111120828TFR86JEQN4 LA                                       898103213089810321008981032110                    8981032601                                        8981032462                                        8981032402                                        89816356708981032721                              8981032721                                        8981032601898103246289810324028981635670          8981446270                                        8981446280                                        898144627089814462808981033001                    8981446231                                        8981446241                                        8981033001                                        8981032130                                        8981032100                                        8981032110                                                                                                                                                                                                                                                                                                                                                    
00060120D1000060010015              201111120829TFR86JEQH5 LA                                       898103213089810321008981032110                    8981032601                                        8981032462                                        8981032402                                        89816356708981032721                              8981032721                                        8981032601898103246289810324028981635670          8981446250                                        8981446260                                        898144625089814462608981033001                    8981446211                                        8981446221                                        8981033001                                        8981032130                                        8981032100                                        8981032110                                                                                                                                                                                                                                                                                                                                                    
00061120E1000061010001              201111120830TFR86JERH6 LA                                       898103213089810321008981032110                    8981032601                                        8981032462                                        8981032402                                        89816356708981032721                              8981032721                                        8981032601898103246289810324028981635670          8981446250                                        8981446260                                        898144625089814462608981033001                    8981446211                                        8981446221                                        8981033001                                        8981032130                                        8981032100                                        8981032110                                                                                                                                                                                                                                                                                                                                                    
00062120E1000062010002              201111120831TFR85JEQH6 LA                                       898103213089810321008981032110                    8981032601                                        8981032462                                        8981032402                                        89816356708981032721                              8981032721                                        8981032601898103246289810324028981635670          8981446250                                        8981446260                                        898144625089814462608981033001                    8981446211                                        8981446221                                        8981033001                                        8981032130                                        8981032100                                        8981032110                                                                                                                                                                                                                                                                                                                                                    
00063120E1000063010003              201111120832TFS85JCQH6 UA                                       898103213089810321008981032110                    8981515760                                        8981608240                                        8981608320                                        89816356908981032731                              8981032731                                        8981515760898160824089816083208981635690          8981032861                                        8981032961                                        898103286189810329618981033011                    8981044242                                        8981044222                                        8981033011                                        8981032130                                        8981032100                                        8981032110                                                                                                                                                                                                                                                                                                                                                    
00064120E1000064010004              201111120833TFR86JCQN6 UA                                       898103213089810321008981032110                    8981515760                                        8981608240                                        8981608320                                        89816356908981032731                              8981032731                                        8981515760898160824089816083208981635690          8981032841                                        8981032921                                        898103284189810329218981033011                    8981044152                                        8981044122                                        8981033011                                        8981032130                                        8981032100                                        8981032110                                                                                                                                                                                                                                                                                                                                                    
00065120E1000065010005              201111120834TFR86JEMN2 LA                                       898103213089810321008981032110                    8981032601                                        8981032462                                        8981032432                                        89816356608981032721                              8981032721                                        8981032601898103246289810324328981635660          8981446270                                        8981446280                                        898144627089814462808981033001                    8981446231                                        8981446241                                        8981033001                                        8981032130                                        8981032100                                        8981032110                                                                                                                                                                                                                                                                                                                                                    
00066120E1000066010006              201111120835TFR86JEQN4 LA                                       898103213089810321008981032110                    8981032601                                        8981032462                                        8981032402                                        89816356708981032721                              8981032721                                        8981032601898103246289810324028981635670          8981446270                                        8981446280                                        898144627089814462808981033001                    8981446231                                        8981446241                                        8981033001                                        8981032130                                        8981032100                                        8981032110                                                                                                                                                                                                                                                                                                                                                    
00067120E1000067010007              201111120836TFR86JEQH5 LA                                       898103213089810321008981032110                    8981032601                                        8981032462                                        8981032402                                        89816356708981032721                              8981032721                                        8981032601898103246289810324028981635670          8981446250                                        8981446260                                        898144625089814462608981033001                    8981446211                                        8981446221                                        8981033001                                        8981032130                                        8981032100                                        8981032110                                                                                                                                                                                                                                                                                                                                                    
00068120E1000068010008              201111120837TFR86JERH6 LA                                       898103213089810321008981032110                    8981032601                                        8981032462                                        8981032402                                        89816356708981032721                              8981032721                                        8981032601898103246289810324028981635670          8981446250                                        8981446260                                        898144625089814462608981033001                    8981446211                                        8981446221                                        8981033001                                        8981032130                                        8981032100                                        8981032110                                                                                                                                                                                                                                                                                                                                                    
00069120E1000069010009              201111120838TFR85JEQH6 LA                                       898103213089810321008981032110                    8981032601                                        8981032462                                        8981032402                                        89816356708981032721                              8981032721                                        8981032601898103246289810324028981635670          8981446250                                        8981446260                                        898144625089814462608981033001                    8981446211                                        8981446221                                        8981033001                                        8981032130                                        8981032100                                        8981032110                                                                                                                                                                                                                                                                                                                                                    
00070120E1000070010010              201111120839TFS85JCQH6 UA                                       898103213089810321008981032110                    8981515760                                        8981608240                                        8981608320                                        89816356908981032731                              8981032731                                        8981515760898160824089816083208981635690          8981032861                                        8981032961                                        898103286189810329618981033011                    8981044242                                        8981044222                                        8981033011                                        8981032130                                        8981032100                                        8981032110                                                                                                                                                                                                                                                                                                                                                    
00071120E1000071010011              201111120840TFR86JCQN6 UA                                       898103213089810321008981032110                    8981515760                                        8981608240                                        8981608320                                        89816356908981032731                              8981032731                                        8981515760898160824089816083208981635690          8981032841                                        8981032921                                        898103284189810329218981033011                    8981044152                                        8981044122                                        8981033011                                        8981032130                                        8981032100                                        8981032110                                                                                                                                                                                                                                                                                                                                                    
00072120E1000072010012              201111120841TFR86JEMN2 LA                                       898103213089810321008981032110                    8981032601                                        8981032462                                        8981032432                                        89816356608981032721                              8981032721                                        8981032601898103246289810324328981635660          8981446270                                        8981446280                                        898144627089814462808981033001                    8981446231                                        8981446241                                        8981033001                                        8981032130                                        8981032100                                        8981032110                                                                                                                                                                                                                                                                                                                                                    
00073120E1000073010013              201111120842TFR86JEQN4 LA                                       898103213089810321008981032110                    8981032601                                        8981032462                                        8981032402                                        89816356708981032721                              8981032721                                        8981032601898103246289810324028981635670          8981446270                                        8981446280                                        898144627089814462808981033001                    8981446231                                        8981446241                                        8981033001                                        8981032130                                        8981032100                                        8981032110                                                                                                                                                                                                                                                                                                                                                    
00074120E1000074010014              201111120843TFR86JEQH5 LA                                       898103213089810321008981032110                    8981032601                                        8981032462                                        8981032402                                        89816356708981032721                              8981032721                                        8981032601898103246289810324028981635670          8981446250                                        8981446260                                        898144625089814462608981033001                    8981446211                                        8981446221                                        8981033001                                        8981032130                                        8981032100                                        8981032110                                                                                                                                                                                                                                                                                                                                                    
00075120E1000075010015              201111120844TFR86JERH6 LA                                       898103213089810321008981032110                    8981032601                                        8981032462                                        8981032402                                        89816356708981032721                              8981032721                                        8981032601898103246289810324028981635670          8981446250                                        8981446260                                        898144625089814462608981033001                    8981446211                                        8981446221                                        8981033001                                        8981032130                                        8981032100                                        8981032110                                                                                                                                                                                                                                                                                                                                                    
00076120B1000076010016              201111120845TFR85JEQH6 LA                                       898103213089810321008981032110                    8981032601                                        8981032462                                        8981032402                                        89816356708981032721                              8981032721                                        8981032601898103246289810324028981635670          8981446250                                        8981446260                                        898144625089814462608981033001                    8981446211                                        8981446221                                        8981033001                                        8981032130                                        8981032100                                        8981032110                                                                                                                                                                                                                                                                                                                                                    
00077120B1000077010017              201111120846TFS85JCQH6 UA                                       898103213089810321008981032110                    8981515760                                        8981608240                                        8981608320                                        89816356908981032731                              8981032731                                        8981515760898160824089816083208981635690          8981032861                                        8981032961                                        898103286189810329618981033011                    8981044242                                        8981044222                                        8981033011                                        8981032130                                        8981032100                                        8981032110                                                                                                                                                                                                                                                                                                                                                    
00078120B1000078010018              201111120847TFR86JCQN6 UA                                       898103213089810321008981032110                    8981515760                                        8981608240                                        8981608320                                        89816356908981032731                              8981032731                                        8981515760898160824089816083208981635690          8981032841                                        8981032921                                        898103284189810329218981033011                    8981044152                                        8981044122                                        8981033011                                        8981032130                                        8981032100                                        8981032110                                                                                                                                                                                                                                                                                                                                                    
00079120B1000079010019              201111120848TFR86JEMN2 LA                                       898103213089810321008981032110                    8981032601                                        8981032462                                        8981032432                                        89816356608981032721                              8981032721                                        8981032601898103246289810324328981635660          8981446270                                        8981446280                                        898144627089814462808981033001                    8981446231                                        8981446241                                        8981033001                                        8981032130                                        8981032100                                        8981032110                                                                                                                                                                                                                                                                                                                                                    
00080120B1000080010020              201111120849TFR86JEQN4 LA                                       898103213089810321008981032110                    8981032601                                        8981032462                                        8981032402                                        89816356708981032721                              8981032721                                        8981032601898103246289810324028981635670          8981446270                                        8981446280                                        898144627089814462808981033001                    8981446231                                        8981446241                                        8981033001                                        8981032130                                        8981032100                                        8981032110                                                                                                                                                                                                                                                                                                                                                    
00081120B1000081010021              201111120850TFR86JEQH5 LA                                       898103213089810321008981032110                    8981032601                                        8981032462                                        8981032402                                        89816356708981032721                              8981032721                                        8981032601898103246289810324028981635670          8981446250                                        8981446260                                        898144625089814462608981033001                    8981446211                                        8981446221                                        8981033001                                        8981032130                                        8981032100                                        8981032110                                                                                                                                                                                                                                                                                                                                                    
00082120B1000082010022              201111120851TFR86JERH6 LA                                       898103213089810321008981032110                    8981032601                                        8981032462                                        8981032402                                        89816356708981032721                              8981032721                                        8981032601898103246289810324028981635670          8981446250                                        8981446260                                        898144625089814462608981033001                    8981446211                                        8981446221                                        8981033001                                        8981032130                                        8981032100                                        8981032110                                                                                                                                                                                                                                                                                                                                                    
