HEADERRT50 BODY         201010071127290120000000                                                                                                                                                                                                                                                                                                                                                                                                                                                                                                                                                                                                                                                                                                                                                                                                                                                                                                                                                                                                                                                                                                                                                                                                
00001120A1000001011001              201111130730TFR86JCQ-R UA                                       898103213089810321008981032110                    8981515760                                        8981608240                                        8981608320                                        89816356908981032731                              8981032731                                        8981515760898160824089816083208981635690          8981032841                                        8981032921                                        898103284189810329218981033011                    8981044152                                        8981044122                                        8981033011                                        8981032130                                        8981032100                                        8981032110                                                                                                                                                                                                                                                                                                                                                    
00002120A1000002011002              201111130731TFR86JVMN11LA                                       898103213089810321008981032110                    8981032531                                        8981608170                                        8981608300                                        89810321608981032711                              8981032711                                        8981032531898160817089816083008981032160                                                                                                                                                                                                                                                                                                                      8981032130                                        8981032100                                        8981032110                                                                                                                                                                                                                                                                                                                                                    
00003120A1000003011003              201111130732TFR86JEQ-R LA                                       898103213089810321008981032110                    8981032601                                        8981032462                                        8981032402                                        89816356708981032721                              8981032721                                        8981032601898103246289810324028981635670          8981446270                                        8981446280                                        898144627089814462808981033001                    8981446231                                        8981446241                                        8981033001                                        8981032130                                        8981032100                                        8981032110                                                                                                                                                                                                                                                                                                                                                    
00004120A1000004011004              201111130733TFR86JEQ-R LA                                       898103213089810321008981032110                    8981032601                                        8981032462                                        8981032402                                        89816356708981032721                              8981032721                                        8981032601898103246289810324028981635670          8981446250                                        8981446260                                        898144625089814462608981033001                    8981446211                                        8981446221                                        8981033001                                        8981032130                                        8981032100                                        8981032110                                                                                                                                                                                                                                                                                                                                                    
00005120A1000005011005              201111130734TFR86JER-R LA                                       898103213089810321008981032110                    8981032601                                        8981032462                                        8981032402                                        89816356708981032721                              8981032721                                        8981032601898103246289810324028981635670          8981446250                                        8981446260                                        898144625089814462608981033001                    8981446211                                        8981446221                                        8981033001                                        8981032130                                        8981032100                                        8981032110                                                                                                                                                                                                                                                                                                                                                    
00006120A1000006011006              201111130735TFR86JVMN11LA                                       898103213089810321008981032110                    8981032531                                        8981608170                                        8981608300                                        89810321608981032711                              8981032711                                        8981032531898160817089816083008981032160                                                                                                                                                                                                                                                                                                                      8981032130                                        8981032100                                        8981032110                                                                                                                                                                                                                                                                                                                                                    
00007120A1000007011007              201111130736TFS85JCQ-R UA                                       898103213089810321008981032110                    8981515760                                        8981608240                                        8981608320                                        89816356908981032731                              8981032731                                        8981515760898160824089816083208981635690          8981032861                                        8981032961                                        898103286189810329618981033011                    8981044242                                        8981044222                                        8981033011                                        8981032130                                        8981032100                                        8981032110                                                                                                                                                                                                                                                                                                                                                    
00008120A1000008011008              201111130737TFR86JCQ-R1UA                                       898103213089810321008981032110                    8981515760                                        8981608240                                        8981608320                                        89816356908981032731                              8981032731                                        8981515760898160824089816083208981635690          8981032841                                        8981032921                                        898103284189810329218981033011                    8981044152                                        8981044122                                        8981033011                                        8981032130                                        8981032100                                        8981032110                                                                                                                                                                                                                                                                                                                                                    
00009120A1000009011009              201111130738TFR86JVMN11LA                                       898103213089810321008981032110                    8981032531                                        8981608170                                        8981608300                                        89810321608981032711                              8981032711                                        8981032531898160817089816083008981032160                                                                                                                                                                                                                                                                                                                      8981032130                                        8981032100                                        8981032110                                                                                                                                                                                                                                                                                                                                                    
00010120A1000010011010              201111130739TFR86JVMN11LA                                       898103213089810321008981032110                    8981032531                                        8981608170                                        8981608300                                        89810321608981032711                              8981032711                                        8981032531898160817089816083008981032160                                                                                                                                                                                                                                                                                                                      8981032130                                        8981032100                                        8981032110                                                                                                                                                                                                                                                                                                                                                    
00011120A1000011011011              201111130740TFR86JEQ-R LA                                       898103213089810321008981032110                    8981032601                                        8981032462                                        8981032402                                        89816356708981032721                              8981032721                                        8981032601898103246289810324028981635670          8981446250                                        8981446260                                        898144625089814462608981033001                    8981446211                                        8981446221                                        8981033001                                        8981032130                                        8981032100                                        8981032110                                                                                                                                                                                                                                                                                                                                                    
00012120A1000012011012              201111130741TFR86JVMN11LA                                       898103213089810321008981032110                    8981032531                                        8981608170                                        8981608300                                        89810321608981032711                              8981032711                                        8981032531898160817089816083008981032160                                                                                                                                                                                                                                                                                                                      8981032130                                        8981032100                                        8981032110                                                                                                                                                                                                                                                                                                                                                    
00013120A1000013011013              201111130742TFR85JEQ-R LA                                       898103213089810321008981032110                    8981032601                                        8981032462                                        8981032402                                        89816356708981032721                              8981032721                                        8981032601898103246289810324028981635670          8981446250                                        8981446260                                        898144625089814462608981033001                    8981446211                                        8981446221                                        8981033001                                        8981032130                                        8981032100                                        8981032110                                                                                                                                                                                                                                                                                                                                                    
00014120A1000014011014              201111130743TFR86JVMN11LA                                       898103213089810321008981032110                    8981032531                                        8981608170                                        8981608300                                        89810321608981032711                              8981032711                                        8981032531898160817089816083008981032160                                                                                                                                                                                                                                                                                                                      8981032130                                        8981032100                                        8981032110                                                                                                                                                                                                                                                                                                                                                    
00015120A1000015011015              201111130744TFR86JVMN11LA                                       898103213089810321008981032110                    8981032531                                        8981608170                                        8981608300                                        89810321608981032711                              8981032711                                        8981032531898160817089816083008981032160                                                                                                                                                                                                                                                                                                                      8981032130                                        8981032100                                        8981032110                                                                                                                                                                                                                                                                                                                                                    
00016120B1000016011001              201111130745TFR86JEMN2 LA                                       898103213089810321008981032110                    8981032601                                        8981032462                                        8981032432                                        89816356608981032721                              8981032721                                        8981032601898103246289810324328981635660          8981446270                                        8981446280                                        898144627089814462808981033001                    8981446231                                        8981446241                                        8981033001                                        8981032130                                        8981032100                                        8981032110                                                                                                                                                                                                                                                                                                                                                    
00017120B1000017011002              201111130746TFR86JEQN4 LA                                       898103213089810321008981032110                    8981032601                                        8981032462                                        8981032402                                        89816356708981032721                              8981032721                                        8981032601898103246289810324028981635670          8981446270                                        8981446280                                        898144627089814462808981033001                    8981446231                                        8981446241                                        8981033001                                        8981032130                                        8981032100                                        8981032110                                                                                                                                                                                                                                                                                                                                                    
00018120B1000018011003              201111130747TFR86JEQH5 LA                                       898103213089810321008981032110                    8981032601                                        8981032462                                        8981032402                                        89816356708981032721                              8981032721                                        8981032601898103246289810324028981635670          8981446250                                        8981446260                                        898144625089814462608981033001                    8981446211                                        8981446221                                        8981033001                                        8981032130                                        8981032100                                        8981032110                                                                                                                                                                                                                                                                                                                                                    
00019120B1000019011004              201111130748TFR86JERH6 LA                                       898103213089810321008981032110                    8981032601                                        8981032462                                        8981032402                                        89816356708981032721                              8981032721                                        8981032601898103246289810324028981635670          8981446250                                        8981446260                                        898144625089814462608981033001                    8981446211                                        8981446221                                        8981033001                                        8981032130                                        8981032100                                        8981032110                                                                                                                                                                                                                                                                                                                                                    
00020120B1000020011005              201111130749TFR85JEQH6 LA                                       898103213089810321008981032110                    8981032601                                        8981032462                                        8981032402                                        89816356708981032721                              8981032721                                        8981032601898103246289810324028981635670          8981446250                                        8981446260                                        898144625089814462608981033001                    8981446211                                        8981446221                                        8981033001                                        8981032130                                        8981032100                                        8981032110                                                                                                                                                                                                                                                                                                                                                    
00021120B1000021011006              201111130750TFS85JCQH6 UA                                       898103213089810321008981032110                    8981515760                                        8981608240                                        8981608320                                        89816356908981032731                              8981032731                                        8981515760898160824089816083208981635690          8981032861                                        8981032961                                        898103286189810329618981033011                    8981044242                                        8981044222                                        8981033011                                        8981032130                                        8981032100                                        8981032110                                                                                                                                                                                                                                                                                                                                                    
00022120B1000022011007              201111130751TFR86JCQN6 UA                                       898103213089810321008981032110                    8981515760                                        8981608240                                        8981608320                                        89816356908981032731                              8981032731                                        8981515760898160824089816083208981635690          8981032841                                        8981032921                                        898103284189810329218981033011                    8981044152                                        8981044122                                        8981033011                                        8981032130                                        8981032100                                        8981032110                                                                                                                                                                                                                                                                                                                                                    
00023120B1000023011008              201111130752TFR86JEMN2 LA                                       898103213089810321008981032110                    8981032601                                        8981032462                                        8981032432                                        89816356608981032721                              8981032721                                        8981032601898103246289810324328981635660          8981446270                                        8981446280                                        898144627089814462808981033001                    8981446231                                        8981446241                                        8981033001                                        8981032130                                        8981032100                                        8981032110                                                                                                                                                                                                                                                                                                                                                    
00024120B1000024011009              201111130753TFR86JEQN4 LA                                       898103213089810321008981032110                    8981032601                                        8981032462                                        8981032402                                        89816356708981032721                              8981032721                                        8981032601898103246289810324028981635670          8981446270                                        8981446280                                        898144627089814462808981033001                    8981446231                                        8981446241                                        8981033001                                        8981032130                                        8981032100                                        8981032110                                                                                                                                                                                                                                                                                                                                                    
00025120B1000025011010              201111130754TFR86JEQH5 LA                                       898103213089810321008981032110                    8981032601                                        8981032462                                        8981032402                                        89816356708981032721                              8981032721                                        8981032601898103246289810324028981635670          8981446250                                        8981446260                                        898144625089814462608981033001                    8981446211                                        8981446221                                        8981033001                                        8981032130                                        8981032100                                        8981032110                                                                                                                                                                                                                                                                                                                                                    
00026120B1000026011011              201111130755TFR86JERH6 LA                                       898103213089810321008981032110                    8981032601                                        8981032462                                        8981032402                                        89816356708981032721                              8981032721                                        8981032601898103246289810324028981635670          8981446250                                        8981446260                                        898144625089814462608981033001                    8981446211                                        8981446221                                        8981033001                                        8981032130                                        8981032100                                        8981032110                                                                                                                                                                                                                                                                                                                                                    
00027120B1000027011012              201111130756TFR85JEQH6 LA                                       898103213089810321008981032110                    8981032601                                        8981032462                                        8981032402                                        89816356708981032721                              8981032721                                        8981032601898103246289810324028981635670          8981446250                                        8981446260                                        898144625089814462608981033001                    8981446211                                        8981446221                                        8981033001                                        8981032130                                        8981032100                                        8981032110                                                                                                                                                                                                                                                                                                                                                    
00028120B1000028011013              201111130757TFS85JCQH6 UA                                       898103213089810321008981032110                    8981515760                                        8981608240                                        8981608320                                        89816356908981032731                              8981032731                                        8981515760898160824089816083208981635690          8981032861                                        8981032961                                        898103286189810329618981033011                    8981044242                                        8981044222                                        8981033011                                        8981032130                                        8981032100                                        8981032110                                                                                                                                                                                                                                                                                                                                                    
00029120B1000029011014              201111130758TFR86JCQN6 UA                                       898103213089810321008981032110                    8981515760                                        8981608240                                        8981608320                                        89816356908981032731                              8981032731                                        8981515760898160824089816083208981635690          8981032841                                        8981032921                                        898103284189810329218981033011                    8981044152                                        8981044122                                        8981033011                                        8981032130                                        8981032100                                        8981032110                                                                                                                                                                                                                                                                                                                                                    
00030120B1000030011015              201111130759TFR86JEMN2 LA                                       898103213089810321008981032110                    8981032601                                        8981032462                                        8981032432                                        89816356608981032721                              8981032721                                        8981032601898103246289810324328981635660          8981446270                                        8981446280                                        898144627089814462808981033001                    8981446231                                        8981446241                                        8981033001                                        8981032130                                        8981032100                                        8981032110                                                                                                                                                                                                                                                                                                                                                    
00031120A1000031011016              201111130800TFR86JEQN4 LA                                       898103213089810321008981032110                    8981032601                                        8981032462                                        8981032402                                        89816356708981032721                              8981032721                                        8981032601898103246289810324028981635670          8981446270                                        8981446280                                        898144627089814462808981033001                    8981446231                                        8981446241                                        8981033001                                        8981032130                                        8981032100                                        8981032110                                                                                                                                                                                                                                                                                                                                                    
00032120A1000032011017              201111130801TFR86JEQH5 LA                                       898103213089810321008981032110                    8981032601                                        8981032462                                        8981032402                                        89816356708981032721                              8981032721                                        8981032601898103246289810324028981635670          8981446250                                        8981446260                                        898144625089814462608981033001                    8981446211                                        8981446221                                        8981033001                                        8981032130                                        8981032100                                        8981032110                                                                                                                                                                                                                                                                                                                                                    
00033120A1000033011018              201111130802TFR86JERH6 LA                                       898103213089810321008981032110                    8981032601                                        8981032462                                        8981032402                                        89816356708981032721                              8981032721                                        8981032601898103246289810324028981635670          8981446250                                        8981446260                                        898144625089814462608981033001                    8981446211                                        8981446221                                        8981033001                                        8981032130                                        8981032100                                        8981032110                                                                                                                                                                                                                                                                                                                                                    
00034120A1000034011019              201111130803TFR85JEQH6 LA                                       898103213089810321008981032110                    8981032601                                        8981032462                                        8981032402                                        89816356708981032721                              8981032721                                        8981032601898103246289810324028981635670          8981446250                                        8981446260                                        898144625089814462608981033001                    8981446211                                        8981446221                                        8981033001                                        8981032130                                        8981032100                                        8981032110                                                                                                                                                                                                                                                                                                                                                    
00035120A1000035011020              201111130804TFS85JCQH6 UA                                       898103213089810321008981032110                    8981515760                                        8981608240                                        8981608320                                        89816356908981032731                              8981032731                                        8981515760898160824089816083208981635690          8981032861                                        8981032961                                        898103286189810329618981033011                    8981044242                                        8981044222                                        8981033011                                        8981032130                                        8981032100                                        8981032110                                                                                                                                                                                                                                                                                                                                                    
00036120A1000036011021              201111130805TFR86JCQN6 UA                                       898103213089810321008981032110                    8981515760                                        8981608240                                        8981608320                                        89816356908981032731                              8981032731                                        8981515760898160824089816083208981635690          8981032841                                        8981032921                                        898103284189810329218981033011                    8981044152                                        8981044122                                        8981033011                                        8981032130                                        8981032100                                        8981032110                                                                                                                                                                                                                                                                                                                                                    
00037120A1000037011022              201111130806TFR86JEMN2 LA                                       898103213089810321008981032110                    8981032601                                        8981032462                                        8981032432                                        89816356608981032721                              8981032721                                        8981032601898103246289810324328981635660          8981446270                                        8981446280                                        898144627089814462808981033001                    8981446231                                        8981446241                                        8981033001                                        8981032130                                        8981032100                                        8981032110                                                                                                                                                                                                                                                                                                                                                    
00038120A1000038011023              201111130807TFR86JEQN4 LA                                       898103213089810321008981032110                    8981032601                                        8981032462                                        8981032402                                        89816356708981032721                              8981032721                                        8981032601898103246289810324028981635670          8981446270                                        8981446280                                        898144627089814462808981033001                    8981446231                                        8981446241                                        8981033001                                        8981032130                                        8981032100                                        8981032110                                                                                                                                                                                                                                                                                                                                                    
00039120A1000039011024              201111130808TFR86JEQH5 LA                                       898103213089810321008981032110                    8981032601                                        8981032462                                        8981032402                                        89816356708981032721                              8981032721                                        8981032601898103246289810324028981635670          8981446250                                        8981446260                                        898144625089814462608981033001                    8981446211                                        8981446221                                        8981033001                                        8981032130                                        8981032100                                        8981032110                                                                                                                                                                                                                                                                                                                                                    
00040120A1000040011025              201111130809TFR86JERH6 LA                                       898103213089810321008981032110                    8981032601                                        8981032462                                        8981032402                                        89816356708981032721                              8981032721                                        8981032601898103246289810324028981635670          8981446250                                        8981446260                                        898144625089814462608981033001                    8981446211                                        8981446221                                        8981033001                                        8981032130                                        8981032100                                        8981032110                                                                                                                                                                                                                                                                                                                                                    
00041120A1000041011026              201111130810TFR85JEQH6 LA                                       898103213089810321008981032110                    8981032601                                        8981032462                                        8981032402                                        89816356708981032721                              8981032721                                        8981032601898103246289810324028981635670          8981446250                                        8981446260                                        898144625089814462608981033001                    8981446211                                        8981446221                                        8981033001                                        8981032130                                        8981032100                                        8981032110                                                                                                                                                                                                                                                                                                                                                    
00042120A1000042011027              201111130811TFS85JCQH6 UA                                       898103213089810321008981032110                    8981515760                                        8981608240                                        8981608320                                        89816356908981032731                              8981032731                                        8981515760898160824089816083208981635690          8981032861                                        8981032961                                        898103286189810329618981033011                    8981044242                                        8981044222                                        8981033011                                        8981032130                                        8981032100                                        8981032110                                                                                                                                                                                                                                                                                                                                                    
00043120A1000043011028              201111130812TFR86JCQN6 UA                                       898103213089810321008981032110                    8981515760                                        8981608240                                        8981608320                                        89816356908981032731                              8981032731                                        8981515760898160824089816083208981635690          8981032841                                        8981032921                                        898103284189810329218981033011                    8981044152                                        8981044122                                        8981033011                                        8981032130                                        8981032100                                        8981032110                                                                                                                                                                                                                                                                                                                                                    
00044120A1000044011029              201111130813TFR86JEMN2 LA                                       898103213089810321008981032110                    8981032601                                        8981032462                                        8981032432                                        89816356608981032721                              8981032721                                        8981032601898103246289810324328981635660          8981446270                                        8981446280                                        898144627089814462808981033001                    8981446231                                        8981446241                                        8981033001                                        8981032130                                        8981032100                                        8981032110                                                                                                                                                                                                                                                                                                                                                    
00045120A1000045011030              201111130814TFR86JEQN4 LA                                       898103213089810321008981032110                    8981032601                                        8981032462                                        8981032402                                        89816356708981032721                              8981032721                                        8981032601898103246289810324028981635670          8981446270                                        8981446280                                        898144627089814462808981033001                    8981446231                                        8981446241                                        8981033001                                        8981032130                                        8981032100                                        8981032110                                                                                                                                                                                                                                                                                                                                                    
00046120D1000046011001              201111130815TFR86JEQH5 LA                                       898103213089810321008981032110                    8981032601                                        8981032462                                        8981032402                                        89816356708981032721                              8981032721                                        8981032601898103246289810324028981635670          8981446250                                        8981446260                                        898144625089814462608981033001                    8981446211                                        8981446221                                        8981033001                                        8981032130                                        8981032100                                        8981032110                                                                                                                                                                                                                                                                                                                                                    
00047120D1000047011002              201111130816TFR86JERH6 LA                                       898103213089810321008981032110                    8981032601                                        8981032462                                        8981032402                                        89816356708981032721                              8981032721                                        8981032601898103246289810324028981635670          8981446250                                        8981446260                                        898144625089814462608981033001                    8981446211                                        8981446221                                        8981033001                                        8981032130                                        8981032100                                        8981032110                                                                                                                                                                                                                                                                                                                                                    
00048120D1000048011003              201111130817TFR85JEQH6 LA                                       898103213089810321008981032110                    8981032601                                        8981032462                                        8981032402                                        89816356708981032721                              8981032721                                        8981032601898103246289810324028981635670          8981446250                                        8981446260                                        898144625089814462608981033001                    8981446211                                        8981446221                                        8981033001                                        8981032130                                        8981032100                                        8981032110                                                                                                                                                                                                                                                                                                                                                    
00049120D1000049011004              201111130818TFS85JCQH6 UA                                       898103213089810321008981032110                    8981515760                                        8981608240                                        8981608320                                        89816356908981032731                              8981032731                                        8981515760898160824089816083208981635690          8981032861                                        8981032961                                        898103286189810329618981033011                    8981044242                                        8981044222                                        8981033011                                        8981032130                                        8981032100                                        8981032110                                                                                                                                                                                                                                                                                                                                                    
00050120D1000050011005              201111130819TFR86JCQN6 UA                                       898103213089810321008981032110                    8981515760                                        8981608240                                        8981608320                                        89816356908981032731                              8981032731                                        8981515760898160824089816083208981635690          8981032841                                        8981032921                                        898103284189810329218981033011                    8981044152                                        8981044122                                        8981033011                                        8981032130                                        8981032100                                        8981032110                                                                                                                                                                                                                                                                                                                                                    
00051120D1000051011006              201111130820TFR86JEMN2 LA                                       898103213089810321008981032110                    8981032601                                        8981032462                                        8981032432                                        89816356608981032721                              8981032721                                        8981032601898103246289810324328981635660          8981446270                                        8981446280                                        898144627089814462808981033001                    8981446231                                        8981446241                                        8981033001                                        8981032130                                        8981032100                                        8981032110                                                                                                                                                                                                                                                                                                                                                    
00052120D1000052011007              201111130821TFR86JEQN4 LA                                       898103213089810321008981032110                    8981032601                                        8981032462                                        8981032402                                        89816356708981032721                              8981032721                                        8981032601898103246289810324028981635670          8981446270                                        8981446280                                        898144627089814462808981033001                    8981446231                                        8981446241                                        8981033001                                        8981032130                                        8981032100                                        8981032110                                                                                                                                                                                                                                                                                                                                                    
00053120D1000053011008              201111130822TFR86JEQH5 LA                                       898103213089810321008981032110                    8981032601                                        8981032462                                        8981032402                                        89816356708981032721                              8981032721                                        8981032601898103246289810324028981635670          8981446250                                        8981446260                                        898144625089814462608981033001                    8981446211                                        8981446221                                        8981033001                                        8981032130                                        8981032100                                        8981032110                                                                                                                                                                                                                                                                                                                                                    
00054120D1000054011009              201111130823TFR86JERH6 LA                                       898103213089810321008981032110                    8981032601                                        8981032462                                        8981032402                                        89816356708981032721                              8981032721                                        8981032601898103246289810324028981635670          8981446250                                        8981446260                                        898144625089814462608981033001                    8981446211                                        8981446221                                        8981033001                                        8981032130                                        8981032100                                        8981032110                                                                                                                                                                                                                                                                                                                                                    
00055120D1000055011010              201111130824TFR85JEQH6 LA                                       898103213089810321008981032110                    8981032601                                        8981032462                                        8981032402                                        89816356708981032721                              8981032721                                        8981032601898103246289810324028981635670          8981446250                                        8981446260                                        898144625089814462608981033001                    8981446211                                        8981446221                                        8981033001                                        8981032130                                        8981032100                                        8981032110                                                                                                                                                                                                                                                                                                                                                    
00056120D1000056011011              201111130825TFS85JCQH6 UA                                       898103213089810321008981032110                    8981515760                                        8981608240                                        8981608320                                        89816356908981032731                              8981032731                                        8981515760898160824089816083208981635690          8981032861                                        8981032961                                        898103286189810329618981033011                    8981044242                                        8981044222                                        8981033011                                        8981032130                                        8981032100                                        8981032110                                                                                                                                                                                                                                                                                                                                                    
00057120D1000057011012              201111130826TFR86JCQN6 UA                                       898103213089810321008981032110                    8981515760                                        8981608240                                        8981608320                                        89816356908981032731                              8981032731                                        8981515760898160824089816083208981635690          8981032841                                        8981032921                                        898103284189810329218981033011                    8981044152                                        8981044122                                        8981033011                                        8981032130                                        8981032100                                        8981032110                                                                                                                                                                                                                                                                                                                                                    
00058120D1000058011013              201111130827TFR86JEMN2 LA                                       898103213089810321008981032110                    8981032601                                        8981032462                                        8981032432                                        89816356608981032721                              8981032721                                        8981032601898103246289810324328981635660          8981446270                                        8981446280                                        898144627089814462808981033001                    8981446231                                        8981446241                                        8981033001                                        8981032130                                        8981032100                                        8981032110                                                                                                                                                                                                                                                                                                                                                    
00059120D1000059011014              201111130828TFR86JEQN4 LA                                       898103213089810321008981032110                    8981032601                                        8981032462                                        8981032402                                        89816356708981032721                              8981032721                                        8981032601898103246289810324028981635670          8981446270                                        8981446280                                        898144627089814462808981033001                    8981446231                                        8981446241                                        8981033001                                        8981032130                                        8981032100                                        8981032110                                                                                                                                                                                                                                                                                                                                                    
00060120D1000060011015              201111130829TFR86JEQH5 LA                                       898103213089810321008981032110                    8981032601                                        8981032462                                        8981032402                                        89816356708981032721                              8981032721                                        8981032601898103246289810324028981635670          8981446250                                        8981446260                                        898144625089814462608981033001                    8981446211                                        8981446221                                        8981033001                                        8981032130                                        8981032100                                        8981032110                                                                                                                                                                                                                                                                                                                                                    
00061120E1000061011001              201111130830TFR86JERH6 LA                                       898103213089810321008981032110                    8981032601                                        8981032462                                        8981032402                                        89816356708981032721                              8981032721                                        8981032601898103246289810324028981635670          8981446250                                        8981446260                                        898144625089814462608981033001                    8981446211                                        8981446221                                        8981033001                                        8981032130                                        8981032100                                        8981032110                                                                                                                                                                                                                                                                                                                                                    
00062120E1000062011002              201111130831TFR85JEQH6 LA                                       898103213089810321008981032110                    8981032601                                        8981032462                                        8981032402                                        89816356708981032721                              8981032721                                        8981032601898103246289810324028981635670          8981446250                                        8981446260                                        898144625089814462608981033001                    8981446211                                        8981446221                                        8981033001                                        8981032130                                        8981032100                                        8981032110                                                                                                                                                                                                                                                                                                                                                    
00063120E1000063011003              201111130832TFS85JCQH6 UA                                       898103213089810321008981032110                    8981515760                                        8981608240                                        8981608320                                        89816356908981032731                              8981032731                                        8981515760898160824089816083208981635690          8981032861                                        8981032961                                        898103286189810329618981033011                    8981044242                                        8981044222                                        8981033011                                        8981032130                                        8981032100                                        8981032110                                                                                                                                                                                                                                                                                                                                                    
00064120E1000064011004              201111130833TFR86JCQN6 UA                                       898103213089810321008981032110                    8981515760                                        8981608240                                        8981608320                                        89816356908981032731                              8981032731                                        8981515760898160824089816083208981635690          8981032841                                        8981032921                                        898103284189810329218981033011                    8981044152                                        8981044122                                        8981033011                                        8981032130                                        8981032100                                        8981032110                                                                                                                                                                                                                                                                                                                                                    
00065120E1000065011005              201111130834TFR86JEMN2 LA                                       898103213089810321008981032110                    8981032601                                        8981032462                                        8981032432                                        89816356608981032721                              8981032721                                        8981032601898103246289810324328981635660          8981446270                                        8981446280                                        898144627089814462808981033001                    8981446231                                        8981446241                                        8981033001                                        8981032130                                        8981032100                                        8981032110                                                                                                                                                                                                                                                                                                                                                    
00066120E1000066011006              201111130835TFR86JEQN4 LA                                       898103213089810321008981032110                    8981032601                                        8981032462                                        8981032402                                        89816356708981032721                              8981032721                                        8981032601898103246289810324028981635670          8981446270                                        8981446280                                        898144627089814462808981033001                    8981446231                                        8981446241                                        8981033001                                        8981032130                                        8981032100                                        8981032110                                                                                                                                                                                                                                                                                                                                                    
00067120E1000067011007              201111130836TFR86JEQH5 LA                                       898103213089810321008981032110                    8981032601                                        8981032462                                        8981032402                                        89816356708981032721                              8981032721                                        8981032601898103246289810324028981635670          8981446250                                        8981446260                                        898144625089814462608981033001                    8981446211                                        8981446221                                        8981033001                                        8981032130                                        8981032100                                        8981032110                                                                                                                                                                                                                                                                                                                                                    
00068120E1000068011008              201111130837TFR86JERH6 LA                                       898103213089810321008981032110                    8981032601                                        8981032462                                        8981032402                                        89816356708981032721                              8981032721                                        8981032601898103246289810324028981635670          8981446250                                        8981446260                                        898144625089814462608981033001                    8981446211                                        8981446221                                        8981033001                                        8981032130                                        8981032100                                        8981032110                                                                                                                                                                                                                                                                                                                                                    
00069120E1000069011009              201111130838TFR85JEQH6 LA                                       898103213089810321008981032110                    8981032601                                        8981032462                                        8981032402                                        89816356708981032721                              8981032721                                        8981032601898103246289810324028981635670          8981446250                                        8981446260                                        898144625089814462608981033001                    8981446211                                        8981446221                                        8981033001                                        8981032130                                        8981032100                                        8981032110                                                                                                                                                                                                                                                                                                                                                    
00070120E1000070011010              201111130839TFS85JCQH6 UA                                       898103213089810321008981032110                    8981515760                                        8981608240                                        8981608320                                        89816356908981032731                              8981032731                                        8981515760898160824089816083208981635690          8981032861                                        8981032961                                        898103286189810329618981033011                    8981044242                                        8981044222                                        8981033011                                        8981032130                                        8981032100                                        8981032110                                                                                                                                                                                                                                                                                                                                                    
00071120E1000071011011              201111130840TFR86JCQN6 UA                                       898103213089810321008981032110                    8981515760                                        8981608240                                        8981608320                                        89816356908981032731                              8981032731                                        8981515760898160824089816083208981635690          8981032841                                        8981032921                                        898103284189810329218981033011                    8981044152                                        8981044122                                        8981033011                                        8981032130                                        8981032100                                        8981032110                                                                                                                                                                                                                                                                                                                                                    
00072120E1000072011012              201111130841TFR86JEMN2 LA                                       898103213089810321008981032110                    8981032601                                        8981032462                                        8981032432                                        89816356608981032721                              8981032721                                        8981032601898103246289810324328981635660          8981446270                                        8981446280                                        898144627089814462808981033001                    8981446231                                        8981446241                                        8981033001                                        8981032130                                        8981032100                                        8981032110                                                                                                                                                                                                                                                                                                                                                    
00073120E1000073011013              201111130842TFR86JEQN4 LA                                       898103213089810321008981032110                    8981032601                                        8981032462                                        8981032402                                        89816356708981032721                              8981032721                                        8981032601898103246289810324028981635670          8981446270                                        8981446280                                        898144627089814462808981033001                    8981446231                                        8981446241                                        8981033001                                        8981032130                                        8981032100                                        8981032110                                                                                                                                                                                                                                                                                                                                                    
00074120E1000074011014              201111130843TFR86JEQH5 LA                                       898103213089810321008981032110                    8981032601                                        8981032462                                        8981032402                                        89816356708981032721                              8981032721                                        8981032601898103246289810324028981635670          8981446250                                        8981446260                                        898144625089814462608981033001                    8981446211                                        8981446221                                        8981033001                                        8981032130                                        8981032100                                        8981032110                                                                                                                                                                                                                                                                                                                                                    
00075120E1000075011015              201111130844TFR86JERH6 LA                                       898103213089810321008981032110                    8981032601                                        8981032462                                        8981032402                                        89816356708981032721                              8981032721                                        8981032601898103246289810324028981635670          8981446250                                        8981446260                                        898144625089814462608981033001                    8981446211                                        8981446221                                        8981033001                                        8981032130                                        8981032100                                        8981032110                                                                                                                                                                                                                                                                                                                                                    
00076120B1000076011016              201111130845TFR85JEQH6 LA                                       898103213089810321008981032110                    8981032601                                        8981032462                                        8981032402                                        89816356708981032721                              8981032721                                        8981032601898103246289810324028981635670          8981446250                                        8981446260                                        898144625089814462608981033001                    8981446211                                        8981446221                                        8981033001                                        8981032130                                        8981032100                                        8981032110                                                                                                                                                                                                                                                                                                                                                    
00077120B1000077011017              201111130846TFS85JCQH6 UA                                       898103213089810321008981032110                    8981515760                                        8981608240                                        8981608320                                        89816356908981032731                              8981032731                                        8981515760898160824089816083208981635690          8981032861                                        8981032961                                        898103286189810329618981033011                    8981044242                                        8981044222                                        8981033011                                        8981032130                                        8981032100                                        8981032110                                                                                                                                                                                                                                                                                                                                                    
00078120B1000078011018              201111130847TFR86JCQN6 UA                                       898103213089810321008981032110                    8981515760                                        8981608240                                        8981608320                                        89816356908981032731                              8981032731                                        8981515760898160824089816083208981635690          8981032841                                        8981032921                                        898103284189810329218981033011                    8981044152                                        8981044122                                        8981033011                                        8981032130                                        8981032100                                        8981032110                                                                                                                                                                                                                                                                                                                                                    
00079120B1000079011019              201111130848TFR86JEMN2 LA                                       898103213089810321008981032110                    8981032601                                        8981032462                                        8981032432                                        89816356608981032721                              8981032721                                        8981032601898103246289810324328981635660          8981446270                                        8981446280                                        898144627089814462808981033001                    8981446231                                        8981446241                                        8981033001                                        8981032130                                        8981032100                                        8981032110                                                                                                                                                                                                                                                                                                                                                    
00080120B1000080011020              201111130849TFR86JEQN4 LA                                       898103213089810321008981032110                    8981032601                                        8981032462                                        8981032402                                        89816356708981032721                              8981032721                                        8981032601898103246289810324028981635670          8981446270                                        8981446280                                        898144627089814462808981033001                    8981446231                                        8981446241                                        8981033001                                        8981032130                                        8981032100                                        8981032110                                                                                                                                                                                                                                                                                                                                                    
00081120B1000081011021              201111130850TFR86JEQH5 LA                                       898103213089810321008981032110                    8981032601                                        8981032462                                        8981032402                                        89816356708981032721                              8981032721                                        8981032601898103246289810324028981635670          8981446250                                        8981446260                                        898144625089814462608981033001                    8981446211                                        8981446221                                        8981033001                                        8981032130                                        8981032100                                        8981032110                                                                                                                                                                                                                                                                                                                                                    
00082120B1000082011022              201111130851TFR86JERH6 LA                                       898103213089810321008981032110                    8981032601                                        8981032462                                        8981032402                                        89816356708981032721                              8981032721                                        8981032601898103246289810324028981635670          8981446250                                        8981446260                                        898144625089814462608981033001                    8981446211                                        8981446221                                        8981033001                                        8981032130                                        8981032100                                        8981032110                                                                                                                                                                                                                                                                                                                                                    
