HEADERRT50 BODY         201010271219050120000000                                                                                                                                                                                                                                                                                                                                                                                                                                                                                                                                                                                                                                                                                                                                                                                                                                                                                                                                                                                                                                                                                                                                                                                                
00001120E1A00221001001              201105100731TFR86JVMN11LA                                       898103213089810321008981032110                    8981032531                                        8981608170                                        8981608300                                        89810321608981032711                              8981032711                                        8981032531898160817089816083008981032160                                                                                                                                                                                                                                                                                                                      8981032130                                        8981032100                                        8981032110                                                                                                                                                                                                                                                                                                                                                    
00002120E1D00222002001              201105100733TFR86JEMN2 LA                                       898103213089810321008981032110                    8981032601                                        8981032462                                        8981032432                                        89816356608981032721                              8981032721                                        8981032601898103246289810324328981635660          8981446270                                        8981446280                                        898144627089814462808981033001                    8981446231                                        8981446241                                        8981033001                                        8981032130                                        8981032100                                        8981032110                                                                                                                                                                                                                                                                                                                                                    
00003120E1E00223004001              201105100734TFR86JEQN4 LA                                       898103213089810321008981032110                    8981032601                                        8981032462                                        8981032402                                        89816356708981032721                              8981032721                                        8981032601898103246289810324028981635670          8981446270                                        8981446280                                        898144627089814462808981033001                    8981446231                                        8981446241                                        8981033001                                        8981032130                                        8981032100                                        8981032110                                                                                                                                                                                                                                                                                                                                                    
00004120E1F00224003001              201105100736TFR86JEQH5 LA                                       898103213089810321008981032110                    8981032601                                        8981032462                                        8981032402                                        89816356708981032721                              8981032721                                        8981032601898103246289810324028981635670          8981446250                                        8981446260                                        898144625089814462608981033001                    8981446211                                        8981446221                                        8981033001                                        8981032130                                        8981032100                                        8981032110                                                                                                                                                                                                                                                                                                                                                    
00005120E1G00225006001              201105100737TFR86JERH6 LA                                       898103213089810321008981032110                    8981032601                                        8981032462                                        8981032402                                        89816356708981032721                              8981032721                                        8981032601898103246289810324028981635670          8981446250                                        8981446260                                        898144625089814462608981033001                    8981446211                                        8981446221                                        8981033001                                        8981032130                                        8981032100                                        8981032110                                                                                                                                                                                                                                                                                                                                                    
00006120E1H00226002001              201105100739TFR85JEQH6 LA                                       898103213089810321008981032110                    8981032601                                        8981032462                                        8981032402                                        89816356708981032721                              8981032721                                        8981032601898103246289810324028981635670          8981446250                                        8981446260                                        898144625089814462608981033001                    8981446211                                        8981446221                                        8981033001                                        8981032130                                        8981032100                                        8981032110                                                                                                                                                                                                                                                                                                                                                    
00007120E1Z00227003001              201105100740TFS85JCQH6 UA                                       898103213089810321008981032110                    8981515760                                        8981608240                                        8981608320                                        89816356908981032731                              8981032731                                        8981515760898160824089816083208981635690          8981032861                                        8981032961                                        898103286189810329618981033011                    8981044242                                        8981044222                                        8981033011                                        8981032130                                        8981032100                                        8981032110                                                                                                                                                                                                                                                                                                                                                    
00008120E2C00228002001              201105100742TFR86JCQN6 UA                                       898103213089810321008981032110                    8981515760                                        8981608240                                        8981608320                                        89816356908981032731                              8981032731                                        8981515760898160824089816083208981635690          8981032841                                        8981032921                                        898103284189810329218981033011                    8981044152                                        8981044122                                        8981033011                                        8981032130                                        8981032100                                        8981032110                                                                                                                                                                                                                                                                                                                                                    
0000912011000000001001              201105100743TFR86JSE-R                                          898103212089810321008981032110                    8981558810                                        8981567600                                        8981567670                                        89810322408981032711                              8981032711                                        8981558810898156760089815676708981032240          8981032870                                        8981032900                                        898103287089810329008981390570                    8981044020                                        8981044010                                        8981390570                                        8981032120                                        8981032100                                        8981032110                                                                                                                                                                                                                                                                                                                                                    
0001012021000000001001              201105100745TFS86JDE-R                                          898103212089810321008981032110                    8981558830                                        8981567660                                        8981567750                                        89810323408981032751                              8981032751                                        8981558830898156766089815677508981032340          8981032861                                        8981032961                                        898103286189810329618981033011                    8981044242                                        8981044222                                        8981033011                                        8981032120                                        8981032100                                        8981032110                                                                                                                                                                                                                                                                                                                                                    
TRAIL 00000010                                                                                                                                                                                                                                                                                                                                                                                                                                                                                                                                                                                                                                                                                                                                                                                                                                                                                                                                                                                                                                                                                                                                                                                                                                  
