HEADERRT50 BODY         201009020903400120000000                                                                                                                                                                                                                                                                                                                                                                                                                                                                                                                                                                                                                                                                                                                                                                                                                                                                                                                                                                                                                                                                                                                                                                                                
00001100BD000001001001              201008221000             AH                                     8974037110                                        897403711089725118018980058340                                                                      89736704408980080710                                                                                                                                                                                    8980058340                                                                                          8979184160                                        0911801100                                        8932978071                                                                                                                                                                                                                                                                                                                                                                                            8972511801                                                                                                                                                      
00002100BD000002001002              201008221001             AH                                     8974037110                                        897403711089725118018980058340                                                                      89736704408980080710                                                                                                                                                                                    8980058340                                                                                          8979184160                                        0911801100                                        8932978071                                                                                                                                                                                                                                                                                                                                                                                            8972511801                                                                                                                                                      
00003100BD000003001003              201008221002             AH                                     8974037110                                        897403711089725118018980058340                                                                      89736704408980080710                                                                                                                                                                                    8980058340                                                                                          8979184160                                        0911801100                                        8932978071                                                                                                                                                                                                                                                                                                                                                                                            8972511801                                                                                                                                                      
00004100BD000004001004              201008221003             AH                                     8974037110                                        897403711089725118018980058340                                                                      89736704408980080710                                                                                                                                                                                    8980058340                                                                                          8979184160                                        0911801100                                        8932978071                                                                                                                                                                                                                                                                                                                                                                                            8972511801                                                                                                                                                      
00005100BD000005001005              201008221004             AH                                     8974037110                                        897403711089725118018980058340                                                                      89736704408980080710                                                                                                                                                                                    8980058340                                                                                          8979184160                                        0911801100                                        8932978071                                                                                                                                                                                                                                                                                                                                                                                            8972511801                                                                                                                                                      
00006100BD000006001006              201008221005             AH                                     8974037110                                        897403711089725118018980058340                                                                      89736704408980080710                                                                                                                                                                                    8980058340                                                                                          8979184160                                        0911801100                                        8932978071                                                                                                                                                                                                                                                                                                                                                                                            8972511801                                                                                                                                                      
00007100BD000007001007              201008221006             AH                                     8974037110                                        897403711089725118018980058340                                                                      89736704408980080710                                                                                                                                                                                    8980058340                                                                                          8979184160                                        0911801100                                        8932978071                                                                                                                                                                                                                                                                                                                                                                                            8972511801                                                                                                                                                      
00008100BD000008001008              201008221007             AH                                     8974037110                                        897403711089725118018980058340                                                                      89736704408980080710                                                                                                                                                                                    8980058340                                                                                          8979184160                                        0911801100                                        8932978071                                                                                                                                                                                                                                                                                                                                                                                            8972511801                                                                                                                                                      
00031100MY000001001001              201008221201             AH                                     8974037110                                        897403711089725118018980058340                                                                      89736704408980080710                                                                                                                                                                                    8980058340                                                                                          8979184160                                        0911801100                                        8932978071                                                                                                                                                                                                                                                                                                                                                                                            8972511801                                                                                                                                                      
00032100MY000002001002              201008221202             AH                                     8974037110                                        897403711089725118018980058340                                                                      89736704408980080710                                                                                                                                                                                    8980058340                                                                                          8979184160                                        0911801100                                        8932978071                                                                                                                                                                                                                                                                                                                                                                                            8972511801                                                                                                                                                      
00033100MY000003001003              201008221203             AH                                     8974037110                                        897403711089725118018980058340                                                                      89736704408980080710                                                                                                                                                                                    8980058340                                                                                          8979184160                                        0911801100                                        8932978071                                                                                                                                                                                                                                                                                                                                                                                            8972511801                                                                                                                                                      
00034100MY000004001004              201008221204             AH                                     8974037110                                        897403711089725118018980058340                                                                      89736704408980080710                                                                                                                                                                                    8980058340                                                                                          8979184160                                        0911801100                                        8932978071                                                                                                                                                                                                                                                                                                                                                                                            8972511801                                                                                                                                                      
00035100MY000005001005              201008221205             AH                                     8974037110                                        897403711089725118018980058340                                                                      89736704408980080710                                                                                                                                                                                    8980058340                                                                                          8979184160                                        0911801100                                        8932978071                                                                                                                                                                                                                                                                                                                                                                                            8972511801                                                                                                                                                      
00036100MY000006001006              201008221206             AH                                     8974037110                                        897403711089725118018980058340                                                                      89736704408980080710                                                                                                                                                                                    8980058340                                                                                          8979184160                                        0911801100                                        8932978071                                                                                                                                                                                                                                                                                                                                                                                            8972511801                                                                                                                                                      
00037100MY000007001007              201008221207             AH                                     8974037110                                        897403711089725118018980058340                                                                      89736704408980080710                                                                                                                                                                                    8980058340                                                                                          8979184160                                        0911801100                                        8932978071                                                                                                                                                                                                                                                                                                                                                                                            8972511801                                                                                                                                                      
TRAIL 00000015                                                                                                                                                                                                                                                                                                                                                                                                                                                                                                                                                                                                                                                                                                                                                                                                                                                                                                                                                                                                                                                                                                                                                                                                                                  
HEADERRT50 BODY         201009020907110120000000                                                                                                                                                                                                                                                                                                                                                                                                                                                                                                                                                                                                                                                                                                                                                                                                                                                                                                                                                                                                                                                                                                                                                                                                
00001100BD000001001001              201008231000             AH                                     8974037110                                        897403711089725118018980058340                                                                      89736704408980080710                                                                                                                                                                                    8980058340                                                                                          8979184160                                        0911801100                                        8932978071                                                                                                                                                                                                                                                                                                                                                                                            8972511801                                                                                                                                                      
00002100BD000002001002              201008231001             AH                                     8974037110                                        897403711089725118018980058340                                                                      89736704408980080710                                                                                                                                                                                    8980058340                                                                                          8979184160                                        0911801100                                        8932978071                                                                                                                                                                                                                                                                                                                                                                                            8972511801                                                                                                                                                      
00003100BD000003001003              201008231002             AH                                     8974037110                                        897403711089725118018980058340                                                                      89736704408980080710                                                                                                                                                                                    8980058340                                                                                          8979184160                                        0911801100                                        8932978071                                                                                                                                                                                                                                                                                                                                                                                            8972511801                                                                                                                                                      
00004100BD000004001004              201008231003             AH                                     8974037110                                        897403711089725118018980058340                                                                      89736704408980080710                                                                                                                                                                                    8980058340                                                                                          8979184160                                        0911801100                                        8932978071                                                                                                                                                                                                                                                                                                                                                                                            8972511801                                                                                                                                                      
00005100BD000005001005              201008231004             AH                                     8974037110                                        897403711089725118018980058340                                                                      89736704408980080710                                                                                                                                                                                    8980058340                                                                                          8979184160                                        0911801100                                        8932978071                                                                                                                                                                                                                                                                                                                                                                                            8972511801                                                                                                                                                      
00006100BD000006001006              201008231005             AH                                     8974037110                                        897403711089725118018980058340                                                                      89736704408980080710                                                                                                                                                                                    8980058340                                                                                          8979184160                                        0911801100                                        8932978071                                                                                                                                                                                                                                                                                                                                                                                            8972511801                                                                                                                                                      
00007100BD000007001007              201008231006             AH                                     8974037110                                        897403711089725118018980058340                                                                      89736704408980080710                                                                                                                                                                                    8980058340                                                                                          8979184160                                        0911801100                                        8932978071                                                                                                                                                                                                                                                                                                                                                                                            8972511801                                                                                                                                                      
00008100BD000008001008              201008231007             AH                                     8974037110                                        897403711089725118018980058340                                                                      89736704408980080710                                                                                                                                                                                    8980058340                                                                                          8979184160                                        0911801100                                        8932978071                                                                                                                                                                                                                                                                                                                                                                                            8972511801                                                                                                                                                      
00031100MY000001001001              201008231201             AH                                     8974037110                                        897403711089725118018980058340                                                                      89736704408980080710                                                                                                                                                                                    8980058340                                                                                          8979184160                                        0911801100                                        8932978071                                                                                                                                                                                                                                                                                                                                                                                            8972511801                                                                                                                                                      
00032100MY000002001002              201008231202             AH                                     8974037110                                        897403711089725118018980058340                                                                      89736704408980080710                                                                                                                                                                                    8980058340                                                                                          8979184160                                        0911801100                                        8932978071                                                                                                                                                                                                                                                                                                                                                                                            8972511801                                                                                                                                                      
00033100MY000003001003              201008231203             AH                                     8974037110                                        897403711089725118018980058340                                                                      89736704408980080710                                                                                                                                                                                    8980058340                                                                                          8979184160                                        0911801100                                        8932978071                                                                                                                                                                                                                                                                                                                                                                                            8972511801                                                                                                                                                      
00034100MY000004001004              201008231204             AH                                     8974037110                                        897403711089725118018980058340                                                                      89736704408980080710                                                                                                                                                                                    8980058340                                                                                          8979184160                                        0911801100                                        8932978071                                                                                                                                                                                                                                                                                                                                                                                            8972511801                                                                                                                                                      
00035100MY000005001005              201008231205             AH                                     8974037110                                        897403711089725118018980058340                                                                      89736704408980080710                                                                                                                                                                                    8980058340                                                                                          8979184160                                        0911801100                                        8932978071                                                                                                                                                                                                                                                                                                                                                                                            8972511801                                                                                                                                                      
00036100MY000006001006              201008231206             AH                                     8974037110                                        897403711089725118018980058340                                                                      89736704408980080710                                                                                                                                                                                    8980058340                                                                                          8979184160                                        0911801100                                        8932978071                                                                                                                                                                                                                                                                                                                                                                                            8972511801                                                                                                                                                      
00037100MY000007001007              201008231207             AH                                     8974037110                                        897403711089725118018980058340                                                                      89736704408980080710                                                                                                                                                                                    8980058340                                                                                          8979184160                                        0911801100                                        8932978071                                                                                                                                                                                                                                                                                                                                                                                            8972511801                                                                                                                                                      
TRAIL 00000015                                                                                                                                                                                                                                                                                                                                                                                                                                                                                                                                                                                                                                                                                                                                                                                                                                                                                                                                                                                                                                                                                                                                                                                                                                  
HEADERRT50 BODY         201009020907400120000000                                                                                                                                                                                                                                                                                                                                                                                                                                                                                                                                                                                                                                                                                                                                                                                                                                                                                                                                                                                                                                                                                                                                                                                                
00001100BD000001001001              201008241000             AH                                     8974037110                                        897403711089725118018980058340                                                                      89736704408980080710                                                                                                                                                                                    8980058340                                                                                          8979184160                                        0911801100                                        8932978071                                                                                                                                                                                                                                                                                                                                                                                            8972511801                                                                                                                                                      
00002100BD000002001002              201008241001             AH                                     8974037110                                        897403711089725118018980058340                                                                      89736704408980080710                                                                                                                                                                                    8980058340                                                                                          8979184160                                        0911801100                                        8932978071                                                                                                                                                                                                                                                                                                                                                                                            8972511801                                                                                                                                                      
00003100BD000003001003              201008241002             AH                                     8974037110                                        897403711089725118018980058340                                                                      89736704408980080710                                                                                                                                                                                    8980058340                                                                                          8979184160                                        0911801100                                        8932978071                                                                                                                                                                                                                                                                                                                                                                                            8972511801                                                                                                                                                      
00004100BD000004001004              201008241003             AH                                     8974037110                                        897403711089725118018980058340                                                                      89736704408980080710                                                                                                                                                                                    8980058340                                                                                          8979184160                                        0911801100                                        8932978071                                                                                                                                                                                                                                                                                                                                                                                            8972511801                                                                                                                                                      
00005100BD000005001005              201008241004             AH                                     8974037110                                        897403711089725118018980058340                                                                      89736704408980080710                                                                                                                                                                                    8980058340                                                                                          8979184160                                        0911801100                                        8932978071                                                                                                                                                                                                                                                                                                                                                                                            8972511801                                                                                                                                                      
00006100BD000006001006              201008241005             AH                                     8974037110                                        897403711089725118018980058340                                                                      89736704408980080710                                                                                                                                                                                    8980058340                                                                                          8979184160                                        0911801100                                        8932978071                                                                                                                                                                                                                                                                                                                                                                                            8972511801                                                                                                                                                      
00007100BD000007001007              201008241006             AH                                     8974037110                                        897403711089725118018980058340                                                                      89736704408980080710                                                                                                                                                                                    8980058340                                                                                          8979184160                                        0911801100                                        8932978071                                                                                                                                                                                                                                                                                                                                                                                            8972511801                                                                                                                                                      
00008100BD000008001008              201008241007             AH                                     8974037110                                        897403711089725118018980058340                                                                      89736704408980080710                                                                                                                                                                                    8980058340                                                                                          8979184160                                        0911801100                                        8932978071                                                                                                                                                                                                                                                                                                                                                                                            8972511801                                                                                                                                                      
00031100MY000001001001              201008241201             AH                                     8974037110                                        897403711089725118018980058340                                                                      89736704408980080710                                                                                                                                                                                    8980058340                                                                                          8979184160                                        0911801100                                        8932978071                                                                                                                                                                                                                                                                                                                                                                                            8972511801                                                                                                                                                      
00032100MY000002001002              201008241202             AH                                     8974037110                                        897403711089725118018980058340                                                                      89736704408980080710                                                                                                                                                                                    8980058340                                                                                          8979184160                                        0911801100                                        8932978071                                                                                                                                                                                                                                                                                                                                                                                            8972511801                                                                                                                                                      
00033100MY000003001003              201008241203             AH                                     8974037110                                        897403711089725118018980058340                                                                      89736704408980080710                                                                                                                                                                                    8980058340                                                                                          8979184160                                        0911801100                                        8932978071                                                                                                                                                                                                                                                                                                                                                                                            8972511801                                                                                                                                                      
00034100MY000004001004              201008241204             AH                                     8974037110                                        897403711089725118018980058340                                                                      89736704408980080710                                                                                                                                                                                    8980058340                                                                                          8979184160                                        0911801100                                        8932978071                                                                                                                                                                                                                                                                                                                                                                                            8972511801                                                                                                                                                      
00035100MY000005001005              201008241205             AH                                     8974037110                                        897403711089725118018980058340                                                                      89736704408980080710                                                                                                                                                                                    8980058340                                                                                          8979184160                                        0911801100                                        8932978071                                                                                                                                                                                                                                                                                                                                                                                            8972511801                                                                                                                                                      
00036100MY000006001006              201008241206             AH                                     8974037110                                        897403711089725118018980058340                                                                      89736704408980080710                                                                                                                                                                                    8980058340                                                                                          8979184160                                        0911801100                                        8932978071                                                                                                                                                                                                                                                                                                                                                                                            8972511801                                                                                                                                                      
00037100MY000007001007              201008241207             AH                                     8974037110                                        897403711089725118018980058340                                                                      89736704408980080710                                                                                                                                                                                    8980058340                                                                                          8979184160                                        0911801100                                        8932978071                                                                                                                                                                                                                                                                                                                                                                                            8972511801                                                                                                                                                      
TRAIL 00000015                                                                                                                                                                                                                                                                                                                                                                                                                                                                                                                                                                                                                                                                                                                                                                                                                                                                                                                                                                                                                                                                                                                                                                                                                                  
HEADERRT50 BODY         201009020907520120000000                                                                                                                                                                                                                                                                                                                                                                                                                                                                                                                                                                                                                                                                                                                                                                                                                                                                                                                                                                                                                                                                                                                                                                                                
00001100BD000001001001              201008251000             AH                                     8974037110                                        897403711089725118018980058340                                                                      89736704408980080710                                                                                                                                                                                    8980058340                                                                                          8979184160                                        0911801100                                        8932978071                                                                                                                                                                                                                                                                                                                                                                                            8972511801                                                                                                                                                      
00002100BD000002001002              201008251001             AH                                     8974037110                                        897403711089725118018980058340                                                                      89736704408980080710                                                                                                                                                                                    8980058340                                                                                          8979184160                                        0911801100                                        8932978071                                                                                                                                                                                                                                                                                                                                                                                            8972511801                                                                                                                                                      
00003100BD000003001003              201008251002             AH                                     8974037110                                        897403711089725118018980058340                                                                      89736704408980080710                                                                                                                                                                                    8980058340                                                                                          8979184160                                        0911801100                                        8932978071                                                                                                                                                                                                                                                                                                                                                                                            8972511801                                                                                                                                                      
00004100BD000004001004              201008251003             AH                                     8974037110                                        897403711089725118018980058340                                                                      89736704408980080710                                                                                                                                                                                    8980058340                                                                                          8979184160                                        0911801100                                        8932978071                                                                                                                                                                                                                                                                                                                                                                                            8972511801                                                                                                                                                      
00005100BD000005001005              201008251004             AH                                     8974037110                                        897403711089725118018980058340                                                                      89736704408980080710                                                                                                                                                                                    8980058340                                                                                          8979184160                                        0911801100                                        8932978071                                                                                                                                                                                                                                                                                                                                                                                            8972511801                                                                                                                                                      
00006100BD000006001006              201008251005             AH                                     8974037110                                        897403711089725118018980058340                                                                      89736704408980080710                                                                                                                                                                                    8980058340                                                                                          8979184160                                        0911801100                                        8932978071                                                                                                                                                                                                                                                                                                                                                                                            8972511801                                                                                                                                                      
00007100BD000007001007              201008251006             AH                                     8974037110                                        897403711089725118018980058340                                                                      89736704408980080710                                                                                                                                                                                    8980058340                                                                                          8979184160                                        0911801100                                        8932978071                                                                                                                                                                                                                                                                                                                                                                                            8972511801                                                                                                                                                      
00008100BD000008001008              201008251007             AH                                     8974037110                                        897403711089725118018980058340                                                                      89736704408980080710                                                                                                                                                                                    8980058340                                                                                          8979184160                                        0911801100                                        8932978071                                                                                                                                                                                                                                                                                                                                                                                            8972511801                                                                                                                                                      
00031100MY000001001001              201008251201             AH                                     8974037110                                        897403711089725118018980058340                                                                      89736704408980080710                                                                                                                                                                                    8980058340                                                                                          8979184160                                        0911801100                                        8932978071                                                                                                                                                                                                                                                                                                                                                                                            8972511801                                                                                                                                                      
00032100MY000002001002              201008251202             AH                                     8974037110                                        897403711089725118018980058340                                                                      89736704408980080710                                                                                                                                                                                    8980058340                                                                                          8979184160                                        0911801100                                        8932978071                                                                                                                                                                                                                                                                                                                                                                                            8972511801                                                                                                                                                      
00033100MY000003001003              201008251203             AH                                     8974037110                                        897403711089725118018980058340                                                                      89736704408980080710                                                                                                                                                                                    8980058340                                                                                          8979184160                                        0911801100                                        8932978071                                                                                                                                                                                                                                                                                                                                                                                            8972511801                                                                                                                                                      
00034100MY000004001004              201008251204             AH                                     8974037110                                        897403711089725118018980058340                                                                      89736704408980080710                                                                                                                                                                                    8980058340                                                                                          8979184160                                        0911801100                                        8932978071                                                                                                                                                                                                                                                                                                                                                                                            8972511801                                                                                                                                                      
00035100MY000005001005              201008251205             AH                                     8974037110                                        897403711089725118018980058340                                                                      89736704408980080710                                                                                                                                                                                    8980058340                                                                                          8979184160                                        0911801100                                        8932978071                                                                                                                                                                                                                                                                                                                                                                                            8972511801                                                                                                                                                      
00036100MY000006001006              201008251206             AH                                     8974037110                                        897403711089725118018980058340                                                                      89736704408980080710                                                                                                                                                                                    8980058340                                                                                          8979184160                                        0911801100                                        8932978071                                                                                                                                                                                                                                                                                                                                                                                            8972511801                                                                                                                                                      
00037100MY000007001007              201008251207             AH                                     8974037110                                        897403711089725118018980058340                                                                      89736704408980080710                                                                                                                                                                                    8980058340                                                                                          8979184160                                        0911801100                                        8932978071                                                                                                                                                                                                                                                                                                                                                                                            8972511801                                                                                                                                                      
TRAIL 00000015                                                                                                                                                                                                                                                                                                                                                                                                                                                                                                                                                                                                                                                                                                                                                                                                                                                                                                                                                                                                                                                                                                                                                                                                                                  
HEADERRT50 BODY         201009020908210120000000                                                                                                                                                                                                                                                                                                                                                                                                                                                                                                                                                                                                                                                                                                                                                                                                                                                                                                                                                                                                                                                                                                                                                                                                
00001100BD000001001001              201008261000             AH                                     8974037110                                        897403711089725118018980058340                                                                      89736704408980080710                                                                                                                                                                                    8980058340                                                                                          8979184160                                        0911801100                                        8932978071                                                                                                                                                                                                                                                                                                                                                                                            8972511801                                                                                                                                                      
00002100BD000002001002              201008261001             AH                                     8974037110                                        897403711089725118018980058340                                                                      89736704408980080710                                                                                                                                                                                    8980058340                                                                                          8979184160                                        0911801100                                        8932978071                                                                                                                                                                                                                                                                                                                                                                                            8972511801                                                                                                                                                      
00003100BD000003001003              201008261002             AH                                     8974037110                                        897403711089725118018980058340                                                                      89736704408980080710                                                                                                                                                                                    8980058340                                                                                          8979184160                                        0911801100                                        8932978071                                                                                                                                                                                                                                                                                                                                                                                            8972511801                                                                                                                                                      
00004100BD000004001004              201008261003             AH                                     8974037110                                        897403711089725118018980058340                                                                      89736704408980080710                                                                                                                                                                                    8980058340                                                                                          8979184160                                        0911801100                                        8932978071                                                                                                                                                                                                                                                                                                                                                                                            8972511801                                                                                                                                                      
00005100BD000005001005              201008261004             AH                                     8974037110                                        897403711089725118018980058340                                                                      89736704408980080710                                                                                                                                                                                    8980058340                                                                                          8979184160                                        0911801100                                        8932978071                                                                                                                                                                                                                                                                                                                                                                                            8972511801                                                                                                                                                      
00006100BD000006001006              201008261005             AH                                     8974037110                                        897403711089725118018980058340                                                                      89736704408980080710                                                                                                                                                                                    8980058340                                                                                          8979184160                                        0911801100                                        8932978071                                                                                                                                                                                                                                                                                                                                                                                            8972511801                                                                                                                                                      
00007100BD000007001007              201008261006             AH                                     8974037110                                        897403711089725118018980058340                                                                      89736704408980080710                                                                                                                                                                                    8980058340                                                                                          8979184160                                        0911801100                                        8932978071                                                                                                                                                                                                                                                                                                                                                                                            8972511801                                                                                                                                                      
00008100BD000008001008              201008261007             AH                                     8974037110                                        897403711089725118018980058340                                                                      89736704408980080710                                                                                                                                                                                    8980058340                                                                                          8979184160                                        0911801100                                        8932978071                                                                                                                                                                                                                                                                                                                                                                                            8972511801                                                                                                                                                      
00031100MY000001001001              201008261201             AH                                     8974037110                                        897403711089725118018980058340                                                                      89736704408980080710                                                                                                                                                                                    8980058340                                                                                          8979184160                                        0911801100                                        8932978071                                                                                                                                                                                                                                                                                                                                                                                            8972511801                                                                                                                                                      
00032100MY000002001002              201008261202             AH                                     8974037110                                        897403711089725118018980058340                                                                      89736704408980080710                                                                                                                                                                                    8980058340                                                                                          8979184160                                        0911801100                                        8932978071                                                                                                                                                                                                                                                                                                                                                                                            8972511801                                                                                                                                                      
00033100MY000003001003              201008261203             AH                                     8974037110                                        897403711089725118018980058340                                                                      89736704408980080710                                                                                                                                                                                    8980058340                                                                                          8979184160                                        0911801100                                        8932978071                                                                                                                                                                                                                                                                                                                                                                                            8972511801                                                                                                                                                      
00034100MY000004001004              201008261204             AH                                     8974037110                                        897403711089725118018980058340                                                                      89736704408980080710                                                                                                                                                                                    8980058340                                                                                          8979184160                                        0911801100                                        8932978071                                                                                                                                                                                                                                                                                                                                                                                            8972511801                                                                                                                                                      
00035100MY000005001005              201008261205             AH                                     8974037110                                        897403711089725118018980058340                                                                      89736704408980080710                                                                                                                                                                                    8980058340                                                                                          8979184160                                        0911801100                                        8932978071                                                                                                                                                                                                                                                                                                                                                                                            8972511801                                                                                                                                                      
00036100MY000006001006              201008261206             AH                                     8974037110                                        897403711089725118018980058340                                                                      89736704408980080710                                                                                                                                                                                    8980058340                                                                                          8979184160                                        0911801100                                        8932978071                                                                                                                                                                                                                                                                                                                                                                                            8972511801                                                                                                                                                      
